:020000040800F2
:1000000000040020B9010008BB010008BB01000882
:10001000BB010008BB010008BB010008BB010008D0
:10002000BB010008BB010008BB010008ED910008FE
:10003000BB010008BB010008BB010008B5A1000816
:10004000BB010008BB010008BB010008BB010008A0
:10005000BB010008BB010008919F0008B99F000880
:10006000E19F000809A0000831A00008BB010008BA
:10007000BB010008BB01000875A60008BB01000811
:1000800059A00008BB010008BB010008BB01000823
:10009000BB010008BB010008BB010008BB01000850
:1000A000BB010008BB01000889A200089DA200084E
:1000B000BB010008BB010008BB010008BB01000830
:1000C000BB010008BDA00008BB010008BB0100087F
:1000D000BB010008BB010008BB010008BB01000810
:1000E00072B6264880F30888254880F30988254899
:1000F00025490860022080F31488BFF36F8F08F051
:10010000D1FD08F0A1F94FF0553020491B4A91422A
:100110003CBF41F8040BFAE71D49194A91423CBF24
:1001200041F8040BFAE71B491B4A1C4B9A423EBF9D
:1001300051F8040B42F8040BF8E700201849194A5B
:1001400091423CBF41F8040BFAE708F0AFFD08F01C
:10015000AAFD154C154DAC4203DA54F8041B884730
:10016000F9E703F01FFD124C124DAC4203DA54F8CC
:10017000041B8847F9E708F097BD00000004002041
:10018000000C00200000000808ED00E00000002046
:1001900000040020C4B90008000C002080120020D8
:1001A000801200200C290020E0000008E000000878
:1001B000E0000008E000000892E700F000F8FEE729
:1001C0002DE9F04FC1F80CD0C3689D46BDE8F08F13
:1001D000002383F311882846A047002008F034FF4D
:1001E000FEE708F08BFE00DFFEE7000053B94AB9D6
:1001F000002908BF00281CBF4FF0FF314FF0FF302F
:1002000000F00CB8ADF1080C6DE904CE0AF0FAFC70
:10021000DDF804E0DDE9022304B07047704700BF59
:10022000062008B500F010FA012009F033FD00BFE8
:1002300038B5124B04461D682A6B1AB10023C2E977
:10024000044338BD182000F04DFB0246286378B106
:1002500000210B2301209381C2E90401084B0949C5
:10026000094DC2E9011300231560C2E9044338BDFA
:100270004621064B064800F00FFB00BF000C002093
:10028000ECDE050034126DE60E33CDABECB80008A1
:1002900004B9000838B5194B1C68226B8AB1136980
:1002A0001749546903FB01F1164800FB0411A3FB35
:1002B0000030013341EB0001C2E9043121F000407C
:1002C00038BD182000F00EFB0246206388B10124DF
:1002D00000250B230A480C49C2E904451160014678
:1002E0000A4D0B4C93810B4BC2E90154C2E9043116
:1002F00038BD5221084B094800F0CEFA000C00200E
:100300002DF451582D7F954C0E33CDAB34126DE644
:10031000ECDE05002E7F954CECB8000804B900080F
:10032000032A70B511D940EA01039B071ED1044688
:100330000B4602E0043A032A1CD91946204653F81A
:10034000045B54F8046BAE42F4D0541EAAB1421EB2
:10035000013901E0C3180BD012F801EF11F801CFF9
:10036000A31AE645F6D0AEEB0C0070BD541EEEE7C6
:10037000184670BD20461946E7E7104670BD00BF1D
:1003800088420ED98B1883420BD900EB020C002A4D
:100390006DD0624613F801CD994202F801CDF9D132
:1003A00070470F2A0FD8034602F1FF3C002A5ED0A7
:1003B0000CF1010C013B8C4411F8012B614503F851
:1003C000012FF9D1704740EA01039B0750D1A2F1F8
:1003D000100370B501F1200C23F00F0501F1100E90
:1003E00000F11004AC441B095EF8105C0EF1100E15
:1003F00044F8105C5EF81C5C103444F81C5C5EF839
:10040000185C44F8185C5EF8145CE64544F8145C2B
:10041000EAD1013312F00C0F01EB031102F00F04CB
:1004200000EB031328D08E46043C24F003064FEA69
:10043000940C1E441C1F5EF8045B44F8045FB44235
:10044000F9D10CF1010402F0030203EB840301EB88
:10045000840102F1FF3C4AB10CF1010C013B8C44D8
:1004600011F8012B614503F8012FF9D170BD7047D8
:10047000034602F1FF3C9BE72246EAE770B5860798
:1004800047D0541E002A3ED00346CAB201E0013CC8
:1004900039D303F8012B9D07F9D1032C2CD9CDB208
:1004A00005EB05250F2C1A4605EB054534D9A4F1BB
:1004B000100C2CF00F0603F1100EB6444FEA1C1C72
:1004C000156055609560D56010327245F8D10CF119
:1004D000010214F00C0F03EB021204F00F0C13D006
:1004E000ACF1040323F003030433134442F8045B28
:1004F0009A42FBD10CF003042CB1C9B21C4403F89E
:10050000011B9C42FBD170BD64461346002CF4D104
:10051000F9E703461446C0E7A446E1E738B5C46BE3
:100520000CB1002038BD8021054600F011FA0246CA
:10053000E86330B1031F7C3243F8044F9342FBD190
:10054000EFE74FF0FF3038BD30B51F29054683B0C7
:1005500008D8C36B0C4653B153F8240043F8242049
:1005600003B030BD162303604FF0FF30F8E7802161
:10057000019200F0EDF9019A0346E8630028F3D0F8
:10058000011F00F17C05002041F8040FA942FBD1B6
:10059000E2E700BF1F2938B505461ED8C26B0C46DE
:1005A0006AB152F8213053B1012B06D0591C10D03A
:1005B0000021204642F824109847002038BD2846E4
:1005C00000F0F2F8224601462846BDE8384000F027
:1005D000D7B8162301202B6038BD16234FF0FF300B
:1005E0002B6038BD1F292BD838B5C36B0C46054688
:1005F000A3B153F8242003EB84034AB1511C0BD060
:10060000012A07D0002520461D609047284638BDA6
:10061000012038BD032038BD022038BD802100F004
:1006200097F90346E86340B100201A1F03F17C01EB
:1006300042F8040F9142FBD1DBE74FF0FF3038BDA9
:100640004FF0FF30704700BF38B5134B1F281D68AF
:100650001DD8EA6B044662B152F820304BB1012B31
:1006600005D0591C0FD0002142F8201098470020D7
:1006700038BD284600F098F8224601462846BDE8D5
:10068000384000F07DB8162301202B6038BD1623BA
:100690004FF0FF302B6038BD000C0020114B1F289D
:1006A00070B51E6808D8F36B04460D464BB153F87D
:1006B000240043F8245070BD162333604FF0FF3000
:1006C00070BD8021304600F043F90346F0630028F6
:1006D000F4D00021021F7C3042F8041F9042FBD16D
:1006E000E5E700BF000C002038B50B4B1D68EC6B34
:1006F0000CB1002038BD8021284600F029F9E863BC
:1007000038B1031F00F17C0243F8044F9342FBD140
:10071000EFE74FF0FF3038BD000C002038B5174B25
:100720001F281D6826D80446E86BA0B150F8242085
:1007300000EB84034AB1511C0BD0012A07D00025DD
:1007400020461D609047284638BD012038BD032053
:1007500038BD022038BD8021284600F0F9F8E86352
:1007600040B10021031F00F17C0243F8041F9A42AC
:10077000FBD1DBE74FF0FF3038BD00BF000C00209D
:1007800070B50026074D0446084611462E6009F054
:1007900089FA431C00D070BD2B68002BFBD023606E
:1007A00070BD00BF8812002009F084BA844641EA77
:1007B000000313F0030349D1403A23D30B680360CD
:1007C0004B6843608B688360CB68C3600B690361CF
:1007D0004B6943618B698361CB69C3610B6A0362B7
:1007E0004B6A43628B6A8362CB6AC3620B6B03639F
:1007F0004B6B43638B6B8363CB6BC3634030403184
:10080000403ADBD230320BD30B6803604B68436055
:100810008B688360CB68C36010301031103AF3D21C
:100820000C3205D351F8043B40F8043B043AF9D2AA
:10083000043208D0D2071CBF11F8013B00F8013B7D
:1008400001D30B8803806046704700BF082A13D38A
:100850008B07B1D010F00303AED0C3F10403D21A5A
:10086000DB071CBF11F8013B00F8013BA4D331F8B2
:10087000023B20F8023B9FE7043AD9D3013A11F832
:10088000013B00F8013BF9D20B7803704B784370C1
:100890008B78837060467047144600B51A460A4B41
:1008A0000D461B6885B0DE6803464CB107490191CF
:1008B000304607490294009500F0E0F8FFF7B0FCDD
:1008C00004490C46F3E700BF000C002040B90008C3
:1008D00050B900084CB9000808B513460022FFF7CC
:1008E000DBFF00BF024B0146186800F031B800BFC3
:1008F000000C0020024B0146186800F0E7B800BF6A
:10090000000C002070B5114E054633680C46BBB193
:100910002146284609F0A2F9431C01460CD0C41C0C
:1009200024F00304A04205D02846611A09F096F984
:10093000013001D0204670BD4FF0FF34204670BD1D
:10094000194609F08BF93060E2E700BF8012002001
:100950002DE9F041CD1C25F0030508350C2D38BFDD
:100960000C25002D064682B016DBA94214D8354F5F
:1009700000F06AF87A68AAB1144603E06368224678
:1009800083B11C4623685B1BF8D40B2B21D8A242F1
:10099000636855D053600DE00C233360002002B033
:1009A000BDE8F08129463046FFF7ACFF431C044602
:1009B00019D00560304600F04DF804F10B00231DFE
:1009C00020F00700C21A1CBF1B1AA35002B0BDE8DA
:1009D000F0816119A242256014BF516079606351B2
:1009E00063684B60E6E77B6823B31C465B68002BBB
:1009F000FBD122681946304604EB0208019309F046
:100A00002DF9804516D122683046AD1A2946FFF7E8
:100A100079FF01300ED0226878682A44226042684B
:100A2000019B12B90CE010465268A242FBD1002390
:100A30004360BFE70C233046336000F00BF8ADE7AE
:100A40007B60B7E780120020014800F035B800BF96
:100A50009C120020014800F037B800BF9C12002013
:100A60000CB400B583B004AB53F8042B019300F031
:100A7000C7F803B05DF804EB02B070470EB400B5E0
:100A8000074A82B003AB0146106853F8042B019368
:100A900000F0B6F802B05DF804EB03B0704700BF99
:100AA000000C0020704700BF704700BF704700BFB8
:100AB000704700BF704700BF704700BF01207047FC
:100AC00001207047704700BF704700BF002950D019
:100AD00038B551F8043C0C1F002BB8BFE41805468C
:100AE000FFF7B2FF274A13682BB1A3420CD9216844
:100AF000601883422CD0284663601460BDE83840FB
:100B0000FFF7A8BFA3420FD81A465B68002BF9D1A4
:100B100011685018844217D02CD363605460284663
:100B2000BDE83840FFF796BF11685018A04214D0B6
:100B300020D8216860188342EFD118685B680844A8
:100B4000C4E900035460EAE723680B441360E6E756
:100B500018685B6808442060CDE72068014450189D
:100B600083421160DBD1D3E900040144C2E90014DF
:100B7000D5E770470C2328462B60BDE83840FFF7C7
:100B800069BF00BF841200209368013B002B936073
:100B900005DAD2F818C0634507DB0A2905D01368C7
:100BA000581C106008461970704700F0B3BE00BFB3
:100BB0009BB1F8B5134406460F46541E5D1E01E076
:100BC000AC4208D03A46304614F8011FFFF7DCFF6C
:100BD000431CF5D1F8BD0020F8BD0020704700BFD0
:100BE000936810B514461BB918460023636010BD06
:100BF00000F0AEFC0023A3600023636010BD00BFC3
:100C00002DE9F04FA1B08B4691461C46049018B1D7
:100C1000036A002B00F04181DBF86420BBF90C3043
:100C2000D20702D49F0540F131811E0740F19A801E
:100C3000DBF81030002B00F09580002343F22002F7
:100C40000D9399F800300127954E0794ADF839209F
:100C5000002B77D04D4604E015F8013F002B00F043
:100C60009780252BF8D1B5EB090A40F094802B78BA
:100C7000002B67D000234FF0FF320135CDE9092367
:100C800008930B938DF863301E9306E02546089B6E
:100C9000801B07FA00F0034308932C46052214F842
:100CA000011B304600F0E4FEA1460028EED1089B6F
:100CB000D80644BF20228DF86320190748BF2B2295
:100CC000297848BF8DF863202A297AD1079A1168BC
:100CD000043200290792C0F2AD800B9169782E2969
:100CE00000F086806F4C0322204600F0C1FE38B130
:100CF0004022089B001B8240134309F1010908931D
:100D000019F8011B062268488DF8381000F0B0FE73
:100D1000002800F09580654B002B7ED007A900913C
:100D20005A460498624B08A9AFF300800390039BD6
:100D3000013307D00D9B039A13440D9399F80030AB
:100D4000002B87D1DBF8643013F0010FBBF80C30B7
:100D500002D19A0540F193805B0616D40D9821B01C
:100D6000BDE8F08F5946049800F022FE00283FF4B9
:100D700064AFDBF86430DD0707D4BBF80C309C05AA
:100D800003D4DBF85800FFF79FFE4FF0FF30E6E793
:100D9000B5EB090AD6D009F1FF3805954546DDF8CF
:100DA000108001E0A2453FD92C465A46404615F82E
:100DB000011FFFF7E9FE02340130A4EB0904F1D171
:100DC000C0E7A1F13002092A88BFA94687D80B9B4A
:100DD00000E00134217803EB830302EB4303A1F12C
:100DE0003002092AF5D92E29A1460B937FF47AAF58
:100DF00099F801102A292DD1079B09F102001A68E0
:100E00000433002A0793B8BF4FF0FF3399F802105C
:100E100009928146B8BF099364E7079B073323F023
:100E200007030833079385E70D99059D51442B78F7
:100E30000D911DE7494243F002030B9108934DE7E2
:100E400007A900915A460498194B08A900F0D2F856
:100E500003906CE70023A1F13002092A09F101098E
:100E600009933FF63FAF19F8011F03EB830302EB31
:100E70004303A1F13002092AF5D9099332E7DBF8DF
:100E80005800FFF721FEBBF80C3065E7DBF858008F
:100E9000FFF712FEBBF90C30C7E600F009FBBBE61A
:100EA00080B9000888B900088CB90008000000006B
:100EB000B10B00088C4600B586461346034A7146BE
:100EC00010685DF804EB6246FFF79ABE000C002044
:100ED0002DE9F84F92461F460A698B680C469A42E4
:100EE000B8BF1A46CAF8002091F843300646DDF82C
:100EF000289013B10132CAF80020226891065FD50C
:100F0000DAF800300233CAF80030226812F0060F17
:100F100011461DD1E1689942D8BF114618DD4FF046
:100F2000000804F1190B05E0E568DAF80030ED1A65
:100F300045450CDD01235A4639463046C847013045
:100F400008F10108F0D14FF0FF30BDE8F88F2168BB
:100F500094F84330003B18BF01238A060AD530219C
:100F6000E21882F8431094F845105A1C22440233C8
:100F700082F843103946304604F14302C847013035
:100F8000E1D0D4E902202368DAF8005003F0060328
:100F9000042B21691BD08A4220DD4FF00008521A31
:100FA000904400251A3401E0454517DA0123224612
:100FB00039463046C847013005F10105F4D1C2E792
:100FC00012F0060F0DD0003B18BF0123D2E7401BE3
:100FD0008A4220EAE078E2DC0028E2DC0020BDE87A
:100FE000F88FE168DAF800309942D8BF114696DCF4
:100FF000AEE700BF2DE9F04717460A7E84B00C46E5
:10100000064698460C9D01F1430C002A35D0A2F10A
:101010005803D9B2202969D8202B67D8DFE813F00C
:10102000E000660066006600660066006600660016
:101030006600660066009400700066006600660048
:10104000660070006600660066006600210083008E
:10105000AE00660066009E006600830066006600C3
:10106000E6002B682268181D6169286010061B685D
:1010700002D4520600F1DC8019600023E1462361AE
:101080003B4621463046CDF8008003AAFFF720FFFB
:10109000013020D04A46394630462369C0470130E6
:1010A00019D02368E0689B07DDF80C9018D54845F7
:1010B00016DD002504F1190A04E0E068A0EB09033D
:1010C000AB420DDD0123524639463046C047013060
:1010D00005F10105F1D14FF0FF3004B0BDE8F08714
:1010E0004845B8BF484604B0BDE8F087012084F801
:1010F000422004F142090023206184F84330BFE715
:101100002A682368111D2960190602D45D0600F1C2
:1011100093801068014600286268C0F291804FF009
:101120000A0E52484AE02B682168181D28600806FC
:1011300001D449067ED419686F2A14BF4FF00A0EF5
:101140004FF0080E494835E02A6801201168043242
:101150002A6004F1420984F84210CCE72B68002190
:101160001A1D2A60D3F800906268484600F080FC9F
:10117000002879D0A0EB09006060BCE7236843F049
:101180002003236078223A4884F845202A68111DFC
:1011900029601D064AD4590648D51188DA0744BF8C
:1011A00043F02003236019B9236823F02003236050
:1011B0004FF0100E0023626884F84330002AA260CA
:1011C00016DB236823F00403236089B9002A45D184
:1011D000E146BEF1080F1CD0ACEB090323614FE7D9
:1011E0005823224884F845302368CFE72368C9E7AD
:1011F0007546E146B1FBF5F30A4605FB131A19469D
:1012000010F80A30AA4209F8013DF3D2BEF1080FE6
:10121000E2D12368DD07DFD5626823699A42DBDC0F
:10122000302309F1FF3989F80030D5E71168B5E7B7
:10123000198022E719887FE7B2F9001008466AE7AB
:101240002D20002AA26084F8430002DB23F004036F
:1012500023600A250548AE464942CAE7037804F1EF
:10126000420984F84230B4E7606844E794B9000862
:10127000A8B90008024A0349034800F0DFBA00BFDA
:10128000500C0020811C0008040C00200C4B41680D
:1012900010B59942044601D000F0F2FCA168094B58
:1012A000994202D0204600F0EBFCE168064B9942DF
:1012B00004D02046BDE8104000F0E2BC10BD00BFE5
:1012C000AC120020141300207C13002008B54B6ED4
:1012D000DA0702D48B899B0501D5002008BD886DF3
:1012E000FFF7EAFB002008BD08B54B6EDA0702D411
:1012F0008B899B0501D5002008BD886DFFF7E4FBB5
:10130000002008BD2DE9F84300250423304C314965
:10131000DFF8C490DFF8C480314F324E0822C4F8A1
:10132000381104F15C002946C4E90335C4E90055CD
:10133000C4E90555A5606566FFF7A0F804F15800FB
:10134000C4E90849C4E90A872663FFF7ADFB264BC9
:101350002946082204F1C4006367C4E91A55C4E9A8
:101360001E552567C4F8CC50C4F88050FFF786F8A6
:1013700004F1680304F1C000C4F88830C4E923987C
:10138000C4E92576FFF790FB184B294604F59670C3
:101390000822C4F8DC30C4E93455C4E93855C4F82F
:1013A000D850C4F83451C4F8E850FFF767F804F196
:1013B000D003C4E93E87C4F8F49004F59470C4F8EF
:1013C0000061C4F8F030BDE8F843FFF76DBB00BF23
:1013D000AC1200207512000881180008A918000836
:1013E000E91800080D1900080900010012000200A8
:1013F000F8B506462A48FFF75FFB2A4BD3F8383189
:10140000002B43D0284FD7E90134013B04D524E019
:101410005A1C04F1680420D0B4F90C50013B002D93
:10142000F6D1224B04F15800E3606566FFF73CFB00
:101430001B48FFF749FB08222946C4E90155C4E9C6
:1014400004552560A56104F15C00FFF717F8C4E9B5
:101450000D55C4E912552046F8BD3D680DB12F4623
:10146000D1E74FF4D6713046FFF772FA044680B1E7
:1014700004230560294605460C304FF4D072A06065
:101480006360FEF7FBFF3C602F46BCE7FFF73AFFC7
:10149000B8E703483C60FFF717FB0C233360DAE73B
:1014A000A8120020AC120020500C00200100FFFF09
:1014B00010B504460B48FFF7FFFA236A2BB90A4B15
:1014C0000A4AD3F83831226223B1BDE810400548FA
:1014D000FFF7FABAFFF716FFBDE810400148FFF723
:1014E000F3BA00BFA8120020AC1200208D12000831
:1014F0000148FFF7E1BA00BFA81200200148FFF73A
:10150000E3BA00BFA812002008B50548FFF7D4FAD7
:10151000BDE808400020034A034900F08FB900BF2E
:10152000A8120020500C0020CD12000808B50020A1
:10153000044A054900F082F9BDE808400348FFF776
:10154000C3BA00BF500C0020E9120008A812002006
:101550009368002B00F0F0802DE9F04FB1F90CC03A
:1015600090461CF0080F81460C4683B02BD00B69C7
:101570004BB31CF00207D8F8006032D04FF0000ADD
:101580005546D4F828B0216AAB4FC5B1BD422B46B1
:10159000524628BF3B464846D847002840F3C28001
:1015A000D8F8083082441B1A2D1AC8F80830002BCE
:1015B00000F0AE80D4F828B0216A002DE6D1D6E93B
:1015C00000A50836E1E72146484600F0F1F9002879
:1015D00040F0AD80B4F90CC0D8F800601CF00207F0
:1015E000CCD11CF0010A63D157462368A168184684
:1015F0008B46002F58D01CF4007F00F0B180B94218
:101600000A4600F2DD801CF4906F2FD021696269D8
:101610005D1A02EB420202EBD2726B1C52103B4489
:10162000934292BF93469B461A461CF4806F00F08B
:10163000E68011464846FFF78BF9002800F0F58058
:101640002A4621690190FFF7B1F8A289019B22F493
:10165000906242F08002A2815819C4F814B0ABEB3A
:1016600005053A46BB462361A56020603D4600273C
:1016700051460192FEF784FEA1682368019AA1EB0E
:101680000B011A44A1602260D8F80830AA445B1B01
:10169000C8F80830002B3BD02368A16818468B4659
:1016A000B4F90CC0002FA6D1D6E900A708369EE7F2
:1016B0003846BB463D46002D40D0002845D03A462E
:1016C000D4E904C32068AA4228BF2A466045A1681D
:1016D00004D901EB030A524500F38280934272DC85
:1016E0005A464846216AD4F828C0E047B0F1000ABB
:1016F00018DDB7EB0A070FD00120D8F80830D34423
:10170000A3EB0A03A5EB0A05C8F80830002BD2D1D9
:10171000002003B0BDE8F08F2146484600F0B0FA43
:101720000028EAD0B4F90C3043F04003A3814FF015
:10173000FF3003B0BDE8F08F002070477568334676
:101740000836002DFAD0D3F800B02A460A215846B0
:1017500000F08EF9002865D00130A0EB0B07AEE752
:1017600022699A4214D36569BD4211D86FF00043D3
:10177000BB4228BF3B4693FBF5F3524605FB03F300
:101780004846A56A216AA847051ECBDD7F1B7BE77B
:10179000B94228BF39460D46184651462A46FEF73B
:1017A000EFFDA1682368491B2B44A1602360002939
:1017B000ECD12146484600F063FA0028E6D0B1E7B4
:1017C000BB463A4652E7594692460192FEF7D8FD8B
:1017D000A368019A9B1AA36023681344236088E7D7
:1017E00059465246FEF7CCFD2368214653444846ED
:1017F000236000F045FA00283FF47BAF92E74846AB
:1018000000F082F9034600287FF426AF484621699C
:10181000FFF75CF90C22B4F90C30C9F8002023F072
:10182000800381E76A1C17464AE70C22B4F90C30A2
:10183000C9F8002078E700BF00FCFF7F2DE9F843DE
:101840004FF0000980460F461646D6E90154013D87
:1018500010D4A389013D012B08D9B4F90E3001330E
:1018600004D021464046B84749EA00096B1C04F100
:101870006804EED13668002EE7D14846BDE8F8830B
:1018800010B50C46B1F90E1008F0DDF9002803DBA5
:10189000636D0344636510BDA38923F48053A38162
:1018A00010BD00BF002070472DE9F0410C46B1F992
:1018B0000C101F46CB05054616460BD421F480516B
:1018C000A1813B4632462846B4F90E10BDE8F041EE
:1018D00008F0C0B9B4F90E100223002208F0B8F9DC
:1018E000B4F90C10EAE700BF10B50C46B1F90E10C0
:1018F00008F0AEF9B4F90C30421C0EBF23F480534B
:1019000043F480536065A38110BD00BFB1F90E1090
:1019100008F0A2B9F8B506460D46144610B1036AA0
:10192000002B37D0A269A389A2601A0719D52369B1
:10193000BBB122686169D31AEDB299422F4620DD0E
:101940000133A1680139A160511C216015706269E1
:101950009A420DD0A389DB0701D50A2D08D038465D
:10196000F8BD2146304600F023F838B92369E0E796
:101970002146304600F084F90028F0D04FF0FF37C0
:10198000EDE72146304600F07BF90028F6D101232F
:101990002268D6E7FFF78CFDC4E700BF03460A467E
:1019A000024908681946FFF7B5BF00BF000C0020C8
:1019B00038B52E4B05461B680C4613B11A6A002A2F
:1019C0004BD0B4F90C3018071CD5226922B313F0A0
:1019D000010107D000206169A0604942A1613AB1CC
:1019E000002038BD980758BF6169A160002AF7D16F
:1019F000190658BF1046F4D543F040034FF0FF30AE
:101A0000A38138BDD9062CD55A0712D4226943F0D8
:101A10000803A381002ADAD103F42071B1F5007F15
:101A2000D5D02146284600F06BF9B4F90C30226974
:101A3000CDE7616B51B104F14402914204D02846D4
:101A4000FFF744F8B4F90C300022626300212269E8
:101A500023F02403C4E90021D9E71846FFF728FD45
:101A6000AFE7092243F040032A60C7E7000C0020DB
:101A70005FFA81FC810744D00346511E22B909E078
:101A80009A0709D0013905D3184602780133624517
:101A9000F6D1704700207047184603290CD800295A
:101AA000F8D00346014401E08B42F3D0184613F806
:101AB000012B6245F8D1ECE710B50CEB0C24024683
:101AC00004EB044402E00439032918D9104652F803
:101AD000043B6340A3F1013E2EEA030313F0803F71
:101AE000F1D051B10346014401E08B4205D01846C4
:101AF00013F8012B6245F8D110BD002010BD10462F
:101B0000EFE71146C9E700BF2DE9F041144649B39C
:101B1000EAB106460D4600F07BF98442074602D83A
:101B2000B4EB500F1AD821463046FEF711FF80461D
:101B300078B1BC422246294628BF3A46FEF736FE17
:101B400030462946FEF7C2FF4046BDE8F081FEF769
:101B5000BDFF4FF000084046BDE8F081A846404672
:101B6000BDE8F0811146BDE8F041FEF7F1BE00BFCF
:101B7000F8B5B1F90C30074618070C4639D44A6855
:101B8000002A53DDE56A002D31D000223E683A601C
:101B900013F48052216A55D101233846A847411CCD
:101BA00002465ED0B4F90C30E56A216A5B0705D5C0
:101BB0006368D21A636B0BB1236CD21A00233846C8
:101BC000A847451C40D00022236962602360A38996
:101BD000D90400D56065616B3E6041B104F14403F6
:101BE000994202D03846FEF771FF0023636300205C
:101BF000F8BD0E69002EFAD09B0718BF00230D68B0
:101C000008BF4B690E60AD1B8B600CE02B46324663
:101C1000D4F828C03846216AE047B0F1000CA5EBA3
:101C20000C05664406DD002DF0DCE0E70A6C002AB6
:101C3000A8DCDCE7B4F90C3043F040034FF0FF3090
:101C4000A381F8BD626DB1E73A68B4F90C308AB18E
:101C50001D2A01D0162AEFD100232269C4E90023EE
:101C6000B9E73B68002B9DD01D2B01D0162BE1D18D
:101C70003E60BCE7626022692260DA04AAD4AAE767
:101C800038B50B69CBB10C46054608B1036ABBB148
:101C9000B4F90C308BB1626ED00701D4990512D51E
:101CA00028462146FFF764FF636E0546DA0702D433
:101CB000A3899B050BD5284638BD0025284638BD8D
:101CC000FFF7F6FBE4E7A06DFEF7F6FEE8E7A06D90
:101CD000FEF7FAFEEFE700BF014618B1044B1868A3
:101CE000FFF7CEBF034A04490448FFF7A7BD00BF72
:101CF000000C0020500C0020811C0008040C002067
:101D000070B5B1F90C300C46990796B007D5012291
:101D100004F14703C4E90432236016B070BDB4F97E
:101D20000E100546002929DB6A4607F0A4FF0028AB
:101D300022DB4FF480612846019EFEF709FE88B33E
:101D4000A38906F4704643F08003A3814FF48063B7
:101D5000B6F5005FC4E904032060DED12846B4F97B
:101D60000E1007F094FF0028D7D0A38923F00303B7
:101D700043F00103A381D0E7B4F90C3013F0800FD6
:101D800014BF40264FF4806628463146FEF7E0FD3A
:101D900040B1A389C4E9040643F080032060A38115
:101DA00016B070BDB4F90C309A05B6D4012123F0F9
:101DB000030304F1470243F00203C4E90421A381B1
:101DC0002260AAE770B50C46B1F90E10154600293D
:101DD0001E4696B00FDB6A4607F04DFF00280ADB6F
:101DE000019B4FF4806203F47043A3F50053B3FAF0
:101DF00083F35B0907E0A289002312F0800F14BF70
:101E000040224FF48062002033602A6016B070BD1B
:101E100051F8043C181F002BBCBF0B58C01870476A
:101E200038B51C4B1B78D3B19378C3B1147855786F
:101E3000844201D0854212D185424C790CBF0121E8
:101E400000211144CC7014BF012100215018C0782A
:101E500028B1022B05D014D9D81E01280CD9012095
:101E600038BD505C2CB905F083FE01F077F90020F5
:101E7000F6E705F097FEF8E7033B18BF0123994208
:101E8000F5D0505C14B905F073FEE8E705F08AFE62
:101E9000E5E700BF5C0C002010B5012220214FF0C7
:101EA000804008F051F94FF0804320220B4C9A619A
:101EB000204601224FF4806108F046F94FF4806318
:101EC0002046A36101224FF4006108F03DF94FF470
:101ED0000063A361BDE8104001F06DBA000400404A
:101EE000054B1B7813F0100F14BF4FF080624FF4B6
:101EF0008062024B9A617047142600200004004063
:101F000038B547F64163984204460D4607D14B79F0
:101F1000DBB11E4A137883F00103137015E01B4BED
:101F20001B783BB947F640639C4210D16B7963B193
:101F3000174AEFE7174AFFF773FF30B129462046EB
:101F4000154AFFF76DFF0028ECD1002038BD104B7B
:101F50001878C0B1A4F11E039AB2092A08D8DBB2DE
:101F60000E4A12F813006B7953B100F0AFF9ECE7A9
:101F70002D2C03D02E2CE9D10B23F1E70A23EFE718
:101F800000F0F2F9E1E70120E0E700BF6E0D00206C
:101F9000E8130020740D00206F0D002012B400081B
:101FA00010B5022000F0E8FC064C18B14FF00063B9
:101FB000A36110BD032000F0DFFC0028F6D14FF430
:101FC0000063F5E70004004008280DD804290BD869
:101FD0000E2A09D84B23C1EB011103FB0010034B60
:101FE000024433F81200704701207047CCAE00085D
:101FF000FFF7EABF082808D839B9054B82F001027B
:1020000002EB400033F8100070470120704700BF1A
:10201000A8AE0008FFF7EEBF0120704708B5FFF734
:10202000FBFF08BD0120704708B5FFF769FF08BD39
:10203000704708B5FFF7FCFF08BD000013B502AB01
:1020400003E903000F4B1B78B3B99DF8053073B15A
:102050006AB100F04BFD04460146009800F008FD0F
:102060002046009902B0BDE8104001F04DBB009839
:1020700000F01EFD0446F3E7009800F037FD0099DC
:10208000F0E700BFF0130020034610B400885C881E
:102090000A4640EA0440998810BCFFF7CFBF10B54C
:1020A00004460121FFF7F0FF2146FFF7B7FF10BDFF
:1020B00010B504460021FFF7E7FF2146FFF7B9FFFF
:1020C00010BD0120704708B5FFF7FBFF08BD10B534
:1020D000044600F0D5FB2046FFF7F5FFBDE81040B1
:1020E00046F2A81006F0B5BF08B50120FFF7EFFFD4
:1020F000BDE8084005F090BE08B50020FFF7E7FFF7
:10210000BDE8084005F0AEBE38B501210546FFF731
:10211000BBFF29460446FFF787FFB0B32946204698
:1021200005F0DEFB88B32946204605F033F860B39E
:102130002946204605F008F838B32946204604F021
:102140007BFB10B36B797BB147F65A439C4223D09B
:102150000ED847F601439C421BD047F603439C42EE
:1021600015D0B4F5F84F0ED02846FFF75BFF0DE011
:1021700047F65B439C4212D047F65C439C42F3D146
:1021800001F054F8F0E7FFF7AFFF002038BD01F091
:102190005FF8FFF7B1FFF8E701F054F8E4E701F06A
:1021A00054F8E1E708B505F082FD04F001F900F00C
:1021B00039F8BDE80840012004F0B2B908B500F0D4
:1021C00036F8002004F0ACF9BDE8084005F074BD15
:1021D0000120704710F0020F0CBF01224FF4803233
:1021E000014B9A61704700BF0004004038B50546B6
:1021F000FFF7EEFF044610B12846FFF7EBFF20463D
:1022000038BD0000012210B5034C1146204607F0EE
:102210009BFF0123A36110BD0004004008B5FFF738
:10222000E5FF08BD08B50020FFF7F8FF08BD08B5B9
:1022300005F0AAFBFFF7F2FF08BD000010B505F09E
:10224000A3FB074B04461A78824207D0187005F0AA
:1022500087FD044B18602046FFF7E0FF10BD00BF6C
:10226000E9130020EC1300201FB56C4684E803003E
:102270009DF805300BB100F0D9FE0023ADF80E300B
:1022800094E80300ADF80C10C9B2029002AC29B971
:1022900094E8030000F024FE04B010BD2046FFF7D0
:1022A000FEFE0028F4D1F7E70379012B02D1008864
:1022B00000F03EBC704708B529B105F0CFF8BDE885
:1022C000084005F0A9B905F01BF9F8E710B5044678
:1022D000002845D0031FDBB2A02B13D804F070FEFA
:1022E00000283DD1204605F0D3FB20B1204605F063
:1022F00059FC00F033FF204605F03AFCBDE81040E1
:1023000000F02CBF00F12003DBB2072B07D800F050
:1023100007040120A040C0B200F062FEEEE700F129
:102320005B03DBB2022B05D8BDE81040243880B235
:1023300005F04EBB00F15803DBB21A2B06D8BDE8FE
:102340001040084A32F8130005F05EBB3334E4B2A3
:10235000122C05D805F082F8BDE8104005F05CB9F4
:1023600010BD00BF2AB4000808B50346A0B3021F81
:10237000D2B2A02A05D805F015FCBDE8084000F04F
:10238000EDBE00F12002D2B2072A07D800F0070301
:1023900001209840C0B200F02BFEEEE700F15B0296
:1023A000D2B2022A04D8BDE80840002005F010BBD4
:1023B00000F15802D2B21A2A04D8BDE80840002021
:1023C00005F022BB3333DBB2122B05D805F098F8A9
:1023D000BDE8084005F020B908BD000038B50C463E
:1023E0000546FFF773FF94B140F2E73309494FF414
:1023F0007A72A4FB0141E01841F100010023FDF7CE
:10240000F5FE06F026FE2846FFF7AEFF38BD012098
:10241000F7E700BFA086010008B539280CBF50219E
:102420000021FFF7DBFF08BD08B528B100F0D8FD9B
:10243000BDE8084000F092BE08BD08B528B100F024
:10244000D7FDBDE8084000F089BE08BD2DE9F8437E
:10245000877980460C46457900F0B2FD3F09064673
:1024600008B32E46FDB1C4F3072303F0F002402A5F
:102470000CD0E1B201F12002D2B2072A25D903F033
:10248000E003202B02D101291FD907B3A54B5E78A9
:1024900016F0040607D0022000F098FE00F090FD30
:1024A00080F00106F6B2C4F303330B2B3DD8DFE80E
:1024B00013F01000100054005400AE00C5003C00A2
:1024C0003C00CA002D01420142010026EBE73E46D6
:1024D000E9E7C4F30723C4F303270F2B88BF3F01A9
:1024E000E4B285B157B104F12003DBB2072B3846C3
:1024F00000D92CB900F074FD00F030FE20464CE00D
:1025000000F084FDF8E72046FFF72EFF6FB104F1DD
:102510002003DBB2072B384600D914B900F068FD60
:1025200001E000F07BFD00F019FE002E00F05B8161
:1025300000F03EFD10F0010040F0558188F80500E4
:1025400000F030FD00F02CFA404600F063F900F096
:1025500029FDBDE8F84300F02FBAC4F3072303F0C8
:10256000F003C4F30329202BE4B218BF4FEA091982
:102570002CB1012C34D0002D3CD0DFB1BEE7694B2B
:102580005B78580714D45DB1B9F1000F04D0484608
:1025900000F026FD00F0E2FD0020FFF797FEC4E703
:1025A0002846FFF7E1FEB9F1000FBED04846B5E777
:1025B00055B11FB94846FFF737FFB6E7012FB4D131
:1025C000484600F053FDB0E7002FAED14846FFF774
:1025D00034FF484600F058FD484600F033FDA4E7BC
:1025E00015B1052FA1D8E5E7042F9ED84846FFF77F
:1025F00024FF9AE7002FF9D0392C0CBF4FF4FA5082
:10260000012006F026FD2046FFF7AEFE8DE714F40C
:10261000406FC4F3812307D0012B86D165B1C4F389
:10262000090005F0F1F980E725B1C4F3090005F0D0
:10263000CFF97AE72846FAE72846F2E72946E0B2DA
:10264000FFF739FE71E714F4407F2CD1EDB9E106B4
:1026500048BF0F25C4F342134FEA8303DBB244BFE4
:102660009D40ED4304F00F0202FA03F2C4F381240B
:1026700048BFADB292B2022C45EA02000DD0032C45
:102680000ED0012C06D000F055F905F07DF9FFF7CA
:10269000C5FD4AE700F046F9F7E700F053F9F4E723
:1026A00000F03DF9F1E7C4F301221DB3D207ECD5E8
:1026B00014F0100018BF0F20C4F342134FEA830335
:1026C000DBB21CBF9840C04304F00F0202FA03F2D1
:1026D00008BF0346C4F3812418BF83B292B2022C10
:1026E00043EA02000CD0032C0DD0012C05D000F0E1
:1026F00081F9CAE7012AC8D9DAE700F073F9C4E71B
:1027000000F080F9C1E700F02BF9BEE7E7B2C4F3AF
:1027100003244DB1204600F043F93846FFF784FE0C
:10272000B3E700BF142600203846FFF786FE204698
:1027300000F042F9A9E75FFA84F9A9F1F003042B4C
:1027400038D8DFE803F003210D141D0035B1042F44
:102750009BD8C4F3042000F039F996E7052FF7E77A
:10276000C4F30420002DE3D100F01AF98DE725B160
:10277000C4F3042000F00EF987E700F0F9F884E7CD
:102780001A4B5B785B0704D4C4F30420002DCFD030
:10279000EAE72DB10321C4F3042000F0F5FC74E74F
:1027A000012000F013FD012F7FF66FAF022000F033
:1027B0000DFD6AE73DB11FB14846FFF787FD64E7AD
:1027C000C4F30420D0E75FB1B9F1390F0CBF4FF467
:1027D000FA50012006F03DFC4846FFF7C5FD54E7DE
:1027E000C4F30420A4E7BDE8F88300BF142600204A
:1027F00038B501880446407900F0A6F9054600F096
:1028000009F900F08BF829462046BDE83840FFF76B
:102810001DBE0000037910B50446B3B1FFF774FC88
:1028200068B900F0CDFB80B1637973B1074B5B7879
:102830005B070AD5BDE81040022000F0C7BC204667
:10284000FFF7D6FF2046FFF733FC10BD142600200B
:1028500008B5002005F0BCF8002005F0D5F800F020
:10286000E5FB00F07BFC04F0F3FEBDE8084004F05B
:10287000D3BE08B505F0B0F9BDE80840FFF7E8BFE2
:1028800008B500F0BDFBBDE80840FFF7F2BFC0F39C
:102890000333062BC2B213D094BF0E33063303F0BA
:1028A0000F03012B10D8F02A10D004D8E72A8CBFD0
:1028B000002001207047F42A14BF00200120704737
:1028C000E72A03D9F12AF7E7002070470120704773
:1028D00008B50346007930B1188800F029F9BDE841
:1028E0000840FFF7D4BF08BD82B002AB03E9030084
:1028F00002B0704782B002AB03E9030002B0704738
:10290000704708B5FFF7FCFF08BD000008B5FFF7EA
:10291000F8FF014B188008BD201400207047FFF716
:10292000F5BF0000024B1B881843FFF7EFBF00BF45
:1029300020140020024B1B881840FFF7E7BF00BFA0
:1029400020140020024B1B885840FFF7DFBF00BF58
:1029500020140020704708B5FFF7FCFF08BD0000F9
:1029600008B5FFF7F8FF014B188008BD1E140020C2
:102970000020FFF7F5BF0000054B1B881BB9B0FA1C
:1029800080F04009704743FA00F000F00100704702
:102990001E140020012303FA00F080B2FFF7E0BF0D
:1029A000012303FA00F0034B1B88184380B2FFF7A2
:1029B000D7BF00BF1E1400200123034A83401088A4
:1029C00020EA0300FFF7CCBF1E140020012303FA06
:1029D00000F0034B1B88584080B2FFF7C1BF00BF17
:1029E0001E140020024B1B881843FFF7B9BF00BF1D
:1029F0001E140020024B1B881840FFF7B1BF00BF18
:102A00001E140020024B1B885840FFF7A9BF00BFCF
:102A10001E140020704730B5012401F00703C908D7
:102A200002EB810200219C40E4B2013A12F8015FFE
:102A300020FA01F343F300036B40234001315D4072
:102A400004291570F2D130BD002210B500F0070442
:102A5000C00801EB800110468B5CE34003F00103EA
:102A6000934001321843042AC0B2F5D110BD0000D2
:102A700017B40C46C1B2C0F3072004280BD80E29A6
:102A80000FD8C0EB00100144074A89B2204603B0BA
:102A900010BCFFF7C0BF031DDBB2012B01D8034AF6
:102AA000F4E703B010BC7047F5130020F1130020C9
:102AB000C3B2C0F30720042882B009D80E2B0ED869
:102AC000C0EB00101844074980B202B0FFF7BCBF4A
:102AD0000430C0B2012802D818460349F5E70020A7
:102AE00002B07047F5130020F113002073B50F24D6
:102AF0000D4BADF804001D880C4B1B881D43ADB277
:102B000045FA04F3DB0705D4013CF9D20026304630
:102B100002B070BDE6B23046019900F012FE80B2FC
:102B20000128F1D0F3E700BF1E140020201400207C
:102B300007B5ADF804000198FFF7D8FF019903B07D
:102B40005DF804EB00F0FDBD13B5104BADF80410BB
:102B50001B782BB1019802B0BDE81040FFF7E8BF29
:102B600070B10198FFF7C2FF044601460198FFF7D4
:102B70007FFF2046019902B0BDE8104000F0E1BDA2
:102B80000198FFF795FF0446F3E700BFF01300201C
:102B9000F8B50C4B0C4E1C780C4D3378A34200D189
:102BA000F8BD05EBC40335F834005F889A88D988EE
:102BB00040EA074042EA01410134FFF79BFE04F07E
:102BC0000704EAE722140020231400202414002024
:102BD000064B10B418885C889A88D98840EA04406B
:102BE00042EA014110BCFFF785BE00BF641400201B
:102BF000194AF8B593790F2B0AD8537943B1174B7B
:102C000017491B780D7816885788164CAB4200D1AF
:102C1000F8BD04EBC3010879D0B134F83300B042F9
:102C200016D14879A0B94888C01B80B2C7280FD8F0
:102C30000120937960F3071393718B7960F3071385
:102C400005488B71FFF7E6FDBDE8F840FFF7A0BF30
:102C5000013303F00703D9E7641400202214002095
:102C60002314002024140020F0B50D4B0D4C1B78CC
:102C700026780D4CB34201D10020F0BD04EBC30512
:102C80006F788F4206D114F83370874202D16D7984
:102C9000954203D1013303F00703EBE70120ECE792
:102CA0002214002023140020241400202DE9FF47C3
:102CB000E9460446894D014606224846FDF776FD61
:102CC0002B7994F8008061786779B4F802A02279B2
:102CD000C3B9002A00F0C780002F00F0F68020461C
:102CE000FFF7F6FD002800F0F08008222146284674
:102CF000FDF75CFD2846FFF7D7FAFFF779FFFFF7EE
:102D000067FFB0E06B886E79AAEB03039BB2002EDD
:102D100000F0AB80C72B00F28480002A00F0A38073
:102D2000AB7928880F2B22884ED8904211D1002FE2
:102D300045D1012262F30713AB71FFF749FF284623
:102D4000FFF768FDAB79A3710025284604B0BDE804
:102D5000F087A7BB3A464046FFF786FF4046FFF79D
:102D600083FF05460028EFD10098FFF7E1FEC0F38E
:102D70000332032AC3B208D8012A10D910F4706FA5
:102D800012D0A2790F2A0FD8DFE7063202F00F0225
:102D9000012A0ED92046FFF73DFD3546D5E710F450
:102DA000706F01D0002BD0D02033DBB2072BCCD9F1
:102DB000F0E7EF2BC9D90F33DBB2022BF7E7AB7982
:102DC00043F00103AB71BFE790420AD14FB92046EF
:102DD000A371FFF71FFD082221462846FDF7E6FCF8
:102DE0008DE72046FFF774FD00286ED0002F6CD0D1
:102DF000AB791F2B0FD92A8802A8ADF808202A79B1
:102E0000ADF80AA08DF80C2000228DF80E308DF858
:102E10000D20FFF7FFFC082221463048FDF7C6FCD5
:102E20006BE7AB790F2B0ED899E80300FFF75CFD39
:102E30002846FFF7EFFC082200212846FDF71EFB7D
:102E4000FFF7C6FE80E772B1298822889142C8D177
:102E5000002FC6D12046A371FFF7DCFC08223946BB
:102E60002846FDF70BFB01256FE7C72B31D8002A59
:102E7000F9D057B32A8823889A421DD1AB79DA0753
:102E800014D40F2B12D9A37103F0F003F02B06D04A
:102E9000A379C3F30312013262F30713A37120462F
:102EA000FFF7B8FC082221460C4897E70822214684
:102EB0000A48FDF77BFCD6E72046FFF709FD00280E
:102EC000A9D1AB7943F00103AB712046FFF7A2FC17
:102ED000C9E799E80300FFF707FDACE76414002099
:102EE000F0B585B06C4684E803002046FFF7DEFEAF
:102EF000284F0646284D68B19DF804301BB194E870
:102F00000300FFF7F7FC254C28783B78834226D155
:102F100005B0F0BD02AB94E8030083E803009DF820
:102F2000041038782A780029EDD0441C04F00704F6
:102F300094420AD01946194B082203EBC000FDF752
:102F400035FC3C70FFF724FEDDE7FFF799FC082213
:102F5000314613483E702E70FDF790FAD3E704EB2C
:102F6000C000FFF7A3FE0028D2D02B7834F833003E
:102F700004EBC3035E889A88D98840EA064042EA97
:102F80000141FFF7B7FC2B78013303F007032B70E7
:102F9000BAE700BF231400202214002024140020CC
:102FA00064140020014B1878C00870479414002066
:102FB000024B187800F00700704700BF94140020FF
:102FC000034B187810F0070018BF0120704700BFAE
:102FD00094140020014B1878704700BFC0140020E3
:102FE000024B1A7810431870704700BFC0140020BD
:102FF000024A137823EA000313707047C0140020BC
:103000000022014B1A707047C0140020024B1A783E
:1030100010431870704700BFBF140020024A137895
:1030200023EA000313707047BF1400200022014BF5
:103030001A707047BF140020704708B5FFF7FCFFF7
:1030400008BD000008B5054A1378034204D023EAFE
:1030500000001070FFF7F1FF08BD00BF95140020BD
:10306000704708B5FFF7FCFF08BD000010B5054923
:103070000B7830EA030403D003430B70FFF7F1FF32
:1030800010BD00BF9614002008B5054A137803420E
:1030900004D023EA00001070FFF7E3FF08BD00BF73
:1030A0009614002008B5044B1A781AB10020187045
:1030B000FFF7D7FF08BD00BF9614002010B5084BDE
:1030C0001C78084B1B781C43074B1B782BB11C4307
:1030D00004F0B6FC08B1FFF7E5FF204610BD00BFC5
:1030E000C0140020BF1400209614002038B50B4CEB
:1030F0002568FFF7E3FF2870246808222046084966
:10310000FDF70EF948B1214608220548FDF74EFBB0
:103110002046BDE8384004F03FBC38BD800D00209B
:103120008C14002038B50B4C2568FFF7C7FF68707A
:103130002468202220460849FDF7F2F848B12146CC
:1031400020220548FDF732FB2046BDE8384004F058
:103150002BBC38BD7C0D00206C140020054B1B7867
:1031600033B1054B93F90030002B01DAFFF7DABFDA
:10317000FFF7BCBF980D002014260020704708B54B
:10318000FFF7FCFF08BD0000094A10B5527852074E
:103190000AD5084C41EAC0012170FFF701FC2078F4
:1031A000C008FFF7ECFF10BDBDE81040FFF7F8BB0B
:1031B0001426002094140020002008B5024B18703B
:1031C000FFF7DDFF08BD00BF9414002008B50A4AD0
:1031D000137823EA0000107042070CD198420AD0FD
:1031E000064B5B785B0706D5C008FFF7E5FBBDE83B
:1031F0000840FFF7E1BF08BD94140020142600200A
:10320000094A08B55378C3F3800181420AD060F3BC
:1032100082035370108800F039F8BDE8084002209E
:10322000FFF7D4BF08BD00BF14260020044B587818
:10323000C0F3800080F0010000F00100FFF7E0BF64
:10324000142600200120FFF7DBBF0020FFF7D8BFC6
:1032500008B5002000F052FDBDE808404FF6FF71B0
:10326000002000F02DBD08B5002000F0C2FC4FF694
:10327000E563C31A5842584108BD022000F0AABCB9
:10328000032000F0A7BC042000F0B3BC01460420DA
:1032900000F016BD01460F2000F020BD01461320AE
:1032A00000F01CBD0020FFF7F9BF08B50020FFF7B4
:1032B000F1FFFFF7F7FF08BD07B5002000F01EFD86
:1032C0004FF6E561002000F0FBFC0021022000F039
:1032D000E9FC0121194B0320198000F0E3FC4FF4B5
:1032E000A051042000F0ECFC0021062000F0DAFCE4
:1032F0000021072000F0D6FC0021082000F0EEFCA1
:103300000021232000F0CEFC00210C2000F0CAFC9C
:1033100000210D2000F0C6FC002300226846CDE904
:1033200000231721082200F0A3FC00211F2000F039
:10333000D5FCFFF7BAFF03B05DF804FB20140020B2
:10334000FFF7BABF01460E2000F0ACBC73B504F025
:103350003FFD0B4D04462B8883420ED00026ADF86E
:10336000006004F035FDADF80460ADF8020002AB7A
:1033700013E90300FEF778FF2C8002B070BD00BF98
:10338000C214002008B504F0EBFC024B1860024B9D
:10339000186008BDD8140020D414002008B504F02B
:1033A000DFFC024B1860024B186008BDD8140020E7
:1033B000D014002070477047704708B5FFF7FCFF36
:1033C00008BD01207047000008B5054800F0AEFABE
:1033D00000F092FCFFF7EEFFFEF75EFD08BD00BFB8
:1033E000253900080120704708B5FFF7FBFF08BD2D
:1033F00008B5FEF775FDFEF7D3FD08BD08B5FFF76C
:1034000032FF08B9FFF79CFFFFF737FF084B187032
:10341000FFF739FF074B188003F036FDFFF730FF49
:10342000FFF77DFA044B1888BDE80840FFF793BA10
:10343000DC140020142600201E14002008B504F01F
:103440008DFC03F017FB00F029FBFFF7D7FFFEF719
:10345000D9FE03F03FF8FFF7B0FF08BD2DE9F04FAC
:1034600085B0FFF7AEFF78B9FFF770FF02F0A0FF5D
:1034700003F056FB08B1FFF791FF04F011F905B016
:10348000BDE8F04FFEF7DABEDFF8C08000F020FBA9
:1034900046460024E0B236F8025B00F057FA042CEE
:1034A00050D0854204F10104F4D0294B1B789B07CE
:1034B00001D500F051FAFFF797FF002701905FFA5E
:1034C00087F9484600F042FA38F8026B0546B042E8
:1034D00032D000244FF0010A4640B6B216EA0A0F75
:1034E00020D0019B15EA0A0F14BF4FF0010B4FF0DB
:1034F000000B93B18DF808408DF8099004F068FC3A
:103500004FF00103ADF80A008DF80C308DF80DB0C6
:1035100002AB93E80300FEF7A7FE5A462146484651
:1035200001F064FD0134E4B24FEA4A030F2C1FFAA4
:1035300083FAD3D128F8025C0137052FBFD1FFF7FA
:1035400021FF93E78542B0D18EE700BFC41400206D
:10355000DC14002038B500F0FFF8B0F5A44F0446A5
:1035600043D2B0F5A04F80F0AE80DF2816D8CC282B
:1035700000F28C80A7280AD8A42879D8012804D082
:10358000031F9BB2A12B28BF0024204638BDA0F109
:10359000A8039BB21A2B71D90024F6E7B0F5804F2F
:1035A00019D2B0F5005F80F09D80E728EDD9A0F535
:1035B00080739BB2B3F5F85FEED2C0F3072000F042
:1035C0004FF90546E0B200F0C7F82D0205F4F855B2
:1035D00040EA050450E0C0B200F0BEF804F47064A4
:1035E000204340F4204084B2CFE7B0F5A54F22D26B
:1035F00045F25F23984253D845F23F2398420FD8B3
:1036000045F21F23984244D8012300F00304C0F37D
:103610008502A34043EA421343F40D439CB2B4E74E
:10362000012300F00304C0F38202A34043EA4213E3
:1036300043F40C43F2E745F2BF2398420AD845F21F
:103640009F23984200F01F0035D84AF2F40343EA62
:1036500000249AE7A0F5A543403B9BB21F2B9BD8C3
:10366000040204F4F85444F4204444F0F0048CE7D9
:10367000A0F1240444F48044A4B286E7214B5834DA
:10368000E4B233F8144044F488447EE740F4A044A4
:10369000F2E74AF2F10300F01F0443EA042474E75E
:1036A000012300F00304C0F38202A34043EA421363
:1036B00043F40A43B2E700F0D3F8040204F4F854E8
:1036C00044F4005461E700F01F0000F0C9F8C3069D
:1036D000C4F3431448BF0001240200B2044344F47D
:1036E0001044C9E7C0F3042000F0BAF80546E0B280
:1036F00000F032F82D0205F4F855054345F4005565
:10370000ACB242E760B40008CBB2C1F30721042990
:1037100082B005D80E2B11D81A4602B0FEF768BC4D
:10372000FD2905D153B90122194602B0FEF772BC3A
:10373000FC2903D113B91A461946F6E7002002B056
:10374000704707B5ADF804100199FFF7DDFF03B02E
:103750005DF804EBFFF7FEBEE7284FD8DF2807D857
:10376000312864D00ED8292857D02A2866D070472F
:10377000A0F1E003072B41D8DFE803F01540232830
:1037800031403C41392804D0822802D035283FD02E
:103790007047324B1A7892071FD15B7813F0080FED
:1037A00018BF292070472D4A1378D9074DD4527875
:1037B00012F0010F22D013F0100F14BF0020E320ED
:1037C0007047264B1B7813F0040FF3E7234A137856
:1037D00059073CD45278D207EDD5E02070471F4BF3
:1037E0005A7891070AD51B7813F0100F14BF0020E8
:1037F000E7207047194B1B781A07F5D47047174A12
:103800001378190725D452789107EDD5E420704735
:10381000124B1B7813F0200FC2E7104B1A78920658
:1038200019D45B7813F0080F18BF392070470B4B81
:103830001B7813F0400F18BF2A207047074B1B78E6
:1038400013F0400F18BF3120704739207047E22035
:103850007047E62070473520D0E700BF14260020CF
:1038600010B52F4C21784B0713D500F01402A2F1AC
:10387000040C00F01803DCF1000242EB0C02A3F18F
:10388000080CDCF1000343EB0C039A4218BF80F0F4
:103890000C000B0713D500F01402A2F1140C00F079
:1038A0001803DCF1000242EB0C02A3F1180CDCF16E
:1038B000000343EB0C039A4218BF80F00C006478BD
:1038C000E30713D500F0110202F1FF3C00F01803EA
:1038D000DCF1000242EB0C02A3F1080CDCF1000366
:1038E00043EB0C039A4218BF80F00900A30711D5DF
:1038F00000F0110200F01803A2F111046242A3F1DA
:10390000180C6241DCF1000343EB0C039A4218BF30
:1039100080F00900CB0648BF00F0E70010BD00BFF3
:10392000142600200020704700207047014B1860CB
:10393000704700BF840D0020704708B5FFF7FCFFFB
:1039400008BD704708B5FFF7FCFF08BD014B33F811
:10395000100070472026002070474FF4346005F0B7
:10396000F1B900BF00BF00BF00BF00BF00BF00BF74
:1039700000BF00BF00BF00BF00BF00BF00BF00BF4F
:1039800000BF00BF00BF00BF00BF00BF00BF00BF3F
:1039900000BF704708B5FFF7E0FF08BD08B530234A
:1039A00083F31188012100F00F039940202220F0B9
:1039B0000F0006F0C9FB002383F3118808BD000047
:1039C00038B50F240B4D55F8040B421C01D0FFF7FE
:1039D000E5FF013C14F0FF04F5D10524064D55F830
:1039E000040B431C01D0FFF7D9FF013C14F0FF0486
:1039F000F5D138BD98B40008D4B400082DE9F843D7
:103A0000DFF89080054658F821300E465C1C1746BA
:103A10003ED0302282F31188012223F00F0903F0F7
:103A20000F0302FA03F421464846240406F08CFBF7
:103A3000C9F81840002484F31188FFF792FF6FEA59
:103A4000070EDFF854C0A91E08355CF8042B31F8C6
:103A5000023F501C19D022F00F00006902F00F0243
:103A600020FA02F2D20710D401243B438D420B808E
:103A7000EBD158F82600431C01D0FFF78FFF2146F9
:103A80003046BDE8F843FFF785BF03EA0E03EDE7D4
:103A9000BDE8F88398B40008D4B4000810B50A242F
:103AA000FFF78EFF224600210748FCF7E7FC22467D
:103AB00000210648FCF7E2FC052000F03BF8BDE8D9
:103AC0001040FFF73ABF00BF202600201626002036
:103AD00030B50024012585B001940294ADF80C4066
:103AE0002A46E1B201A80134FFF788FF6D000F2CD0
:103AF000ADB2F5D10A220D4801A9FCF711FC00284E
:103B000014BF0124002404D00A22084801A9FCF7AC
:103B10004DFE234605220649044800F00DF80446F0
:103B2000FFF710FF204605B030BD00BF162600206D
:103B300020260020704700002DE9F84307460E4676
:103B400015461C46DFF850804BB1012388F8003041
:103B500004F006F9114B18600020BDE8F88398F8CE
:103B60000090B9F1000FF7D00C4B186804F03CF945
:103B70000428F1D96D002A4639463046FCF7D0FBBF
:103B800028B12A4639463046FCF710FE4C46002341
:103B9000204688F80030E0E7E4140020E01400201C
:103BA000FFF75CBC08B504F09DF804F05BFCFFF780
:103BB0000BFC04F059FCFFF741FC04F06BFC04F033
:103BC0006FFCFFF7EDFF04F08DFC04F025FCFFF720
:103BD0000FFCF4E7002307B5014601220DF10700B1
:103BE0008DF8073000F08CF89DF8070003B05DF801
:103BF00004FB002307B5014602220DF10600ADF8D3
:103C0000063000F07DF8BDF8060003B05DF804FB57
:103C100007B50422002301460DEB0200019300F0DA
:103C20006FF8019803B05DF804FB07B501228DF829
:103C3000071001460DF1070000F067F803B05DF8CA
:103C400004FB07B50222ADF8061001460DF106008F
:103C500000F05BF803B05DF804FB07B504220191A6
:103C600001460DEB020000F050F803B05DF804FBD4
:103C7000F8B505461446D31D23F0070300AFADEB9E
:103C8000030D68460E4600F03BF82246694628467A
:103C9000FCF746FB20B122463146284600F035F8B5
:103CA000BD46F8BD38B50C460546FFF793FFA04268
:103CB00005D021462846BDE83840FFF7B6BF38BDDD
:103CC00038B50C460546FFF794FFA04205D02146C3
:103CD0002846BDE83840FFF7B4BF38BD38B50C46BC
:103CE0000546FFF795FFA04205D021462846BDE8CE
:103CF0003840FFF7B2BF38BD00F016B900F03CB84D
:103D00000B460146184600F051B80B4601461846CE
:103D100000F09CB808B5064B4FF40062002118462D
:103D2000FCF7ACFB40F60802C0F8002808BD00BF55
:103D3000E814002010B5064C94F8043833B900F0AC
:103D40006AF910B1012084F8040810BD0220FCE7D4
:103D5000E814002010B5074C94F804383BB100F08B
:103D600064F918B10023012084F8043810BD022042
:103D7000FCE700BFE814002038B5FFF7DBFF04467E
:103D800018B9FFF7E7FF204638BD00F046F90546B1
:103D9000FFF7C0FF012C06D1FFF7DCFF00280CBFA6
:103DA000002505F001052C46EDE7000008B50346A7
:103DB00008469918B1F5006F05D804491944FCF775
:103DC000F5FC012008BD0020FCE700BFE81400203E
:103DD00070B500F022F9044618B3FFF7ABFF4FF4BB
:103DE000807205461249002000F03CF9104E04464E
:103DF00078B10DA3D3E900234FF40061304602F0FF
:103E0000FEFD02460B464FF4006000F064F94400EA
:103E1000E4B2012D01D1FFF79DFF40F60803C6F87B
:103E20000038204670BD00BF25232284E49CF2CBDD
:103E3000E8140020044BD3F80038B3F5805F01D3B9
:103E4000FFF7C6BF01207047E81400202DE9F04FAE
:103E50008318B3F5006F04460E46154685B01DD88D
:103E6000DFF8BCB000EB0B0739463046FCF758FAD8
:103E7000002844D02A4631463846FCF797FCFFF725
:103E800059FF824640B14FF000084FF0000955B984
:103E9000FFF7D0FF034638E0FFF75CFF002318462A
:103EA00005B0BDE8F08F052D2F4628BF0527C4F3C8
:103EB000024343EAC703CDE902893A468DF8083048
:103EC0003146230A0DF10B008DF809308DF80A40B8
:103ED000FCF76CFCDDE90223DBF8000800F0FBF8DE
:103EE00090B1DBF800380833CBF80038FFF7A2FFB9
:103EF0000128034605D1ED1B3C443E44C7E701239E
:103F0000CDE710F0FD0F00D00023BAF1010FC6D1AC
:103F10000193FFF71FFF0028C0D0019BBFE700BF40
:103F2000E8140020000000007FB5FFF7F3FE00F06A
:103F30006DF828B9FFF7EEFE0024204604B070BDEE
:103F40004FF480720020304900F071F82E4C0028A8
:103F500043D02BA3D3E900234FF40061204602F0A5
:103F60004EFD06460D464FF4006002A900F077F8BA
:103F7000DDE902239D4208BF964201D0FFF7CAFE49
:103F800040F608056946284600F069F848B3DDE9BF
:103F9000003253EA02011ED013F0C00FCDE9023205
:103FA00005F10805D9B21BD103F47F40C3F30743E1
:103FB00018430B0403F4E0231843CA0800EBD101B3
:103FC000B1F5006F0CD80DF10B012044FCF7EEFBAE
:103FD000B5F5805FD6D1012003E0FFF79BFEA9E78E
:103FE0000020C4F8005838B9FFF7F2FE0446002854
:103FF000A3D1FFF78FFEA0E7FFF71CFFF6E700BF96
:1040000025232284E49CF2CBE814002008B500F0BC
:10401000E3F8012008BD0120704708B5002000F03A
:10402000DDF8B0FA80F0400908BD0120704738B5CE
:10403000D5002A460C4600F0EEF818B92146254472
:10404000A94203D1B0FA80F0400938BDD1E900237C
:10405000D243DB4341F8082B41F8043CF0E701224E
:10406000FFF7E5BF2DE9F0430646884615460027D1
:10407000C1B06B46202DAE4628BF4FF0200E1C4627
:104080009C4608EBC702774408EBC7094A4511D1A3
:104090000024744513D14FEAC4094A4661463046AC
:1040A00000F0D7F8A8B92D1B4E44E2D1012041B051
:1040B000BDE8F083F2E80201E4E80201E6E7D3E9B3
:1040C0000002C043D24343F8080B43F8042C0134E8
:1040D000DFE70020EBE707B5CDE9002369460122C1
:1040E000FFF7C0FF03B05DF804FB000000220823C7
:1040F0001146014803F0F4BE0C08004008B5FFF774
:10410000F5FF30B1062003F02BFF03F061FF002024
:1041100008BD4FF0FF30FBE7F7B51F464BBA090C5F
:10412000064615468DF80400ADF806308DF80510EA
:10413000FFF7DCFFE8B104210DEB010003F034FFD1
:10414000044648B945B1022E0BD0032E0ED12846A5
:10415000B9B203F033FF044603F03AFF204603B040
:10416000F0BD2846B9B203F01FFFF4E74FF0FF346B
:10417000F2E74FF0FF34F1E710B5FFF7B7FF88B172
:10418000052003F0EDFE03F0FDFE044603F020FFE2
:10419000002C05DB14F0010F0CBF00246FF00304AA
:1041A000204610BD4FF0FF34FAE710B5044603F087
:1041B000D7FD4FF47A7303FB040403F0D1FDA04252
:1041C00004D2FFF7D9FF031DF7D010BD6FF0010037
:1041D000FBE70120FFF7E9BF03F048BE00F580339D
:1041E000B3F5002F10B5044612D283B283B9FFF79E
:1041F000F0FF78B9FFF782FF60B903460246214617
:10420000D820FFF789FF28B9BDE81040FFF7E1BFCC
:104210004FF0FF3010BD2DE9F04107460D46164620
:10422000FFF7D7FF0446804638B1324600212846C2
:10423000FCF724F92046BDE8F08133462A4639468A
:104240000320FFF769FF04460028F3D032464146B9
:10425000EDE72DE9F04107468846164676B9FFF7A7
:10426000B8FF044638B9FFF741FF20B3042003F03C
:1042700077FE03F0ADFE2046BDE8F081FDB2C5F546
:104280008075B54228BF3546FFF7A3FF04460028D6
:10429000F1D1FFF733FF04460028ECD12B4642460C
:1042A00039460220FFF738FF04460028E3D1A8442E
:1042B0002F44761BD2E74FF0FF34DCE730B510F423
:1042C0007F4F85B00190C0F30725C0F307420DD1A1
:1042D00009B1304B9A5C13461146002063F3070086
:1042E00061F30F2062F3174005B030BD9DF8044024
:1042F000002937D0274B995C0620FF2360435A1BC7
:10430000B0FBF3F06FF05403434303EB440303EBC0
:104310004303DBB203FB05F4C3F1FF036B43241239
:104320001B12C4F1FF04C3F1FF034A434C434B4348
:10433000C2F30722C4F30724C3F30723C9B2062834
:1043400024D801A555F820F0DB4200086943000895
:104350006F43000879430008834300088D43000839
:10436000DB4200081146C7E70B462146B5E7184671
:104370000B4611460246B0E70B4611461A46234645
:10438000ABE7184613460A460146A6E713462246FF
:10439000A3E700BF00B50008012184B004B0FFF717
:1043A0008DBF012830B501D8C0B230BDB0F5F75F80
:1043B00088BFFF224FF001049EBF42090832D2B2EB
:1043C000A3185910C3F34705C3F34F035B439BB2D4
:1043D000984206D2013DEAB29442F1D9013CE0B2E2
:1043E000E3E7FF2902D00135ECB2F5E70846DCE748
:1043F000074B188800EB402200EB820000F5585074
:10440000193080B2188000EB1020C0B2704700BF96
:104410008E0D002010F0400216BFC3430346DBB2EE
:1044200010B503F00F0102B10131094CC3F30113C0
:1044300004EB4302527814F813304A4303EB22137F
:10444000DBB2020644BF5B42DBB283F0800010BDEA
:10445000E8B40008144B84B003EB4103E42101905D
:1044600093F84B30C0F307204B43C2EB13231C33AC
:10447000002BB8BF5B42A0EBC3031BB223EAE3737C
:10448000434300201B128DF80530019BDAB262F322
:104490000700C3F3072262F30F20C3F3074363F35C
:1044A000174004B0704700BF5D0C0020144B84B06F
:1044B00003EB4103E421019093F84B30C0F3074034
:1044C0004B43C2EB13231C33002BB8BF5B42A0EB62
:1044D000C3031BB223EAE373434300201B128DF88E
:1044E0000630019BDAB262F30700C3F3072262F3DE
:1044F0000F20C3F3074363F3174004B0704700BFB6
:104500005D0C002084B0019000208DF80420019BF8
:10451000DAB262F30700C3F3072262F30F20C3F39A
:10452000074363F3174004B07047000084B0019064
:1045300000200B4B03EB410393F84B309B1A8DF893
:104540000430019BDAB262F30700C3F3072262F37F
:104550000F20C3F3074363F3174004B0704700BF55
:104560005D0C002084B0019000200B4B03EB410355
:1045700093F84C309B1A8DF80430019BDAB262F349
:104580000700C3F3072262F30F20C3F3074363F36B
:10459000174004B0704700BF5D0C002030B5134BCE
:1045A00085B02431019003EB4104257903EB4103ED
:1045B000A5F1200464B2DB78002CBCBFC5F1200556
:1045C0006CB29A1A2244C0B210448DF80400002044
:1045D000019BDAB262F30700C3F3072262F30F20F4
:1045E000C3F3074363F3174005B030BD5D0C0020F3
:1045F00084B0019000209DF8102003EB430302EBF0
:1046000053038DF80430019BDAB262F30700C3F361
:10461000072262F30F20C3F3074363F3174004B08C
:1046200070471FB592B2019048B2002802FB02F217
:10463000BCBF494248B2C0F1380000FB002080B244
:104640001C46FFF7AEFE00EB4000044400208DF84E
:104650000440019BDAB262F30700C3F3072262F35E
:104660000F20C3F3074363F3174004B010BD0000ED
:1046700084B0019003F12400104B03EB4003187940
:10468000DB782038703B4B4302FB003200209DF862
:104690000430002AB8BF7F3203EBE2138DF80430F8
:1046A000019BDAB262F30700C3F3072262F30F2023
:1046B000C3F3074363F3174004B070475D0C002059
:1046C00084B0019003F12400104B03EB40031879F0
:1046D000DB782038703B4B4302FB003200209DF812
:1046E0000430002AB8BF3F3203EBA2138DF8043028
:1046F000019BDAB262F30700C3F3072262F30F20D3
:10470000C3F3074363F3174004B070475D0C002008
:104710001FB5164C2433019004EB43042379E4784D
:10472000203B5343A4F1700252B2002ABCBFC4F133
:10473000700462B2C2F1380201FB023111EB410197
:1047400048BF7F31C0B200EBE1108DF804000020BB
:10475000019BDAB262F30700C3F3072262F30F2072
:10476000C3F3074363F3174004B010BD5D0C002092
:1047700030B50D4685B00190C4B21046FFF74AFE31
:10478000124901EB450191F84B30C218D2B2A2F1A7
:1047900080035BB2002BBCBFC2F1800253B20C227B
:1047A00000205B00DBB2534304EB13248DF804407C
:1047B000019BDAB262F30700C3F3072262F30F2012
:1047C000C3F3074363F3174005B030BD5D0C002011
:1047D000114B84B0019003EB410393F84B10C0B22E
:1047E0008B1A5BB2002BBCBF521A53B21822DBB239
:1047F000534300EB13208DF804000020019BDAB234
:1048000062F30700C3F3072262F30F20C3F30743E9
:1048100063F3174004B070475D0C0020C94384B0B7
:104820000190C9B2C0F307404143002009128DF83E
:104830000610019BDAB262F30700C3F3072262F3AA
:104840000F20C3F3074363F3174004B07047C94315
:1048500084B0C1F385010190014400208DF804105B
:10486000019BDAB262F30700C3F3072262F30F2061
:10487000C3F3074363F3174004B0704784B003EBFE
:104880008302BDF81030019013449BB2FF2B28BF68
:10489000FF23DB43C0F30740DBB20344FF2B28BFF9
:1048A000FF2300208DF80630019BDAB262F3070087
:1048B000C3F3072262F30F20C3F3074363F31740E8
:1048C00004B0704700291FB5B8BF4942002AB8BFDD
:1048D000524209B2090112B2FF294FEA0212A8BFDF
:1048E000FF21FF2AA8BFFF22BDF8184009B22344C8
:1048F00012B29BB29142D4BF5B189B189BB2FF2BA4
:1049000028BFFF23DB430190DBB2C0F30740034421
:10491000FF2B28BFFF2300208DF80630019BDAB261
:1049200062F30700C3F3072262F30F20C3F30743C8
:1049300063F3174004B010BD1FB5482B0190C0F3BE
:10494000074030D8BDF81840E31A9BB2FF2B28BFB0
:10495000FF23083189B2102905D902F1080189B273
:10496000112928BFFF23DB43DBB21844002AB8BF5C
:104970000332FF2828BFFF208DF8060000200B49D6
:10498000497801EBA2028DF80420019BDAB262F3B0
:104990000700C3F3072262F30F20C3F3074363F357
:1049A000174004B010BDFF23D3E700BF302600201E
:1049B00084B0BDF81020C0F30741D31A9BB2FF2B7F
:1049C00028BFFF23DBB2DA43D2B21144FF2928BF4C
:1049D000FF210190034400208DF804308DF806106B
:1049E000019BDAB262F30700C3F3072262F30F20E0
:1049F000C3F3074363F3174004B0704784B0BDF8B6
:104A000010200190D31A9BB2FF2B28BFFF23DB435A
:104A1000C0F30740DBB20344FF2B28BFFF23002075
:104A20008DF80630019BDAB262F30700C3F3072268
:104A300062F30F20C3F3074363F3174004B07047DA
:104A4000024B1A7810431870704700BFEA1D00200F
:104A5000012310B5044C0822172104482370FFF7E6
:104A60004FF90023237010BDEA1D002030260020DE
:104A700010B5044610B9C90FC80110BD80EAE07234
:104A8000A2EBE07212B2002901EB02030CDB891ADF
:104A9000490191FBF3F1C1F120014BB2D8B2002CD6
:104AA000BCBF4042C0B2E8E75B01521A93FBF2F38D
:104AB000C3F160035BB2F1E730B5C0F3072585B001
:104AC000EB1A01901046DCB2FFF7D2FFC0EB801367
:104AD00000EB830004440020E4B26C4324128DF800
:104AE0000540019BDAB262F30700C3F3072262F3C9
:104AF0000F20C3F3074363F3174005B030BD30B553
:104B0000C0F3074585B0EB1A01901046DCB2FFF701
:104B1000AFFFC0EB801300EB830004440020E4B23D
:104B20006C4324128DF80640019BDAB262F3070051
:104B3000C3F3072262F30F20C3F3074363F3174065
:104B400005B030BD30B585B0C0F3072501909DF8A4
:104B500020001C1A1046FFF78BFF2C44E4B2241AE5
:104B60000020E4B26C4324128DF80540019BDAB2B8
:104B700062F30700C3F3072262F30F20C3F3074376
:104B800063F3174005B030BD30B585B0C0F30745BD
:104B900001909DF820001C1A1046FFF769FF2C4475
:104BA000E4B2241A0020E4B26C4324128DF80640CB
:104BB000019BDAB262F30700C3F3072262F30F200E
:104BC000C3F3074363F3174005B030BD1FB5019031
:104BD00010461C46FFF74CFF031900208DF80430E7
:104BE000019BDAB262F30700C3F3072262F30F20DE
:104BF000C3F3074363F3174004B010BD1FB5019022
:104C00009DF818001C1A1046FFF732FFE4B2241A70
:104C100000208DF80440019BDAB262F30700C3F371
:104C2000072262F30F20C3F3074363F3174004B076
:104C300010BD0000082208B517210348FFF718F837
:104C40000022024B1A7008BD30260020EA1D002009
:104C500084B004B0FFF7A0BB2DE9F74FDFF8D0A078
:104C6000C0EB00180AEB08035B5C0746FF2B0E46FF
:104C70002BD000252F4A90444FF0000BC5EB0514B4
:104C800003F124090AEB04010AEB4909144411F861
:104C900001EBBEF1FF0F0ED0E8B2874218D15FFAE8
:104CA0008BF0864214D118F806002030FF2828BF68
:104CB000FF2008F806000BF1010BBBF10F0F04F108
:104CC0000104E4D10135052DD6D103B0BDE8F08F44
:104CD0000EF1240E0AEB4E0E9EF803C099F8030065
:104CE0009EF804E0A0EB0C0099F804C00191ACEB35
:104CF0000E0C1FFA8CFC0CFB0CFC00FB00C080B2FD
:104D00000093FFF74EFB2828009B0199094AD2D84F
:104D1000C0F1280080B2102828BF102094F800C0ED
:104D2000C0B26044FF2828BFFF202070C3E700BF47
:104D30005D0C0020191E002010B5084C35232046BC
:104D4000032200F8013B0649FBF730FD4FF67F7365
:104D5000A380BDE81040FFF76DBF00BF30260020E4
:104D6000A4AE00080020704770B504460E461546F4
:104D7000FFF7F8FF054BC4EB041423449B5DFF2BA6
:104D80001EBF2B540130C0B270BD00BF5D0C0020AF
:104D9000014BDB68184700BFF0B4000810B4024CA8
:104DA0006468A44610BC6047F0B4000837B5194BDE
:104DB0000446034493F8CF30194229D0164B9A7811
:104DC00059788DF80120DA788DF80220FFF710FB72
:104DD0004FF4B47201F1B403B3FBF2F502FB1533E7
:104DE0005B1A48BF03339B1000F0030003FB001164
:104DF0008DF800100098FFF72BFFC0F30743C2B2F5
:104E0000C0F30721204603B0BDE83040FFF7C6BF1E
:104E100003B030BD5D0C00203026002013B5134BCD
:104E20000446034493F8CF3019421CD0FFF7E0FA50
:104E30008DF80000FFF7DCFA40F357037F338DF85D
:104E400001300B4BDB788DF802300098FFF700FF44
:104E5000C0F30743C2B2C0F30721204602B0BDE849
:104E60001040FFF79BBF02B010BD00BF5D0C0020DB
:104E700030260020014B9B68184700BFF0B40008A3
:104E80002DE9F04F534B87B0DC78534E04EB4403CD
:104E90004FEAA30B9B080193FF23B3FBF4F30093AA
:104EA00083785BB1002211461046FFF7E3FF4B22E7
:104EB00000214A48FBF7E2FA002333700025484FEF
:104EC000DFF818A13B7801333B70A4EB0B0302938E
:104ED000D0464FF0000932785FFA89F31A4362D165
:104EE0000393FBF7D7F93F4B9842039B5BDC8AF8AF
:104EF00000402946184604AAFFF736FF90B198F8FB
:104F00000020019B9DF810009A425BD9A2EB0B0395
:104F10000BFB03F3029A93FBF2F32246DBB2194632
:104F2000FFF73CFF09F10109B9F1050F08F10F087E
:104F3000D1D10135EDB20F2D0AF1010AC8D13B786C
:104F4000009A934204BF00233B7033780133DBB2F5
:104F50001C2B3DD900233370234E04233546671E96
:104F6000304629460F22042B04D190F800C0644536
:104F700008BF077011F80FCC013AA44524BF01F80F
:104F80000F7C0C7012F0FF0201F1010100F1010031
:104F9000E9D1013B13F0FF03A5F10F05E0D100209B
:104FA00007B0BDE8F08F98F80020002AA1D0944205
:104FB0009FD939780098814204BF02F1FF3288F806
:104FC000002096E76243B2FBFBF20023D2B2A6E7D1
:104FD0003370E4E730260020E91D0020191E002070
:104FE000E81D002054555505551E00202DE9F04FB1
:104FF00085B0074688461546FEF7F4F98146002835
:105000004DD0002D4ED04146384602AAFFF7ACFEE7
:105010000446334E33782344082B22DDC4F1080ABA
:10502000611C52463144701CFBF7C0FB04F10901BE
:105030005246314406F10900FBF7B8FB06EB440188
:105040004FEA4A02193106F11900FBF7AFFB04F1F0
:1050500011015246314406F11100FBF7A7FB86F817
:1050600000A000221146964602AB96F800B0DFF889
:1050700070C00193D0B200EB0B038442DBB213D8B3
:1050800011B1174B5C441C704DB1164B1B7803F0EB
:10509000FC037C2B03D141463846FFF7DDFD05B00C
:1050A000BDE8F08F2C46B4E701990F4E11F801AB23
:1050B0000CEB030001910AF1240106EB4101CE78CB
:1050C0000C3309790CEB430341724670494680F872
:1050D00011A083F801E083F802E00132CAE700BFC3
:1050E000EB1D0020302600205D0C002001207047C1
:1050F00008B5FFF7FBFF08BDC0EBC0004300002070
:10510000DBB203F10E02D2B2422A63F30700134668
:1051100028BF422382B063F30F2002B07047000023
:105120002DE9F04F074689B000780291FFF7E4FFC0
:10513000DFF8B8802E4BC4B21D8898F80430C0F355
:10514000072B5B085D432B4BC5F3072503EB440698
:1051500003F1CF09E3B29B4507D8BBF1410F8CBFE8
:105160000020012009B0BDE8F08F19F804207B78F9
:105170001A4238D096F84B1096F84C2070391FFA26
:1051800081FA0AFB0AF0203A92B202FB020080B2D6
:105190000392FFF706F90095034698F801C098F8C6
:1051A000020098F803E0039A4CEA002012B20FFACA
:1051B0008AF1DDF808C040EA0E40E047C0F307235B
:1051C0008DF81C00C0F307408DF81D308DF81E00CF
:1051D0000798FFF73DFDC0F30743C2B2C0F30721B4
:1051E0002046FFF7DBFD02360134B3E7302600200E
:1051F000382600205D0C00200149FFF791BF00BF59
:10520000454B00080149FFF78BBF00BF894B0008E1
:105210000149FFF785BF00BFF14500080149FFF7CD
:105220007FBF00BFFD4B00082DE9F04F074685B05A
:105230000078FFF761FF8A46DFF89480254B98F8E5
:1052400004501B886D085D43234BC4B2C0F3072B89
:10525000C5F3072503EB440603F1CF09E3B29B45F1
:1052600007D8BBF1410F8CBF0020012005B0BDE87D
:10527000F08F19F804207B781A4226D098F8023073
:1052800098F8010098F803C096F84C2096F84B1057
:1052900040EA0320203A70392B4640EA0C40D047C0
:1052A000C0F307238DF80C00C0F307408DF80D30D4
:1052B0008DF80E000398FFF7CBFCC0F30743C2B292
:1052C000C0F307212046FFF769FD02360134C5E728
:1052D00030260020382600205D0C00200149FFF711
:1052E000A3BF00BFB94A00080149FFF79DBF00BF37
:1052F000FF4A00080149FFF797BF00BF2346000897
:105300000149FFF791BF00BFCD4B00082DE9FF47D2
:1053100006460078FFF7F0FE88461F4F1F4A3B798C
:1053200015889B0803FB0555DFF874A0C0F3072917
:10533000C5F30725C4B2E1B2894507D8B9F1410FD9
:105340008CBF0020012004B0BDE8F0871AF80420CB
:1053500073781A421DD0BA787B78F87843EA022332
:1053600043EA00402A46C047C0F307238DF80C00EB
:10537000C0F307408DF80D308DF80E000398FFF74D
:1053800067FCC0F30743C2B2C0F307212046FFF712
:1053900005FD0134CFE700BF30260020382600206D
:1053A0002C0D00200149FFF7B1BF00BF5544000894
:1053B0000149FFF7ABBF00BFAD4400080149FFF74B
:1053C000A5BF00BF054500080149FFF79FBF00BF0B
:1053D0002D4500080149FFF799BF00BF654500084A
:1053E0000149FFF793BF00BF9D4500080149FFF742
:1053F0008DBF00BF714700080149FFF787BF00BF9D
:10540000D14700082DE9F04F804689B00078FFF7BA
:1054100073FEDFF8A490294B99F804401B88A40878
:105420005C43C4F30724C6B2C0F3072504F140006F
:10543000C0B28A46FEF7EEFF803843B2204603939F
:10544000FEF7E8FFDFF878B0A0F180077FB2F3B293
:105450009D4206D8412D8CBF0020012009B0BDE837
:10546000F08F1BF8061098F80120114222D000940A
:1054700099F8022099F8010099F803C040EA022047
:1054800003993A4640EA0C40D047C0F307238DF811
:105490001C00C0F307408DF81D308DF81E000798E2
:1054A000FFF7D6FBC0F30743C2B2C0F30721304673
:1054B000FFF774FC0136CAE73026002038260020AA
:1054C0002C0D00200149FFF79DBF00BF7146000869
:1054D0000149FFF797BF00BFC14600080149FFF728
:1054E00091BF00BF114700082DE9F04F324D07462C
:1054F00085B00078FFF700FE2B794FF6FF76013379
:10550000FF2B28BFFF238846B6FBF3F6DFF8ACB0CD
:10551000DFF8ACA0C0F30729C4B2E1B2894507D8CF
:10552000B9F1410F8CBF0020012005B0BDE8F08F1C
:105530001BF804207B781A422CD09AF800302148BE
:10554000013B5BB21A0627D5324629796B780131C7
:10555000FF2928BFFF215143AA78E87843EA0223B4
:10556000C1F30F2143EA0040C047C0F307238DF881
:105570000C00C0F307408DF80D308DF80E00039835
:10558000FFF766FBC0F30743C2B2C0F30721204612
:10559000FFF704FC0134C0E7C25C8A420AD103F180
:1055A0000C020AEB420292F801C092784CEA022205
:1055B000B242CAD3013BC5E7302600202C0D0020A3
:1055C0003C2600204D2600200149FFF78DBF00BF7B
:1055D0001D4800080149FFF787BF00BF4F4800087A
:1055E0002DE9F04F82468DB008780492FFF784FDD4
:1055F0008B46404BC4B21B78C0F3072903933E4B44
:1056000003EB4406CF330593E3B2994507D8B9F1CC
:10561000410F8CBF002001200DB0BDE8F08F059B2D
:105620001A5D9BF801301A421ED05746002503220E
:1056300032490AA8FBF7BAF82E4B0AEB0308039A83
:10564000FBB29A4213D82E4BDB786B431B128DF8BA
:105650002A300A98FFF7FCFAC0F30743C2B2C0F33E
:1056600007212046FFF79AFB01340236CCE718F8F1
:10567000013F96F84B1096F84C20C91A98F808305C
:1056800089B2D21A92B202FB02F001FB010080B291
:1056900007920691FEF785FE194B07F10C0E93F861
:1056A00004C0144B0CF1010CBCF1FF0F28BF4FF0EC
:1056B000FF0C03EB4E0E9EF801309EF802E0079AB5
:1056C00043EA0E2303FB0CFC0699CCF30F238DF861
:1056D0002A500093049D034612B20A9809B2A847C3
:1056E000C0F307238DF828008DF82930C0F3074553
:1056F0000137A4E73C2600205D0C00203126002065
:1057000030260020044B01461B78044A013B23EA63
:10571000E373D8B2FFF764BF3C2600207D48000841
:105720000146024A0020FFF75BBF00BF7D4800082A
:10573000044B01461B78044A013B23EAE373D8B2C9
:10574000FFF74EBF3C260020C54800080146024A2C
:105750000020FFF745BF00BFC5480008044B0146C5
:105760001B78044A013B23EAE373D8B2FFF738BF42
:105770003C260020394900080146024A0020FFF774
:105780002FBF00BF39490008044B01461B78044A6B
:10579000013B23EAE373D8B2FFF722BF3C26002087
:1057A000B14900080146024A0020FFF719BF00BFB7
:1057B000B1490008044B01461B78044A013B23EA27
:1057C000E373D8B2FFF70CBF3C260020FD49000868
:1057D0000146024A0020FFF703BF00BFFD49000851
:1057E000F7B506460078FFF787FC184AC5B253782C
:1057F0009178C0F30724D07843EA012343EA0040BC
:10580000FFF726FAC0F307238DF80530104FC0F3D9
:1058100007438DF804008DF80630EBB29C4205D8A2
:10582000412C8CBF0020012003B0F0BD7A5D73785D
:105830001A4208D028469DF806309DF804209DF8AD
:105840000510FFF7ABFA0135E7E700BF302600206F
:105850002C0D00202DE9FF4106460078FFF74CFC97
:10586000DFF89C80032208F10101C4B2C0F30725D0
:1058700001A8FAF79BFF019898F80170FFF7E8F983
:10588000C0F307238DF8093098F804308DF808002C
:105890001F448DF80470C0F307408DF80A0001988A
:1058A000FFF7D6F9C0F307238DF80D30154FC0F37D
:1058B00007438DF80C008DF80E30E3B29D4206D8F8
:1058C000412D8CBF0020012004B0BDE8F0813B5D7C
:1058D0007278134211D0DB07204643BF9DF80E308B
:1058E0009DF80C209DF80D109DF80A305CBF9DF8C6
:1058F00008209DF80910FFF751FA0134DDE700BFD9
:10590000302600202C0D00202DE9FF4706460078A8
:10591000FFF7F2FBDFF86C800322C4B2C0F3072567
:1059200008F1010102A8FAF741FFDFF85C9098F84E
:105930000470A9F1830ABF08E3B29D4206D8412D45
:105940008CBF0020012004B0BDE8F08719F80420C6
:1059500073781A4213D01AF8142098F801301209FB
:1059600002FB07338DF808300298FFF771F9C0F396
:105970000743C2B2C0F307212046FFF70FFA0134F4
:10598000DAE700BF302600202C0D00202DE9FF476C
:1059900006460078FFF7B0FBDFF86C800322C4B244
:1059A000C0F3072508F1010102A8FAF7FFFEDFF8AE
:1059B0005C9098F80470A9F1840ABF08E3B29D4294
:1059C00006D8412D8CBF0020012004B0BDE8F0872F
:1059D00019F8042073781A4213D01AF8142098F892
:1059E00001307A4303EB52138DF808300298FFF729
:1059F0002FF9C0F30743C2B2C0F307212046FFF7D7
:105A0000CDF90134DAE700BF302600202C0D00204C
:105A10002DE9FF4106460078FFF76EFBDFF8948022
:105A2000032208F10101C5B2C0F3072402A8FAF766
:105A3000BDFE214B98F80370188898F80430DB08F5
:105A40005843C0F30720FEF7E5FCA0F180035BB2EA
:105A5000002BBCBFC0F1800043B25B00DBB27B43D4
:105A60001B128DF80A300298FFF7F2F8134FC0F3BB
:105A700007238DF80C00C0F307408DF80D308DF82A
:105A80000E00EBB29C4206D8412C8CBF00200120B6
:105A900004B0BDE8F0817A5D73781A4208D02846D8
:105AA0009DF80E309DF80C209DF80D10FFF776F94B
:105AB0000135E6E730260020382600202C0D002096
:105AC00073B505460078FFF717FBAB78C6B2C0F395
:105AD000072423BB134B144A1B7912881033FF2B66
