:020000040800F2
:1000000000040020B9010008BB010008BB01000882
:10001000BB010008BB010008BB010008BB010008D0
:10002000BB010008BB010008BB01000869BF000854
:10003000BB010008BB010008BB0100082DCF000870
:10004000BB010008BB010008BB010008BB010008A0
:10005000BB010008BB01000809CD000831CD000834
:1000600059CD000881CD0008A9CD0008BB010008CA
:10007000BB010008BB010008EDD30008BB0100086C
:10008000D1CD0008BB010008BB010008BB0100087E
:10009000BB010008BB010008BB010008BB01000850
:1000A000BB010008BB01000801D0000815D0000802
:1000B000BB010008BB010008BB010008BB01000830
:1000C000BB01000835CE0008BB010008BB010008D9
:1000D000BB010008BB010008BB010008BB01000810
:1000E00072B6264880F30888254880F30988254899
:1000F00025490860022080F31488BFF36F8F0BF04E
:10010000BDFC0BF08FF84FF0553020491B4A91424F
:100110003CBF41F8040BFAE71D49194A91423CBF24
:1001200041F8040BFAE71B491B4A1C4B9A423EBF9D
:1001300051F8040B42F8040BF8E700201849194A5B
:1001400091423CBF41F8040BFAE70BF09BFC0BF02B
:1001500096FC154C154DAC4203DA54F8041B884745
:10016000F9E704F061F8124C124DAC4203DA54F88E
:10017000041B8847F9E70BF083BC00000004002053
:10018000000C00200000000808ED00E00000002046
:10019000000400207CED0008000C002090120020DC
:1001A000901200200C300020E0000008E000000861
:1001B000E0000008E000000892E700F000F8FEE729
:1001C0002DE9F04FC1F80CD0C3689D46BDE8F08F13
:1001D000002383F311882846A04700200BF020FE5F
:1001E000FEE70BF077FD00DFFEE7000053B94AB9E8
:1001F000002908BF00281CBF4FF0FF314FF0FF302F
:1002000000F00CB8ADF1080C6DE904CE0DF0B6FBB2
:10021000DDF804E0DDE9022304B07047704700BF59
:10022000062008B500F010FA01200CF0EFFB00BF2B
:1002300038B5124B04461D682A6B1AB10023C2E977
:10024000044338BD182000F04DFB0246286378B106
:1002500000210B2301209381C2E90401084B0949C5
:10026000094DC2E9011300231560C2E9044338BDFA
:100270004621064B064800F00FFB00BF000C002093
:10028000ECDE050034126DE60E33CDABA4EC0008B5
:10029000BCEC000838B5194B1C68226B8AB1136995
:1002A0001749546903FB01F1164800FB0411A3FB35
:1002B0000030013341EB0001C2E9043121F000407C
:1002C00038BD182000F00EFB0246206388B10124DF
:1002D00000250B230A480C49C2E904451160014678
:1002E0000A4D0B4C93810B4BC2E90154C2E9043116
:1002F00038BD5221084B094800F0CEFA000C00200E
:100300002DF451582D7F954C0E33CDAB34126DE644
:10031000ECDE05002E7F954CA4EC0008BCEC000838
:10032000032A70B511D940EA01039B071ED1044688
:100330000B4602E0043A032A1CD91946204653F81A
:10034000045B54F8046BAE42F4D0541EAAB1421EB2
:10035000013901E0C3180BD012F801EF11F801CFF9
:10036000A31AE645F6D0AEEB0C0070BD541EEEE7C6
:10037000184670BD20461946E7E7104670BD00BF1D
:1003800088420ED98B1883420BD900EB020C002A4D
:100390006DD0624613F801CD994202F801CDF9D132
:1003A00070470F2A0FD8034602F1FF3C002A5ED0A7
:1003B0000CF1010C013B8C4411F8012B614503F851
:1003C000012FF9D1704740EA01039B0750D1A2F1F8
:1003D000100370B501F1200C23F00F0501F1100E90
:1003E00000F11004AC441B095EF8105C0EF1100E15
:1003F00044F8105C5EF81C5C103444F81C5C5EF839
:10040000185C44F8185C5EF8145CE64544F8145C2B
:10041000EAD1013312F00C0F01EB031102F00F04CB
:1004200000EB031328D08E46043C24F003064FEA69
:10043000940C1E441C1F5EF8045B44F8045FB44235
:10044000F9D10CF1010402F0030203EB840301EB88
:10045000840102F1FF3C4AB10CF1010C013B8C44D8
:1004600011F8012B614503F8012FF9D170BD7047D8
:10047000034602F1FF3C9BE72246EAE770B5860798
:1004800047D0541E002A3ED00346CAB201E0013CC8
:1004900039D303F8012B9D07F9D1032C2CD9CDB208
:1004A00005EB05250F2C1A4605EB054534D9A4F1BB
:1004B000100C2CF00F0603F1100EB6444FEA1C1C72
:1004C000156055609560D56010327245F8D10CF119
:1004D000010214F00C0F03EB021204F00F0C13D006
:1004E000ACF1040323F003030433134442F8045B28
:1004F0009A42FBD10CF003042CB1C9B21C4403F89E
:10050000011B9C42FBD170BD64461346002CF4D104
:10051000F9E703461446C0E7A446E1E738B5C46BE3
:100520000CB1002038BD8021054600F011FA0246CA
:10053000E86330B1031F7C3243F8044F9342FBD190
:10054000EFE74FF0FF3038BD30B51F29054683B0C7
:1005500008D8C36B0C4653B153F8240043F8242049
:1005600003B030BD162303604FF0FF30F8E7802161
:10057000019200F0EDF9019A0346E8630028F3D0F8
:10058000011F00F17C05002041F8040FA942FBD1B6
:10059000E2E700BF1F2938B505461ED8C26B0C46DE
:1005A0006AB152F8213053B1012B06D0591C10D03A
:1005B0000021204642F824109847002038BD2846E4
:1005C00000F0F2F8224601462846BDE8384000F027
:1005D000D7B8162301202B6038BD16234FF0FF300B
:1005E0002B6038BD1F292BD838B5C36B0C46054688
:1005F000A3B153F8242003EB84034AB1511C0BD060
:10060000012A07D0002520461D609047284638BDA6
:10061000012038BD032038BD022038BD802100F004
:1006200097F90346E86340B100201A1F03F17C01EB
:1006300042F8040F9142FBD1DBE74FF0FF3038BDA9
:100640004FF0FF30704700BF38B5134B1F281D68AF
:100650001DD8EA6B044662B152F820304BB1012B31
:1006600005D0591C0FD0002142F8201098470020D7
:1006700038BD284600F098F8224601462846BDE8D5
:10068000384000F07DB8162301202B6038BD1623BA
:100690004FF0FF302B6038BD000C0020114B1F289D
:1006A00070B51E6808D8F36B04460D464BB153F87D
:1006B000240043F8245070BD162333604FF0FF3000
:1006C00070BD8021304600F043F90346F0630028F6
:1006D000F4D00021021F7C3042F8041F9042FBD16D
:1006E000E5E700BF000C002038B50B4B1D68EC6B34
:1006F0000CB1002038BD8021284600F029F9E863BC
:1007000038B1031F00F17C0243F8044F9342FBD140
:10071000EFE74FF0FF3038BD000C002038B5174B25
:100720001F281D6826D80446E86BA0B150F8242085
:1007300000EB84034AB1511C0BD0012A07D00025DD
:1007400020461D609047284638BD012038BD032053
:1007500038BD022038BD8021284600F0F9F8E86352
:1007600040B10021031F00F17C0243F8041F9A42AC
:10077000FBD1DBE74FF0FF3038BD00BF000C00209D
:1007800070B50026074D0446084611462E600CF051
:1007900045F9431C00D070BD2B68002BFBD02360B3
:1007A00070BD00BF981200200CF040B9844641EAA9
:1007B000000313F0030349D1403A23D30B680360CD
:1007C0004B6843608B688360CB68C3600B690361CF
:1007D0004B6943618B698361CB69C3610B6A0362B7
:1007E0004B6A43628B6A8362CB6AC3620B6B03639F
:1007F0004B6B43638B6B8363CB6BC3634030403184
:10080000403ADBD230320BD30B6803604B68436055
:100810008B688360CB68C36010301031103AF3D21C
:100820000C3205D351F8043B40F8043B043AF9D2AA
:10083000043208D0D2071CBF11F8013B00F8013B7D
:1008400001D30B8803806046704700BF082A13D38A
:100850008B07B1D010F00303AED0C3F10403D21A5A
:10086000DB071CBF11F8013B00F8013BA4D331F8B2
:10087000023B20F8023B9FE7043AD9D3013A11F832
:10088000013B00F8013BF9D20B7803704B784370C1
:100890008B78837060467047144600B51A460A4B41
:1008A0000D461B6885B0DE6803464CB107490191CF
:1008B000304607490294009500F0E0F8FFF7B0FCDD
:1008C00004490C46F3E700BF000C0020F8EC0008D8
:1008D00008ED000804ED000808B513460022FFF7F4
:1008E000DBFF00BF024B0146186800F031B800BFC3
:1008F000000C0020024B0146186800F0E7B800BF6A
:10090000000C002070B5114E054633680C46BBB193
:10091000214628460CF05EF8431C01460CD0C41C4E
:1009200024F00304A04205D02846611A0CF052F8C6
:10093000013001D0204670BD4FF0FF34204670BD1D
:1009400019460CF047F83060E2E700BF9012002033
:100950002DE9F041CD1C25F0030508350C2D38BFDD
:100960000C25002D064682B016DBA94214D8354F5F
:1009700000F06AF87A68AAB1144603E06368224678
:1009800083B11C4623685B1BF8D40B2B21D8A242F1
:10099000636855D053600DE00C233360002002B033
:1009A000BDE8F08129463046FFF7ACFF431C044602
:1009B00019D00560304600F04DF804F10B00231DFE
:1009C00020F00700C21A1CBF1B1AA35002B0BDE8DA
:1009D000F0816119A242256014BF516079606351B2
:1009E00063684B60E6E77B6823B31C465B68002BBB
:1009F000FBD122681946304604EB020801930BF044
:100A0000E9FF804516D122683046AD1A2946FFF726
:100A100079FF01300ED0226878682A44226042684B
:100A2000019B12B90CE010465268A242FBD1002390
:100A30004360BFE70C233046336000F00BF8ADE7AE
:100A40007B60B7E790120020014800F035B800BF86
:100A5000AC120020014800F037B800BFAC120020F3
:100A60000CB400B583B004AB53F8042B019300F031
:100A7000C7F803B05DF804EB02B070470EB400B5E0
:100A8000074A82B003AB0146106853F8042B019368
:100A900000F0B6F802B05DF804EB03B0704700BF99
:100AA000000C0020704700BF704700BF704700BFB8
:100AB000704700BF704700BF704700BF01207047FC
:100AC00001207047704700BF704700BF002950D019
:100AD00038B551F8043C0C1F002BB8BFE41805468C
:100AE000FFF7B2FF274A13682BB1A3420CD9216844
:100AF000601883422CD0284663601460BDE83840FB
:100B0000FFF7A8BFA3420FD81A465B68002BF9D1A4
:100B100011685018844217D02CD363605460284663
:100B2000BDE83840FFF796BF11685018A04214D0B6
:100B300020D8216860188342EFD118685B680844A8
:100B4000C4E900035460EAE723680B441360E6E756
:100B500018685B6808442060CDE72068014450189D
:100B600083421160DBD1D3E900040144C2E90014DF
:100B7000D5E770470C2328462B60BDE83840FFF7C7
:100B800069BF00BF941200209368013B002B936063
:100B900005DAD2F818C0634507DB0A2905D01368C7
:100BA000581C106008461970704700F0B3BE00BFB3
:100BB0009BB1F8B5134406460F46541E5D1E01E076
:100BC000AC4208D03A46304614F8011FFFF7DCFF6C
:100BD000431CF5D1F8BD0020F8BD0020704700BFD0
:100BE000936810B514461BB918460023636010BD06
:100BF00000F0AEFC0023A3600023636010BD00BFC3
:100C00002DE9F04FA1B08B4691461C46049018B1D7
:100C1000036A002B00F04181DBF86420BBF90C3043
:100C2000D20702D49F0540F131811E0740F19A801E
:100C3000DBF81030002B00F09580002343F22002F7
:100C40000D9399F800300127954E0794ADF839209F
:100C5000002B77D04D4604E015F8013F002B00F043
:100C60009780252BF8D1B5EB090A40F094802B78BA
:100C7000002B67D000234FF0FF320135CDE9092367
:100C800008930B938DF863301E9306E02546089B6E
:100C9000801B07FA00F0034308932C46052214F842
:100CA000011B304600F0E4FEA1460028EED1089B6F
:100CB000D80644BF20228DF86320190748BF2B2295
:100CC000297848BF8DF863202A297AD1079A1168BC
:100CD000043200290792C0F2AD800B9169782E2969
:100CE00000F086806F4C0322204600F0C1FE38B130
:100CF0004022089B001B8240134309F1010908931D
:100D000019F8011B062268488DF8381000F0B0FE73
:100D1000002800F09580654B002B7ED007A900913C
:100D20005A460498624B08A9AFF300800390039BD6
:100D3000013307D00D9B039A13440D9399F80030AB
:100D4000002B87D1DBF8643013F0010FBBF80C30B7
:100D500002D19A0540F193805B0616D40D9821B01C
:100D6000BDE8F08F5946049800F022FE00283FF4B9
:100D700064AFDBF86430DD0707D4BBF80C309C05AA
:100D800003D4DBF85800FFF79FFE4FF0FF30E6E793
:100D9000B5EB090AD6D009F1FF3805954546DDF8CF
:100DA000108001E0A2453FD92C465A46404615F82E
:100DB000011FFFF7E9FE02340130A4EB0904F1D171
:100DC000C0E7A1F13002092A88BFA94687D80B9B4A
:100DD00000E00134217803EB830302EB4303A1F12C
:100DE0003002092AF5D92E29A1460B937FF47AAF58
:100DF00099F801102A292DD1079B09F102001A68E0
:100E00000433002A0793B8BF4FF0FF3399F802105C
:100E100009928146B8BF099364E7079B073323F023
:100E200007030833079385E70D99059D51442B78F7
:100E30000D911DE7494243F002030B9108934DE7E2
:100E400007A900915A460498194B08A900F0D2F856
:100E500003906CE70023A1F13002092A09F101098E
:100E600009933FF63FAF19F8011F03EB830302EB31
:100E70004303A1F13002092AF5D9099332E7DBF8DF
:100E80005800FFF721FEBBF80C3065E7DBF858008F
:100E9000FFF712FEBBF90C30C7E600F009FBBBE61A
:100EA00038ED000840ED000844ED000800000000A7
:100EB000B10B00088C4600B586461346034A7146BE
:100EC00010685DF804EB6246FFF79ABE000C002044
:100ED0002DE9F84F92461F460A698B680C469A42E4
:100EE000B8BF1A46CAF8002091F843300646DDF82C
:100EF000289013B10132CAF80020226891065FD50C
:100F0000DAF800300233CAF80030226812F0060F17
:100F100011461DD1E1689942D8BF114618DD4FF046
:100F2000000804F1190B05E0E568DAF80030ED1A65
:100F300045450CDD01235A4639463046C847013045
:100F400008F10108F0D14FF0FF30BDE8F88F2168BB
:100F500094F84330003B18BF01238A060AD530219C
:100F6000E21882F8431094F845105A1C22440233C8
:100F700082F843103946304604F14302C847013035
:100F8000E1D0D4E902202368DAF8005003F0060328
:100F9000042B21691BD08A4220DD4FF00008521A31
:100FA000904400251A3401E0454517DA0123224612
:100FB00039463046C847013005F10105F4D1C2E792
:100FC00012F0060F0DD0003B18BF0123D2E7401BE3
:100FD0008A4220EAE078E2DC0028E2DC0020BDE87A
:100FE000F88FE168DAF800309942D8BF114696DCF4
:100FF000AEE700BF2DE9F04717460A7E84B00C46E5
:10100000064698460C9D01F1430C002A35D0A2F10A
:101010005803D9B2202969D8202B67D8DFE813F00C
:10102000E000660066006600660066006600660016
:101030006600660066009400700066006600660048
:10104000660070006600660066006600210083008E
:10105000AE00660066009E006600830066006600C3
:10106000E6002B682268181D6169286010061B685D
:1010700002D4520600F1DC8019600023E1462361AE
:101080003B4621463046CDF8008003AAFFF720FFFB
:10109000013020D04A46394630462369C0470130E6
:1010A00019D02368E0689B07DDF80C9018D54845F7
:1010B00016DD002504F1190A04E0E068A0EB09033D
:1010C000AB420DDD0123524639463046C047013060
:1010D00005F10105F1D14FF0FF3004B0BDE8F08714
:1010E0004845B8BF484604B0BDE8F087012084F801
:1010F000422004F142090023206184F84330BFE715
:101100002A682368111D2960190602D45D0600F1C2
:1011100093801068014600286268C0F291804FF009
:101120000A0E52484AE02B682168181D28600806FC
:1011300001D449067ED419686F2A14BF4FF00A0EF5
:101140004FF0080E494835E02A6801201168043242
:101150002A6004F1420984F84210CCE72B68002190
:101160001A1D2A60D3F800906268484600F080FC9F
:10117000002879D0A0EB09006060BCE7236843F049
:101180002003236078223A4884F845202A68111DFC
:1011900029601D064AD4590648D51188DA0744BF8C
:1011A00043F02003236019B9236823F02003236050
:1011B0004FF0100E0023626884F84330002AA260CA
:1011C00016DB236823F00403236089B9002A45D184
:1011D000E146BEF1080F1CD0ACEB090323614FE7D9
:1011E0005823224884F845302368CFE72368C9E7AD
:1011F0007546E146B1FBF5F30A4605FB131A19469D
:1012000010F80A30AA4209F8013DF3D2BEF1080FE6
:10121000E2D12368DD07DFD5626823699A42DBDC0F
:10122000302309F1FF3989F80030D5E71168B5E7B7
:10123000198022E719887FE7B2F9001008466AE7AB
:101240002D20002AA26084F8430002DB23F004036F
:1012500023600A250548AE464942CAE7037804F1EF
:10126000420984F84230B4E7606844E74CED000876
:1012700060ED0008024A0349034800F0DFBA00BFEE
:10128000500C0020811C0008040C00200C4B41680D
:1012900010B59942044601D000F0F2FCA168094B58
:1012A000994202D0204600F0EBFCE168064B9942DF
:1012B00004D02046BDE8104000F0E2BC10BD00BFE5
:1012C000BC120020241300208C13002008B54B6EA4
:1012D000DA0702D48B899B0501D5002008BD886DF3
:1012E000FFF7EAFB002008BD08B54B6EDA0702D411
:1012F0008B899B0501D5002008BD886DFFF7E4FBB5
:10130000002008BD2DE9F84300250423304C314965
:10131000DFF8C490DFF8C480314F324E0822C4F8A1
:10132000381104F15C002946C4E90335C4E90055CD
:10133000C4E90555A5606566FFF7A0F804F15800FB
:10134000C4E90849C4E90A872663FFF7ADFB264BC9
:101350002946082204F1C4006367C4E91A55C4E9A8
:101360001E552567C4F8CC50C4F88050FFF786F8A6
:1013700004F1680304F1C000C4F88830C4E923987C
:10138000C4E92576FFF790FB184B294604F59670C3
:101390000822C4F8DC30C4E93455C4E93855C4F82F
:1013A000D850C4F83451C4F8E850FFF767F804F196
:1013B000D003C4E93E87C4F8F49004F59470C4F8EF
:1013C0000061C4F8F030BDE8F843FFF76DBB00BF23
:1013D000BC1200207512000881180008A918000826
:1013E000E91800080D1900080900010012000200A8
:1013F000F8B506462A48FFF75FFB2A4BD3F8383189
:10140000002B43D0284FD7E90134013B04D524E019
:101410005A1C04F1680420D0B4F90C50013B002D93
:10142000F6D1224B04F15800E3606566FFF73CFB00
:101430001B48FFF749FB08222946C4E90155C4E9C6
:1014400004552560A56104F15C00FFF717F8C4E9B5
:101450000D55C4E912552046F8BD3D680DB12F4623
:10146000D1E74FF4D6713046FFF772FA044680B1E7
:1014700004230560294605460C304FF4D072A06065
:101480006360FEF7FBFF3C602F46BCE7FFF73AFFC7
:10149000B8E703483C60FFF717FB0C233360DAE73B
:1014A000B8120020BC120020500C00200100FFFFE9
:1014B00010B504460B48FFF7FFFA236A2BB90A4B15
:1014C0000A4AD3F83831226223B1BDE810400548FA
:1014D000FFF7FABAFFF716FFBDE810400148FFF723
:1014E000F3BA00BFB8120020BC1200208D12000811
:1014F0000148FFF7E1BA00BFB81200200148FFF72A
:10150000E3BA00BFB812002008B50548FFF7D4FAC7
:10151000BDE808400020034A034900F08FB900BF2E
:10152000B8120020500C0020CD12000808B5002091
:10153000044A054900F082F9BDE808400348FFF776
:10154000C3BA00BF500C0020E9120008B8120020F6
:101550009368002B00F0F0802DE9F04FB1F90CC03A
:1015600090461CF0080F81460C4683B02BD00B69C7
:101570004BB31CF00207D8F8006032D04FF0000ADD
:101580005546D4F828B0216AAB4FC5B1BD422B46B1
:10159000524628BF3B464846D847002840F3C28001
:1015A000D8F8083082441B1A2D1AC8F80830002BCE
:1015B00000F0AE80D4F828B0216A002DE6D1D6E93B
:1015C00000A50836E1E72146484600F0F1F9002879
:1015D00040F0AD80B4F90CC0D8F800601CF00207F0
:1015E000CCD11CF0010A63D157462368A168184684
:1015F0008B46002F58D01CF4007F00F0B180B94218
:101600000A4600F2DD801CF4906F2FD021696269D8
:101610005D1A02EB420202EBD2726B1C52103B4489
:10162000934292BF93469B461A461CF4806F00F08B
:10163000E68011464846FFF78BF9002800F0F58058
:101640002A4621690190FFF7B1F8A289019B22F493
:10165000906242F08002A2815819C4F814B0ABEB3A
:1016600005053A46BB462361A56020603D4600273C
:1016700051460192FEF784FEA1682368019AA1EB0E
:101680000B011A44A1602260D8F80830AA445B1B01
:10169000C8F80830002B3BD02368A16818468B4659
:1016A000B4F90CC0002FA6D1D6E900A708369EE7F2
:1016B0003846BB463D46002D40D0002845D03A462E
:1016C000D4E904C32068AA4228BF2A466045A1681D
:1016D00004D901EB030A524500F38280934272DC85
:1016E0005A464846216AD4F828C0E047B0F1000ABB
:1016F00018DDB7EB0A070FD00120D8F80830D34423
:10170000A3EB0A03A5EB0A05C8F80830002BD2D1D9
:10171000002003B0BDE8F08F2146484600F0B0FA43
:101720000028EAD0B4F90C3043F04003A3814FF015
:10173000FF3003B0BDE8F08F002070477568334676
:101740000836002DFAD0D3F800B02A460A215846B0
:1017500000F08EF9002865D00130A0EB0B07AEE752
:1017600022699A4214D36569BD4211D86FF00043D3
:10177000BB4228BF3B4693FBF5F3524605FB03F300
:101780004846A56A216AA847051ECBDD7F1B7BE77B
:10179000B94228BF39460D46184651462A46FEF73B
:1017A000EFFDA1682368491B2B44A1602360002939
:1017B000ECD12146484600F063FA0028E6D0B1E7B4
:1017C000BB463A4652E7594692460192FEF7D8FD8B
:1017D000A368019A9B1AA36023681344236088E7D7
:1017E00059465246FEF7CCFD2368214653444846ED
:1017F000236000F045FA00283FF47BAF92E74846AB
:1018000000F082F9034600287FF426AF484621699C
:10181000FFF75CF90C22B4F90C30C9F8002023F072
:10182000800381E76A1C17464AE70C22B4F90C30A2
:10183000C9F8002078E700BF00FCFF7F2DE9F843DE
:101840004FF0000980460F461646D6E90154013D87
:1018500010D4A389013D012B08D9B4F90E3001330E
:1018600004D021464046B84749EA00096B1C04F100
:101870006804EED13668002EE7D14846BDE8F8830B
:1018800010B50C46B1F90E100BF099F8002803DBE7
:10189000636D0344636510BDA38923F48053A38162
:1018A00010BD00BF002070472DE9F0410C46B1F992
:1018B0000C101F46CB05054616460BD421F480516B
:1018C000A1813B4632462846B4F90E10BDE8F041EE
:1018D0000BF07CB8B4F90E10022300220BF074F860
:1018E000B4F90C10EAE700BF10B50C46B1F90E10C0
:1018F0000BF06AF8B4F90C30421C0EBF23F480538D
:1019000043F480536065A38110BD00BFB1F90E1090
:101910000BF05EB8F8B506460D46144610B1036AE2
:10192000002B37D0A269A389A2601A0719D52369B1
:10193000BBB122686169D31AEDB299422F4620DD0E
:101940000133A1680139A160511C216015706269E1
:101950009A420DD0A389DB0701D50A2D08D038465D
:10196000F8BD2146304600F023F838B92369E0E796
:101970002146304600F084F90028F0D04FF0FF37C0
:10198000EDE72146304600F07BF90028F6D101232F
:101990002268D6E7FFF78CFDC4E700BF03460A467E
:1019A000024908681946FFF7B5BF00BF000C0020C8
:1019B00038B52E4B05461B680C4613B11A6A002A2F
:1019C0004BD0B4F90C3018071CD5226922B313F0A0
:1019D000010107D000206169A0604942A1613AB1CC
:1019E000002038BD980758BF6169A160002AF7D16F
:1019F000190658BF1046F4D543F040034FF0FF30AE
:101A0000A38138BDD9062CD55A0712D4226943F0D8
:101A10000803A381002ADAD103F42071B1F5007F15
:101A2000D5D02146284600F06BF9B4F90C30226974
:101A3000CDE7616B51B104F14402914204D02846D4
:101A4000FFF744F8B4F90C300022626300212269E8
:101A500023F02403C4E90021D9E71846FFF728FD45
:101A6000AFE7092243F040032A60C7E7000C0020DB
:101A70005FFA81FC810744D00346511E22B909E078
:101A80009A0709D0013905D3184602780133624517
:101A9000F6D1704700207047184603290CD800295A
:101AA000F8D00346014401E08B42F3D0184613F806
:101AB000012B6245F8D1ECE710B50CEB0C24024683
:101AC00004EB044402E00439032918D9104652F803
:101AD000043B6340A3F1013E2EEA030313F0803F71
:101AE000F1D051B10346014401E08B4205D01846C4
:101AF00013F8012B6245F8D110BD002010BD10462F
:101B0000EFE71146C9E700BF2DE9F041144649B39C
:101B1000EAB106460D4600F07BF98442074602D83A
:101B2000B4EB500F1AD821463046FEF711FF80461D
:101B300078B1BC422246294628BF3A46FEF736FE17
:101B400030462946FEF7C2FF4046BDE8F081FEF769
:101B5000BDFF4FF000084046BDE8F081A846404672
:101B6000BDE8F0811146BDE8F041FEF7F1BE00BFCF
:101B7000F8B5B1F90C30074618070C4639D44A6855
:101B8000002A53DDE56A002D31D000223E683A601C
:101B900013F48052216A55D101233846A847411CCD
:101BA00002465ED0B4F90C30E56A216A5B0705D5C0
:101BB0006368D21A636B0BB1236CD21A00233846C8
:101BC000A847451C40D00022236962602360A38996
:101BD000D90400D56065616B3E6041B104F14403F6
:101BE000994202D03846FEF771FF0023636300205C
:101BF000F8BD0E69002EFAD09B0718BF00230D68B0
:101C000008BF4B690E60AD1B8B600CE02B46324663
:101C1000D4F828C03846216AE047B0F1000CA5EBA3
:101C20000C05664406DD002DF0DCE0E70A6C002AB6
:101C3000A8DCDCE7B4F90C3043F040034FF0FF3090
:101C4000A381F8BD626DB1E73A68B4F90C308AB18E
:101C50001D2A01D0162AEFD100232269C4E90023EE
:101C6000B9E73B68002B9DD01D2B01D0162BE1D18D
:101C70003E60BCE7626022692260DA04AAD4AAE767
:101C800038B50B69CBB10C46054608B1036ABBB148
:101C9000B4F90C308BB1626ED00701D4990512D51E
:101CA00028462146FFF764FF636E0546DA0702D433
:101CB000A3899B050BD5284638BD0025284638BD8D
:101CC000FFF7F6FBE4E7A06DFEF7F6FEE8E7A06D90
:101CD000FEF7FAFEEFE700BF014618B1044B1868A3
:101CE000FFF7CEBF034A04490448FFF7A7BD00BF72
:101CF000000C0020500C0020811C0008040C002067
:101D000070B5B1F90C300C46990796B007D5012291
:101D100004F14703C4E90432236016B070BDB4F97E
:101D20000E100546002929DB6A460AF060FE0028ED
:101D300022DB4FF480612846019EFEF709FE88B33E
:101D4000A38906F4704643F08003A3814FF48063B7
:101D5000B6F5005FC4E904032060DED12846B4F97B
:101D60000E100AF050FE0028D7D0A38923F00303F9
:101D700043F00103A381D0E7B4F90C3013F0800FD6
:101D800014BF40264FF4806628463146FEF7E0FD3A
:101D900040B1A389C4E9040643F080032060A38115
:101DA00016B070BDB4F90C309A05B6D4012123F0F9
:101DB000030304F1470243F00203C4E90421A381B1
:101DC0002260AAE770B50C46B1F90E10154600293D
:101DD0001E4696B00FDB6A460AF009FE00280ADBB1
:101DE000019B4FF4806203F47043A3F50053B3FAF0
:101DF00083F35B0907E0A289002312F0800F14BF70
:101E000040224FF48062002033602A6016B070BD1B
:101E100051F8043C181F002BBCBF0B58C01870476A
:101E200038B51C4B1B78D3B19378C3B1147855786F
:101E3000844201D0854212D185424C790CBF0121E8
:101E400000211144CC7014BF012100215018C0782A
:101E500028B1022B05D014D9D81E01280CD9012095
:101E600038BD505C2CB908F07BFD01F06FFC002000
:101E7000F6E708F08FFDF8E7033B18BF012399420E
:101E8000F5D0505C14B908F06BFDE8E708F082FD6E
:101E9000E5E700BF5C0C002010B5012220214FF0C7
:101EA00080400BF00DF84FF0804320220B4C9A61DC
:101EB000204601224FF480610BF002F84FF480635A
:101EC0002046A36101224FF400610AF0F9FF4FF4AC
:101ED0000063A361BDE8104001F077BD000400403D
:101EE000054B1B7813F0100F14BF4FF080624FF4B6
:101EF0008062024B9A617047842B002000040040EE
:101F000038B547F60163984204460D4607D14B7930
:101F1000D3B11D4A137883F00103137014E01A4BF8
:101F20001B7833B9B4F5FC4F10D16B7963B1174A04
:101F3000F0E7174AFFF774FF30B129462046154AEB
:101F4000FFF76EFF0028EDD1002038BD0F4B187849
:101F5000C0B1A4F11E039AB2092A08D8DBB20E4A16
:101F600012F813006B7953B100F080FAECE72D2CD6
:101F700003D02E2CE9D10B23F1E70A23EFE700F081
:101F8000C3FAE1E70120E0E76E0D0020F81300201E
:101F9000740D00206F0D00208CE2000810B50220A7
:101FA00000F08AFE064C18B14FF00063A36110BD2B
:101FB000032000F081FE0028F6D14FF40063F5E71E
:101FC0000004004008280DD804290BD80E2A09D88F
:101FD0004B23C1EB011103FB0010034B024433F808
:101FE000120070470120704746DD0008082808D815
:101FF00039B9054B82F0010202EB400033F81000C2
:1020000070470120704700BF22DD0008A0F58072F4
:10201000B2F5F85F03461FD213F4805F00F400713D
:1020200003F48062C0F3002003F400630AD00001CF
:1020300009B140F020000AB140F040006BB140F01F
:102040008000704709B140F002000AB140F004007E
:102050001BB140F0080070470020704710B50C46D7
:10206000FFF7D4FF2346BDE810401847A0F1E00376
:10207000072B10B5044600D940B920460449FFF7A4
:10208000EDFFE0B2BDE8104000F0F0B90149F6E71D
:10209000D1250008F525000810B50446C0B200F0AF
:1020A00033FAA4F1E003072B00D92CB903492046E9
:1020B000BDE81040FFF7D2BF0149F8E7E32500086B
:1020C000072600080120704708B5FFF7FBFF08BD91
:1020D0000120704708B5FFF713FF08BD704708B52A
:1020E000FFF7FCFF08BD000013B502AB03E90300D6
:1020F0000F4B1B78B3B99DF8053073B16AB100F08E
:102100009FFE04460146009800F052FE20460099CA
:1021100002B0BDE8104001F015BE009800F06EFE60
:102120000446F3E7009800F08BFE0099F0E700BF4B
:1021300000140020034600890A4630B919885888DF
:1021400041EA00409988FFF7CFBF704738B50121B9
:102150000446FFF7EFFF21460546FFF7B5FF18B12C
:102160002146284606F06AFB00F0010038BD10B594
:1021700004460021FFF7DEFF2146FFF7B0FF10BD48
:102180000120704708B5FFF7FBFF08BD10B50446F6
:1021900000F05AFA2046FFF7F5FFBDE8104046F27E
:1021A000A81009F042BE08B50120FFF7EFFFBDE817
:1021B000084008F029BD08B50020FFF7E7FFBDE89B
:1021C000084008F047BD38B504460D4608F002F84F
:1021D00020B101212846FFF7ADFF044629462046DD
:1021E00008F028F9002858D02946204605F078FA4A
:1021F000002852D029462046FFF76CFF00284CD01B
:102200002946204607F05CF9002846D0294620469A
:1022100008F000F8002840D02946204606F092F841
:10222000D8B32946204607F04DFFB0B329462046D3
:1022300007F080FA88B32946204607F047F860B3D4
:102240002946204604F082FE38B32946204608F08D
:1022500053F810B36B797BB147F65A439C4223D0B5
:102260000ED847F601439C421BD047F603439C42DD
:1022700015D0B4F5F84F0ED02846FFF729FF0DE032
:1022800047F65B439C4212D047F65C439C42F3D135
:1022900001F0CEFAF0E7FFF786FF002038BD01F02D
:1022A000D9FAFFF788FFF8E701F0CEFAE4E701F08A
:1022B000CEFAE1E710B504460121FFF73BFF2146C6
:1022C000BDE81040FFF77FBF08B508F0E8FB04F059
:1022D000B5FB00F053F8BDE80840012004F066BCEF
:1022E00008B500F050F8002004F060FCBDE808409C
:1022F00008F0DABB030A0ABF0346082000201A09C7
:102300001EBF13460430C0B29A081EBF13460230E7
:10231000C0B25B081CBF0130C0B2704770470120DB
:102320007047000010F0020F0CBF01224FF4803202
:10233000014B9A61704700BF0004004038B5054664
:10234000FFF7EDFF044610B12846FFF7EBFF2046EC
:1023500038BD0000012210B5034C114620460AF09A
:10236000AFFD0123A36110BD0004004010B5044679
:10237000FFF7D4FF2046FFF7E1FF10BD08B50020AE
:10238000FFF7F4FF08BD08B508F0F6F9FFF7EEFF18
:1023900008BD000010B508F0EFF9074B04461A78A5
:1023A000824207D0187008F0D3FB044B1860204617
:1023B000FFF7DCFF10BD00BFF9130020FC13002065
:1023C00010B586B06C4684E803009DF804309DF893
:1023D00005101BB1194A13680133136009B101F0EC
:1023E000AFF80023ADF81230ADF81430144B94E878
:1023F00003005B7803905B07ADF810100DD5114B0F
:102400005B8853B101F046F810B1022001F0E0F909
:1024100001F01EF808B101F025F99DF8103003AC69
:102420002BB994E8070000F0A9FF06B010BD2046C4
:10243000FFF78CFE0028F4D1F7E700BF041400205A
:10244000842B0020042E00200379012B02D1008868
:1024500000F018BD704708B529B107F0D5FABDE8FE
:10246000084007F0BDBB07F02FFBF8E710B50446A6
:10247000002845D0031FDBB2A02B13D806F0CAFBFF
:1024800000283DD1204608F0FBF920B1204608F095
:1024900081FA01F05BF9204608F062FABDE81040CD
:1024A00001F054B900F12003DBB2072B07D800F08C
:1024B00007040120A040C0B201F016F8EEE700F1D9
:1024C0005B03DBB2022B05D8BDE81040243880B294
:1024D00008F076B900F15803DBB21A2B06D8BDE834
:1024E0001040084A32F8130008F086B93334E4B2D9
:1024F000122C05D807F088FABDE8104007F070BB31
:1025000010BD00BFA4E2000808B50346A0B3021F37
:10251000D2B2A02A05D808F03DFABDE8084001F083
:1025200015B900F12002D2B2072A07D800F007033C
:1025300001209840C0B200F0DFFFEEE700F15B023F
:10254000D2B2022A04D8BDE80840002008F038B909
:1025500000F15802D2B21A2A04D8BDE8084000207F
:1025600008F04AB93333DBB2122B05D807F0ACFAC6
:10257000BDE8084007F034BB08BD000038B50C4684
:102580000546FFF773FF94B140F2E73309494FF472
:102590007A72A4FB0141E01841F100010023FDF72C
:1025A00025FE09F042FC2846FFF7AEFF38BD0120AA
:1025B000F7E700BFA086010008B5044B39280CBF1F
:1025C000198CD98BFFF7DAFF08BD00BF042E00205D
:1025D00008B528B100F088FFBDE8084001F0B6B8A2
:1025E00008BD08B528B100F087FFBDE8084001F03C
:1025F000ADB808BD08B528B100F092FFBDE80840AD
:1026000001F0A4B808BD08B528B100F091FFBDE8FD
:10261000084001F09BB808BD08B5002008F0D0F8CC
:10262000002008F0E9F800F08BFF01F08FF807F0C8
:10263000F3FABDE8084007F0D3BA08B508F0C4F9CA
:10264000BDE80840FFF7E8BF08B500F05DFFBDE852
:102650000840FFF7F2BFC0F30333062BC2B213D01A
:1026600094BF0E33063303F00F03012B10D8F02A6A
:1026700010D004D8E72A8CBF002001207047F42A2C
:1026800014BF002001207047E72A03D9F12AF7E799
:10269000002070470120704708B50346007958B103
:1026A000188928B101F074FABDE80840FFF7D3BFDC
:1026B000188800F0E7FBF7E708BD00002DE9F84FA8
:1026C000867981460C46457900F0FEFE3609804643
:1026D00018B3A8460DB3C4F3072303F0F002402A51
:1026E0000CD0E1B201F12002D2B2072A28D903F0BE
:1026F000E003202B02D1012922D926B3AB4B93F85A
:10270000018018F0040808D0022001F061F800F000
:10271000DBFE80F001085FFA88F8C4F3033ABAF1EF
:102720000B0F6AD8DFE81AF01100110044004400D2
:10273000F900110169006900160180019101910100
:102740004FF00008E9E7B046E7E7C4F30723C4F316
:1027500003270F2B88BF3F015FFA84FB95B167B158
:102760000BF12003DBB2072B384602D9BBF1000F77
:1027700005D100F0B9FE00F0E9FF58463BE000F05B
:10278000CFFEF8E75846FFF7BFFE002F35D00BF11C
:102790002003DBB2072B384602D9BBF1000F02D170
:1027A00000F0AAFE01E000F0C3FE00F0CFFF24E03D
:1027B000C4F3072303F0F003C4F30327202B5FFACD
:1027C00084FB18BF3F01BBF1000F08D0BBF1010F24
:1027D00077D0002D00F08280002E42D0CDE7734BE1
:1027E0005B7858073BD49DB327B1384600F07CFE98
:1027F00000F0ACFF0020FFF739FEAAF1080ABAF199
:10280000030F03D807F0B8FFFFF7B0FD2046FFF72E
:1028100022FF002840F0A7810022654B1A60B8F122
:10282000000F00F0C28100F02DFE10F0010040F01A
:10283000BC8189F8050000F01FFE00F051FA4846FF
:1028400000F0D4F900F018FEBDE8F84F00F054BADB
:102850002846FFF759FE002FCFD03846A0E7D5B164
:102860001EB93846FFF7B4FEC7E7012E03D138463C
:1028700000F0B2FEC1E74F4B1B7F012BBDD9B34225
:10288000BBD13846FFF7A4FE384600F0BBFE384601
:1028900000F080FEB1E74EB93846FFF7A2FE384699
:1028A00000F0B0FE384600F083FEA6E7414B1B7FE8
:1028B000012BA2D9012EA0D100F010FE38429CD0ED
:1028C000EAE73C4B93F8223015B19E4295D8C8E711
:1028D0009E4292D23846FFF784FE8EE7002EF9D052
:1028E000BBF1390F334B16D1188C68B140F2E73386
:1028F00031494FF47A72A0FB0101C01841F1000187
:102900000023FDF773FC00E0012009F08EFA584621
:10291000FFF7FAFD71E7D88BE7E714F4406FC4F3D3
:10292000812308D0012B7FF468AF65B1C4F309009F
:1029300007F062FF61E725B1C4F3090007F040FF2B
:102940005BE72846FAE72846F2E72946E0B2FFF7B8
:1029500082FD52E714F4407F33D1002D7FF44DAF58
:10296000E10648BF0F20C4F342134FEA8303DBB2F2
:1029700046BF9840C043284604F00F0202FA03F213
:10298000C4F3812348BF80B292B2022B40EA020016
:1029900009D0032B12D0012B02D000F06BF92CE7E9
:1029A00000F060F929E700F06DF926E7842B00209C
:1029B00004140020042E0020A086010000F04FF92E
:1029C0001BE7C4F3012215B3D2077FF516AF14F04D
:1029D000100018BF0F20C4F342134FEA8303DBB289
:1029E0001CBF9840C04304F00F0202FA03F2C4F384
:1029F000812318BF80B292B2022B40EA02000DD0B0
:102A0000032B0ED0012B06D000F094F9F5E6012A35
:102A10007FF6F3AEDBE700F085F9EEE600F092F921
:102A2000EBE600F03DF9E8E65FFA84FBC4F3032728
:102A300025B1384600F054F9584613E75846FFF7D9
:102A4000D0FD384600F058F9D7E6E7B2A7F1F00319
:102A5000042B63D8DFE803F00327131A2300544B39
:102A600093F822303DB19E42BFF4C7AEC4F30420B8
:102A700000F04CF9C1E69E423FF6BFAEF6E7C4F364
:102A80000420002DDED100F02BF9B6E625B1C4F309
:102A9000042000F01FF9B0E600F00AF9ADE6454B5E
:102AA0005B785B0704D4C4F30420002DCAD0EAE7A6
:102AB0003F4F3B7F012B20D9ADB100F0E3FC042850
:102AC00008D100F077FEC4F3042000F015F94FF0B0
:102AD000000892E63B7FB342F9D90321C4F30420F6
:102AE00000F04AFEF3E7B34203D800F063FE04218E
:102AF000F4E7012000F06CFEE9E72DB10321C4F3F7
:102B0000042000F039FE78E6012000F061FE012E7D
:102B10007FF673AE022000F05BFE6EE62DB10EB1C3
:102B2000384668E6C4F30420ADE7CEB1392F204B18
:102B300014D1188C68B140F2E7331F494FF47A7210
:102B4000A0FB0101C01841F100010023FDF74EFB7D
:102B500000E0012009F069F93846D9E6D88BE9E7A9
:102B6000C4F304206EE71DB1002E7FF455AE56E687
:102B7000002E7FF451AEB9F80030B9F80200B9F870
:102B80000410324643EA0040FFF7AEFA494605F02A
:102B900031F800283FF440AE084B1B68022B7FF44D
:102BA0003BAEE0B2FFF708FD36E6BDE8F88F00BFA8
:102BB000042E0020842B0020A08601000414002095
:102BC00038B50446008960B100F0E2FF054600F028
:102BD000C1F800F043F829462046BDE83840FFF729
:102BE0006DBD2188607900F059F9EFE7037910B5E0
:102BF0000446B3B1FFF75EFB68B900F065FC80B135
:102C0000637973B1074B5B785B070AD5BDE8104069
:102C1000022000F0DDBD2046FFF7D2FF2046FFF77F
:102C2000A6FA10BD842B002082B002AB03E903009A
:102C300002B0704784B004AB03E9070004B07047EA
:102C4000704708B5FFF7FCFF08BD000008B5FFF7A7
:102C5000F8FF014B188008BD361400207047FFF7BD
:102C6000F5BF0000024B1B881843FFF7EFBF00BF02
:102C700036140020024B1B881840FFF7E7BF00BF47
:102C800036140020024B1B885840FFF7DFBF00BFFF
:102C900036140020704708B5FFF7FCFF08BD0000A0
:102CA00008B5FFF7F8FF014B188008BD3414002069
:102CB0000020FFF7F5BF0000054B1B881BB9B0FAD9
:102CC00080F04009704743FA00F000F001007047BF
:102CD00034140020012303FA00F080B2FFF7E0BFB4
:102CE000012303FA00F0034B1B88184380B2FFF75F
:102CF000D7BF00BF341400200123034A834010884B
:102D000020EA0300FFF7CCBF34140020012303FAAC
:102D100000F0034B1B88584080B2FFF7C1BF00BFD3
:102D200034140020024B1B881843FFF7B9BF00BFC3
:102D300034140020024B1B881840FFF7B1BF00BFBE
:102D400034140020024B1B885840FFF7A9BF00BF76
:102D500034140020704730B5012401F00703C9087E
:102D600002EB810200219C40E4B2013A12F8015FBB
:102D700020FA01F343F300036B40234001315D402F
:102D800004291570F2D130BD002210B500F00704FF
:102D9000C00801EB800110468B5CE34003F00103A7
:102DA000934001321843042AC0B2F5D110BD00008F
:102DB00017B4ADF80400C0F30720F0280C4615D076
:102DC00004289DF804100BD80E290FD8C0EB001072
:102DD0000144084A89B2204603B010BCFFF7BBBFCC
:102DE000031DDBB2012B01D8034AF4E703B010BC8A
:102DF000704700BF0C14002008140020C0F3072304
:102E000082B0F02BADF8040013D0042B9DF8040021
:102E100009D80E280DD8C3EB03131844064980B215
:102E200002B0FFF7B1BF0433DBB2012B01D8034975
:102E3000F6E7002002B070470C14002008140020B0
:102E400073B508240D4BADF804001D880C4B1B888E
:102E50001D43ADB245FA04F3DB0705D4013CF9D2BA
:102E60000026304602B070BDE6B23046019900F04F
:102E70009DFF80B20128F1D0F3E700BF3414002099
:102E80003614002007B5ADF804000198FFF7D8FF0D
:102E9000019903B05DF804EB00F088BF13B5104B47
:102EA000ADF804101B782BB1019802B0BDE81040BA
:102EB000FFF7E8BF70B10198FFF7C2FF0446014673
:102EC0000198FFF775FF2046019902B0BDE8104058
:102ED00000F06CBF0198FFF791FF0446F3E700BFD5
:102EE0000014002010B5012404FA02F204FA01F1E2
:102EF00011438AB20140914204FA03F406BF204311
:102F000080B2A04310BD000008B513460A46014632
:102F100003480088FFF7E6FFBDE80840FFF7C0BEA2
:102F200034140020F8B50A270D4B0E4E1C780E4DB8
:102F30003378A34200D1F8BD07FB04F2AB18A85ABE
:102F4000B3F802C09A88D98840EA0C4042EA0141AD
:102F500001341A89FFF76EFE04F00704E8E700BFAA
:102F600038140020391400203A140020064B10B405
:102F70009A885C881888D98840EA044042EA01416E
:102F800010BC1A89FFF756BE8A1400204FF00A0CB5
:102F9000F0B50E4B0E4C1B7827780E4CBB4201D17E
:102FA0000020F0BD0CFB03F6A51995F801E08E4555
:102FB00005D1A65D864202D16D79954203D10133D8
:102FC00003F00703EAE70120EBE700BF3814002015
:102FD000391400203A1400202DE9F047204DAB7938
:102FE0000F2B0DD86B795BB14FF00A0A1D4BDFF840
:102FF00078901C78DFF8748099F80030A34201D1F2
:10300000BDE8F0870AFB04F303EB0806327912B33C
:1030100038F803202B889A421DD17179D9B96B8871
:1030200077880F48FF1AFFF785F80D4904F040FB39
:10303000BFB287420FD20122AB79094862F307136E
:10304000AB71B37962F30713B371FFF7CFFDBDE83E
:10305000F047FFF767BF013404F00704CCE700BF77
:103060008A14002038140020391400203A1400205B
:103070002DE9F04F04468BB005AF062201463846D5
:10308000FDF794FBDFF8C8B223789BF80420019386
:1030900063786579668894F804900293CAB9B9F1A7
:1030A000000F00F00F81002D00F05F812046FFF738
:1030B000F3FA002800F059810A2221465846FDF70C
:1030C00075FB5846FFF7C0F9FFF786FFFFF74EFF85
:1030D000F8E000215846FFF72DF89BF8058082465E
:1030E000B8F1000F00F0F080BBF802200021B21A06
:1030F00092B258460392FFF71DF8594604F0D8FAE9
:10310000039A824280F0B780B9F1000F00F0DA80B4
:103110009BF80620BBF800000F2A218870D888424F
:1031200017D1BBF808002189884212D145BB012183
:1031300061F307128BF80620FFF718FF5846FFF7D8
:1031400055FD9BF80630A371002528460BB0BDE85D
:10315000F08FADB92A4602990198FFF717FFE0B149
:1031600050467B4904F034FDB8B17948FFF73EFD85
:103170000A2200217648FDF781F9FFF7F7FEE3E721
:103180009BF80620504642F0010271498BF8062058
:1031900004F026FD0028D7D0E7E700220299019825
:1031A000FFF7F4FE05460028CED10598FFF76AFE2A
:1031B000C0F30332032AC3B208D8012A10D910F48D
:1031C000706F12D0A2790F2A0FD8BEE7063202F034
:1031D0000F02012A0ED92046FFF708FD4546B4E745
:1031E00010F4706F01D0002BAFD02033DBB2072B6F
:1031F000ABD9F0E7EF2BA8D90F33DBB2022BF7E7FF
:1032000088420FD1BBF80800218988420AD14DB904
:103210002046A271FFF7EAFC0A2221465846FDF734
:10322000C5FA53E72046FFF737FA002800F09D80E3
:10323000002D00F09A809BF806201F2A15D9BBF8B4
:103240000010BBF80830ADF81C109BF8041007A85C
:103250008DF820100021ADF81E608DF821108DF83A
:103260002220ADF82430FFF7C1FC0A22214638485D
:10327000FDF79CFA28E79BF806200F2A0AD897E862
:103280000300FFF7D1FC5846FFF7B0FC0A220021EB
:10329000584670E7B9F1000F14D0BBF80000218840
:1032A0008842BFD1BBF8080021898842BAD1002DDD
:1032B000B8D12046A271FFF799FC0A222946584648
:1032C000FDF7DCF8012540E741465846BBF802A06F
:1032D000FEF730FF594604F0EBF9A6EB0A0A1FFA95
:1032E0008AFA824545D2B9F1000FEBD0002D3CD0CF
:1032F000BBF80010228891422CD1BBF8081022891B
:10330000914227D1BBF80220B61AB6B2C72E19D8FF
:103310009BF80620D30715D40F2A13D91346A271A0
:1033200002F0F002F02A06D0DBB2C3F3031201323E
:1033300062F30713A3712046FFF758FC0A222146C7
:1033400003486CE70A2221460148FDF72FFAB9E746
:103350008A1400202046FFF79FF9002885D19BF8AA
:10336000062042F001028BF806202046FFF73EFCC3
:10337000A8E797E80300FFF757FC87E7F0B589B0A7
:1033800001AC84E807002046FFF772FE294F06468D
:10339000294D70B19DF808301BB194E80700FFF784
:1033A00049FC0A24254E28783B78834226D109B06F
:1033B000F0BD05AB94E8070003C39DF808101A8020
:1033C0003B782A780029ECD05C1C04F00704944276
:1033D0000AD00A22194805A902FB0300FDF7E6F905
:1033E0003C70FFF79FFDDCE7FFF72EF90A2231461C
:1033F00013483E702E70FDF741F8D2E704FB0060E1
:10340000FFF736FE0028D2D02A786243B318B05AAC
:10341000B3F802C09A88D98840EA0C4042EA0141D8
:103420001A89FFF707FC2B78013303F007032B7091
:10343000B9E700BF39140020381400203A140020E6
:103440008A140020014B1878704700BFC214002076
:1034500010B5074C608850B107F0B2FB054B1B88D4
:10346000C31A60889BB298428CBF0020012010BD17
:10347000042E0020C0140020014B1878C0087047AB
:10348000BE140020024B187800F00700704700BF00
:10349000BE14002008B507F093FB084B1B88C01A28
:1034A000074B80B25B88834297BF064B0020187899
:1034B00080F0040098BFC0F3800008BDBC14002059
:1034C000042E0020BE140020034B187810F00700D3
:1034D00018BF0120704700BFBE140020014B1878B0
:1034E000704700BFEF140020024B1A781043187089
:1034F000704700BFEF140020024A137823EA00034C
:1035000013707047EF1400200022014B1A707047AF
:10351000EF140020014B1878704700BFEE14002014
:10352000024B1A7810431870704700BFEE14002049
:10353000024A137823EA000313707047EE14002048
:103540000022014B1A707047EE140020014B1870D6
:10355000704700BFED1400200022014B1A70704725
:10356000ED140020014B1870704700BFEC140020D0
:103570000022014B1A707047EC140020014B1878A0
:10358000704700BFC3140020704708B5FFF7FCFF69
:1035900008BD000008B5054A137830EA030103D0DE
:1035A00018431070FFF7F1FF08BD00BFC2140020E0
:1035B00008B5054A1378034204D023EA00001070CE
:1035C000FFF7E3FF08BD00BFC2140020704708B535
:1035D000FFF7FCFF08BD000038B5084D04462B7806
:1035E00030EA030309D007F0EBFA054B18802B787B
:1035F000204623432B70FFF7EAFF38BDC314002099
:10360000C014002010B5084C237803420AD023EAE6
:103610000000207008B107F0D3FA044B188020781E
:10362000FFF7D5FF10BD00BFC3140020C014002059
:1036300038B5094B04465B785B070BD5074D2B78F3
:10364000834207D007F0BCFA054B2C701880204647
:10365000FFF7BDFF38BD00BF842B0020C31400203E
:10366000C014002008B5054B1A782AB10020187044
:10367000034B1880FFF7ABFF08BD00BFC314002049
:10368000C014002038B50F4B0F4D1C780F4B1B7822
:103690001C432B7873B10E4B5B8823B1FFF7D8FE28
:1036A00008B1FFF7DFFF2B781C4307F0C1F808B122
:1036B000FFF7D8FF074B084A1B78107824EA030469
:1036C000204338BDEF140020C3140020EE14002066
:1036D000042E0020EC140020ED14002038B50B4C13
:1036E0002568FFF7CFFF2870246808222046084984
:1036F000FCF716FE48B1214608220548FDF756F8AA
:103700002046BDE8384007F03FB838BD800D0020A6
:10371000B414002038B50B4C2568FFF7B3FF687070
:103720002468202220460849FCF7FAFD48B12146CA
:1037300020220548FDF73AF82046BDE8384007F05A
:103740002BB838BD7C0D002094140020054B1B784D
:1037500033B1054B93F90030002B01DAFFF7DABFE4
:10376000FFF7BCBFA80D0020842B0020704708B5D0
:10377000FFF7FCFF08BD00000B4A10B55278520756
:103780000ED50A4C41EAC0012170FFF7A9FA07F0F3
:1037900017FA074B18802078C008FFF7E8FF10BD24
:1037A000BDE81040FFF79CBA842B0020BE14002017
:1037B000BC140020002008B5034B1870034B188080
:1037C000FFF7D5FF08BD00BFBE140020BC140020C9
:1037D00008B50A4A137823EA0000107042070CD19A
:1037E00098420AD0064B5B785B0706D5C008FFF706
:1037F00083FABDE80840FFF7DDBF08BDBE14002016
:10380000842B0020094A08B55378C3F38001814214
:103810000AD060F382035370108800F03CF8BDE8D2
:1038200008400220FFF7D4BF08BD00BF842B002052
:10383000044B5878C0F3800080F0010000F00100D4
:10384000FFF7E0BF842B00200120FFF7DBBF002043
:10385000FFF7D8BF08B500F093FDBDE808404FF66C
:10386000FF71002000F06EBD08B5002000F003FDE0
:103870004FF6E563984203D1BDE8084006F07CBDF1
:10388000002008BD022000F0E7BC032000F0E4BCEB
:10389000042000F0F0BC0146042000F053BD0146B6
:1038A0000F2000F05DBD0146132000F059BD00203F
:1038B000FFF7F9BF08B50020FFF7F1FFFFF7F7FFAB
:1038C00008BD000007B500F05BFD4FF6E561002084
:1038D00000F038FD0021022000F026FD01211C4BE4
:1038E0000320198000F020FD4FF4A051042000F0C7
:1038F00029FD0021062000F017FD0021072000F01F
:1039000013FD0021082000F02BFD0021232000F0F2
:103910000BFD00210C2000F007FD00210D2000F020
:1039200003FD002300226846CDE900231721082269
:1039300000F0E0FC00211F2000F012FD002006F046
:1039400030FD06F058FDFFF7B5FF03B05DF804FB4E
:1039500036140020FFF7B6BF01460E2000F0E4BC8D
:1039600073B507F02DF90B4D04462B8883420ED01A
:103970000026ADF8006007F023F9ADF80460ADF85B
:10398000020002AB13E90300FEF71AFD2C8002B01F
:1039900070BD00BFF014002008B507F0D9F8024B45
:1039A0001860024B186008BD0415002000150020A7
:1039B00008B507F0CDF8024B1860024B186008BD3F
:1039C00004150020FC14002070477047704708B5AC
:1039D000FFF7FCFF08BD01207047000008B507484D
:1039E00000F0DAFA00F0CAFC03F0BAFB04F038F891
:1039F000FFF7EAFFFEF750FA08BD00BF913F00084D
:103A00000120704708B5FFF7FBFF08BD08B5FEF7BA
:103A100067FAFEF7C3FA08BD08B5FFF725FF08B936
:103A2000FFF798FFFFF72EFF084B1870FFF730FFE6
:103A3000074B188004F0A0FDFFF727FFFFF70FF9F1
:103A4000044B1888BDE80840FFF725B90815002089
:103A5000842B00203414002008B507F077F806F016
:103A6000DAFC04F047F900F05BFBFFF7D5FFFEF747
:103A700071FC03F075F8FFF7AAFF08BD08B505F063
:103A800005FD06F00FFC04F08DFEBDE8084004F0D3
:103A900011BC00002DE9F04F85B0FFF79CFF88B9FD
:103AA000FFF75EFFFFF7EAFF02F0C8FF04F078F9C6
:103AB00008B1FFF77DFF06F0D7F805B0BDE8F04F7D
:103AC000FEF768BCDFF8C08000F044FB46460024E7
:103AD000E0B236F8025B00F07BFA042C50D085424D
:103AE00004F10104F4D0294B1B789B0701D500F0A9
:103AF00075FAFFF787FF002701905FFA87F94846BC
:103B000000F066FA38F8026B0546B04232D0002465
:103B10004FF0010A4640B6B216EA0A0F20D0019BC8
:103B200015EA0A0F14BF4FF0010B4FF0000B93B1D1
:103B30008DF808408DF8099007F042F84FF0010326
:103B4000ADF80A008DF80C308DF80DB002AB93E89B
:103B50000300FEF735FC5A462146484601F07AFD3F
:103B60000134E4B24FEA4A030F2C1FFA83FAD3D18F
:103B700028F8025C0137052FBFD1FFF70DFF91E751
:103B80008542B0D18CE700BFF21400200815002058
:103B900038B500F017F9B0F5A44F044643D2B0F59C
:103BA000A04F80F0AE80DF2816D8CC2800F28C80A1
:103BB000A7280AD8A42879D8012804D0031F9BB2CB
:103BC000A12B28BF0024204638BDA0F1A8039BB23A
:103BD0001A2B71D90024F6E7B0F5804F19D2B0F551
:103BE000005F80F09D80E728EDD9A0F580739BB23F
:103BF000B3F5F85FEED2C0F3072000F067F9054691
:103C0000E0B200F0DFF82D0205F4F85540EA0504B3
:103C100050E0C0B200F0D6F804F47064204340F4E1
:103C2000204084B2CFE7B0F5A54F22D245F25F2302
:103C3000984253D845F23F2398420FD845F21F23AC
:103C4000984244D8012300F00304C0F38502A34046
:103C500043EA421343F40D439CB2B4E7012300F05E
:103C60000304C0F38202A34043EA421343F40C432B
:103C7000F2E745F2BF2398420AD845F29F239842C3
:103C800000F01F0035D84AF2F40343EA00249AE713
:103C9000A0F5A543403B9BB21F2B9BD8040204F424
:103CA000F85444F4204444F0F0048CE7A0F12404D8
:103CB00044F48044A4B286E7214B5834E4B233F88C
:103CC000144044F488447EE740F4A044F2E74AF20A
:103CD000F10300F01F0443EA042474E7012300F019
:103CE0000304C0F38202A34043EA421343F40A43AD
:103CF000B2E700F0EBF8040204F4F85444F4005482
:103D000061E700F01F0000F0E1F8C306C4F34314BC
:103D100048BF0001240200B2044344F41044C9E740
:103D2000C0F3042000F0D2F80546E0B200F04AF8F3
:103D30002D0205F4F855054345F40055ACB242E7B1
:103D4000DAE2000817B4174BADF804101B6833BB58
:103D50009DF805409DF80410F02C07D1F02901D101
:103D6000114B1B88184603B010BC7047042C07D8B1
:103D70000E29F7D80A46214603B010BC05F0DCB97D
:103D8000FD2C06D10029EDD1012203B010BC05F0B5
:103D9000E0B9FC2CE6D10029E4D10A46F5E700237E
:103DA000E0E700BF042300203C2D002007B5ADF85C
:103DB00004100199FFF7C6FF03B05DF804EBFFF7AD
:103DC000E7BE0000E7284FD8DF2807D8312864D0A5
:103DD0000ED8292857D02A2866D07047A0F1E003D2
:103DE000072B41D8DFE803F01540232831403C4140
:103DF000392804D0822802D035283FD07047324B72
:103E00001A7892071FD15B7813F0080F18BF29208A
:103E100070472D4A1378D9074DD4527812F0010F0C
:103E200022D013F0100F14BF0020E3207047264B60
:103E30001B7813F0040FF3E7234A137859073CD497
:103E40005278D207EDD5E02070471F4B5A78910782
:103E50000AD51B7813F0100F14BF0020E72070471D
:103E6000194B1B781A07F5D47047174A13781907AE
:103E700025D452789107EDD5E4207047124B1B787A
:103E800013F0200FC2E7104B1A78920619D45B7812
:103E900013F0080F18BF392070470B4B1B7813F035
:103EA000400F18BF2A207047074B1B7813F0400FB4
:103EB00018BF3120704739207047E2207047E62054
:103EC00070473520D0E700BF842B002010B52F4C61
:103ED00021784B0713D500F01402A2F1040C00F076
:103EE0001803DCF1000242EB0C02A3F1080CDCF138
:103EF000000343EB0C039A4218BF80F00C000B0741
:103F000013D500F01402A2F1140C00F01803DCF138
:103F1000000242EB0C02A3F1180CDCF1000343EBAE
:103F20000C039A4218BF80F00C006478E30713D5A5
:103F300000F0110202F1FF3C00F01803DCF1000276
:103F400042EB0C02A3F1080CDCF1000343EB0C0381
:103F50009A4218BF80F00900A30711D500F01102A2
:103F600000F01803A2F111046242A3F1180C62419F
:103F7000DCF1000343EB0C039A4218BF80F0090008
:103F8000CB0648BF00F0E70010BD00BF842B002027
:103F90000020704700207047014B1860704700BF39
:103FA000840D0020704708B5FFF7FCFF08BD70477F
:103FB00008B5FFF7FCFF08BD044B33F810200123C0
:103FC0008B401A4214BF012000207047902B002024
:103FD000014B33F810007047902B002070474FF4CE
:103FE000346007F09BBD00BF00BF00BF00BF00BF33
:103FF00000BF00BF00BF00BF00BF00BF00BF00BFC9
:1040000000BF00BF00BF00BF00BF00BF00BF00BFB8
:1040100000BF00BF00BF704708B5FFF7E0FF08BD55
:1040200008B5302383F31188012100F00F03994074
:10403000202220F00F0008F043FF002383F31188B3
:1040400008BD000038B50F240B4D55F8040B421C79
:1040500001D0FFF7E5FF013C14F0FF04F5D1052482
:10406000064D55F8040B431C01D0FFF7D9FF013C66
:1040700014F0FF04F5D138BD10E300084CE300084C
:104080002DE9F843DFF89080054658F821300E46B8
:104090005C1C17463ED0302282F31188012223F0A7
:1040A0000F0903F00F0302FA03F4214648462404E3
:1040B00008F006FFC9F81840002484F31188FFF7C0
:1040C00092FF6FEA070EDFF854C0A91E08355CF8AE
:1040D000042B31F8023F501C19D022F00F00006968
:1040E00002F00F0220FA02F2D20710D401243B435F
:1040F0008D420B80EBD158F82600431C01D0FFF70E
:104100008FFF21463046BDE8F843FFF785BF03EA3D
:104110000E03EDE7BDE8F88310E300084CE3000868
:1041200010B50A24FFF78EFF224600210748FCF74E
:10413000A5F9224600210648FCF7A0F9052000F069
:104140003BF8BDE81040FFF72EBF00BF902B0020CA
:10415000862B002030B50024012585B001940294FF
:10416000ADF80C402A46E1B201A80134FFF788FF00
:104170006D000F2CADB2F5D10A220D4801A9FCF754
:10418000CFF8002814BF0124002404D00A220848D4
:1041900001A9FCF70BFB234605220649044800F061
:1041A0000DF80446FFF704FF204605B030BD00BF00
:1041B000862B0020902B0020704700002DE9F8434B
:1041C00007460E4615461C46DFF850804BB10123CA
:1041D00088F8003006F0BCFC114B18600020BDE8E8
:1041E000F88398F80090B9F1000FF7D00C4B1868DD
:1041F00006F0F2FC0428F1D96D002A463946304613
:10420000FCF78EF828B12A4639463046FCF7CEFA3C
:104210004C460023204688F80030E0E710150020C7
:104220000C150020FFF736BC08B506F053FC07F06C
:1042300007F8FFF7D3FB07F005F8FFF70DFC07F0D1
:1042400017F807F01BF8FFF7EDFF07F037F806F057
:10425000D1FFFFF7DBFBF4E7002307B5014601229E
:104260000DF107008DF8073000F08CF89DF807007D
:1042700003B05DF804FB002307B5014602220DF1EF
:104280000600ADF8063000F07DF8BDF8060003B07A
:104290005DF804FB07B50422002301460DEB020084
:1042A000019300F06FF8019803B05DF804FB07B5C7
:1042B00001228DF8071001460DF1070000F067F8A4
:1042C00003B05DF804FB07B50222ADF80610014605
:1042D0000DF1060000F05BF803B05DF804FB07B5D4
:1042E0000422019101460DEB020000F050F803B0EA
:1042F0005DF804FBF8B505461446D31D23F007030B
:1043000000AFADEB030D68460E4600F03BF82246C9
:1043100069462846FCF704F820B122463146284673
:1043200000F035F8BD46F8BD38B50C460546FFF738
:1043300093FFA04205D021462846BDE83840FFF74C
:10434000B6BF38BD38B50C460546FFF794FFA0420E
:1043500005D021462846BDE83840FFF7B4BF38BD38
:1043600038B50C460546FFF795FFA04205D021461B
:104370002846BDE83840FFF7B2BF38BD00F018B995
:1043800000F03CB80B460146184600F051B80B4609
:104390000146184600F09EB808B5064B4FF400627F
:1043A00000211846FCF76AF840F60802C0F8002819
:1043B00008BD00BF1815002010B5064C94F804384D
:1043C00033B900F06CF910B1012084F8040810BD75
:1043D0000220FCE71815002010B5074C94F80438AB
:1043E0003BB100F066F918B10023012084F80438CD
:1043F00010BD0220FCE700BF1815002038B5FFF7FC
:10440000DBFF044618B9FFF7E7FF204638BD00F090
:1044100048F90546FFF7C0FF012C06D1FFF7DCFF86
:1044200000280CBF002505F001052C46EDE7000033
:1044300008B5034608469918B1F5006F05D8044938
:104440001944FCF7B3F9012008BD0020FCE700BFC8
:10445000181500200000000070B500F022F9044695
:1044600018B3FFF7A9FF4FF48072054612490020E8
:1044700000F03CF9104E044678B10DA3D3E90023B7
:104480004FF40061304603F0FBFB02460B464FF44D
:10449000006000F064F94400E4B2012D01D1FFF79F
:1044A0009BFF40F60803C6F80038204670BD00BFE9
:1044B00025232284E49CF2CB18150020044BD3F86A
:1044C0000038B3F5805F01D3FFF7C6BF0120704706
:1044D000181500202DE9F04F8318B3F5006F04463E
:1044E0000E46154685B01DD8DFF8BCB000EB0B07B3
:1044F00039463046FBF714FF002844D02A4631469F
:104500003846FCF753F9FFF757FF824640B14FF0AA
:1045100000084FF0000955B9FFF7D0FF034638E017
:10452000FFF75AFF0023184605B0BDE8F08F052DB0
:104530002F4628BF0527C4F3024343EAC703CDE94A
:1045400002893A468DF808303146230A0DF10B00F6
:104550008DF809308DF80A40FCF728F9DDE90223CF
:10456000DBF8000800F0FBF890B1DBF80038083306
:10457000CBF80038FFF7A2FF0128034605D1ED1B59
:104580003C443E44C7E70123CDE710F0FD0F00D0C7
:104590000023BAF1010FC6D10193FFF71DFF0028D8
:1045A000C0D0019BBFE700BF18150020000000002D
:1045B0007FB5FFF7F1FE00F06DF828B9FFF7ECFECC
:1045C0000024204604B070BD4FF4807200203049B2
:1045D00000F071F82E4C002843D02BA3D3E9002320
:1045E0004FF40061204603F04BFB06460D464FF4A6
:1045F000006002A900F077F8DDE902239D4208BFC0
:10460000964201D0FFF7C8FE40F6080569462846E5
:1046100000F069F848B3DDE9003253EA02011ED028
:1046200013F0C00FCDE9023205F10805D9B21BD154
:1046300003F47F40C3F3074318430B0403F4E02360
:104640001843CA0800EBD101B1F5006F0CD80DF189
:104650000B012044FCF7AAF8B5F5805FD6D1012004
:1046600003E0FFF799FEA9E70020C4F8005838B925
:10467000FFF7F2FE04460028A3D1FFF78DFEA0E766
:10468000FFF71CFFF6E700BF25232284E49CF2CB52
:104690001815002008B500F0D1F8012008BD012050
:1046A000704708B5002000F0CBF8B0FA80F0400960
:1046B00008BD0120704738B5D5002A460C4600F0E9
:1046C000DCF818B921462544A94203D1B0FA80F09C
:1046D000400938BDD1E90023D243DB4341F8082B20
:1046E00041F8043CF0E70122FFF7E5BF2DE9F04374
:1046F0000646884615460027C1B06B46202DAE46BB
:1047000028BF4FF0200E1C469C4608EBC70277449A
:1047100008EBC7094A4511D10024744513D14FEA6B
:10472000C4094A466146304600F0C5F8A8B92D1BB9
:104730004E44E2D1012041B0BDE8F083F2E802012D
:10474000E4E80201E6E7D3E90002C043D24343F8BC
:10475000080B43F8042C0134DFE70020EBE707B532
:10476000CDE9002369460122FFF7C0FF03B05DF8E1
:1047700004FB0000002208231146014806F0A8BAF5
:104780000C08004008B5FFF7F5FF30B1062006F031
:10479000D9FA06F00FFB002008BD4FF0FF30FBE711
:1047A00038B506F0D5F900F57A75FFF7E3FF78B173
:1047B000052006F0C7FA06F0D7FAC4B206F0FAFAF6
:1047C00006F0C6F9A84206D214F00100EDD138BDBA
:1047D0004FF0FF30FBE76FF00100F8E7F7B51F4639
:1047E0004BBA090C064615468DF80400ADF80630A4
:1047F0008DF80510FFF7BEFFE8B104210DEB0100B5
:1048000006F0C4FA044648B945B1022E0BD0032E77
:104810000ED12846B9B206F0C3FA044606F0CAFA29
:10482000204603B0F0BD2846B9B206F0AFFAF4E76F
:104830004FF0FF34F2E74FF0FF34F1E706F00EBA25
:1048400000F58033B3F5002F10B5044612D283B2C1
:1048500083B9FFF7A5FF78B9FFF794FF60B9034666
:1048600002462146D820FFF7B9FF28B9BDE810401D
:10487000FFF796BF4FF0FF3010BD2DE9F04107461E
:104880000D461646FFF78CFF0446804638B1324687
:1048900000212846FBF7F2FD2046BDE8F0813346B3
:1048A0002A4639460320FFF799FF04460028F3D033
:1048B00032464146EDE72DE9F04107468846164667
:1048C00076B9FFF76DFF044638B9FFF753FF20B301
:1048D000042006F037FA06F06DFA2046BDE8F081B4
:1048E000FDB2C5F58075B54228BF3546FFF758FFC4
:1048F00004460028F1D1FFF745FF04460028ECD11B
:104900002B46424639460220FFF768FF044600283E
:10491000E3D1A8442F44761BD2E74FF0FF34DCE705
:1049200030B510F47F4F85B00190C0F30725C0F378
:1049300007420DD109B1304B9A5C13461146002055
:1049400063F3070061F30F2062F3174005B030BD39
:104950009DF80440002937D0274B995C0620FF239F
:1049600060435A1BB0FBF3F06FF05403434303EB77
:10497000440303EB4303DBB203FB05F4C3F1FF0382
:104980006B4324121B12C4F1FF04C3F1FF034A431B
:104990004C434B43C2F30722C4F30724C3F307235A
:1049A000C9B2062824D801A555F820F03F490008CF
:1049B000CD490008D3490008DD490008E74900084F
:1049C000F14900083F4900081146C7E70B46214658
:1049D000B5E718460B4611460246B0E70B461146AE
:1049E0001A462346ABE7184613460A460146A6E791
:1049F00013462246A3E700BF78E30008012184B0F4
:104A000004B0FFF78DBF012830B501D8C0B230BD6A
:104A1000B0F5F75F88BFFF224FF001049EBF420947
:104A20000832D2B2A3185910C3F34705C3F34F039A
:104A30005B439BB2984206D2013DEAB29442F1D95F
:104A4000013CE0B2E3E7FF2902D00135ECB2F5E723
:104A50000846DCE7074B188800EB402200EB820099
:104A600000F55850193080B2188000EB1020C0B209
:104A7000704700BF940D002010F0400216BFC343E2
:104A80000346DBB210B503F00F0102B10131094C4E
:104A9000C3F3011304EB4302527814F813304A4372
:104AA00003EB2213DBB2020644BF5B42DBB283F0AE
:104AB000800010BD60E30008144B84B003EB410399
:104AC000E421019093F84B30C0F307204B43C2EB35
:104AD00013231C33002BB8BF5B42A0EBC3031BB2F4
:104AE00023EAE373434300201B128DF80530019B3A
:104AF000DAB262F30700C3F3072262F30F20C3F3B5
:104B0000074363F3174004B0704700BF5D0C0020FB
:104B1000144B84B003EB4103E421019093F84B3034
:104B2000C0F307404B43C2EB13231C33002BB8BF29
:104B30005B42A0EBC3031BB223EAE37343430020B1
:104B40001B128DF80630019BDAB262F30700C3F343
:104B5000072262F30F20C3F3074363F3174004B047
:104B6000704700BF5D0C002084B0019000208DF8DC
:104B70000420019BDAB262F30700C3F3072262F359
:104B80000F20C3F3074363F3174004B070470000DE
:104B900084B0019000200B4B03EB410393F84B30A2
:104BA0009B1A8DF80430019BDAB262F30700C3F35D
:104BB000072262F30F20C3F3074363F3174004B0E7
:104BC000704700BF5D0C002084B0019000200B4BAB
:104BD00003EB410393F84C309B1A8DF80430019B92
:104BE000DAB262F30700C3F3072262F30F20C3F3C4
:104BF000074363F3174004B0704700BF5D0C00200B
:104C000030B5134B85B02431019003EB4104257975
:104C100003EB4103A5F1200464B2DB78002CBCBF98
:104C2000C5F120056CB29A1A2244C0B210448DF826
:104C300004000020019BDAB262F30700C3F30722ED
:104C400062F30F20C3F3074363F3174005B030BD91
:104C50005D0C002084B0019000209DF8102003EB33
:104C6000430302EB53038DF80430019BDAB262F385
:104C70000700C3F3072262F30F20C3F3074363F374
:104C8000174004B070471FB592B2019048B2002897
:104C900002FB02F2BCBF494248B2C0F1380000FB3F
:104CA000002080B21C46FFF7AEFE00EB400004443B
:104CB00000208DF80440019BDAB262F30700C3F3D1
:104CC000072262F30F20C3F3074363F3174004B0D6
:104CD00010BD000084B0019003F12400104B03EBE1
:104CE00040031879DB782038703B4B4302FB0032DD
:104CF00000209DF80430002AB8BF7F3203EBE21396
:104D00008DF80430019BDAB262F30700C3F3072287
:104D100062F30F20C3F3074363F3174004B07047F7
:104D20005D0C002084B0019003F12400104B03EBD4
:104D300040031879DB782038703B4B4302FB00328C
:104D400000209DF80430002AB8BF3F3203EBA213C5
:104D50008DF80430019BDAB262F30700C3F3072237
:104D600062F30F20C3F3074363F3174004B07047A7
:104D70005D0C00201FB5164C2433019004EB430456
:104D80002379E478203B5343A4F1700252B2002A05
:104D9000BCBFC4F1700462B2C2F1380201FB02313F
:104DA00011EB410148BF7F31C0B200EBE1108DF83B
:104DB00004000020019BDAB262F30700C3F307226C
:104DC00062F30F20C3F3074363F3174004B010BD31
:104DD0005D0C002030B50D4685B00190C4B2104680
:104DE000FFF74AFE124901EB450191F84B30C2181A
:104DF000D2B2A2F180035BB2002BBCBFC2F1800231
:104E000053B20C2200205B00DBB2534304EB1324AB
:104E10008DF80440019BDAB262F30700C3F3072266
:104E200062F30F20C3F3074363F3174005B030BDAF
:104E30005D0C0020114B84B0019003EB410393F80B
:104E40004B10C0B28B1A5BB2002BBCBF521A53B2CC
:104E50001822DBB2534300EB13208DF8040000202E
:104E6000019BDAB262F30700C3F3072262F30F205B
:104E7000C3F3074363F3174004B070475D0C002091
:104E8000C94384B00190C9B2C0F307404143002038
:104E900009128DF80610019BDAB262F30700C3F322
:104EA000072262F30F20C3F3074363F3174004B0F4
:104EB0007047C94384B0C1F38501019001440020CB
:104EC0008DF80410019BDAB262F30700C3F30722E6
:104ED00062F30F20C3F3074363F3174004B0704736
:104EE00084B003EB8302BDF81030019013449BB2F1
:104EF000FF2B28BFFF23DB43C0F30740DBB2034493
:104F0000FF2B28BFFF2300208DF80630019BDAB26B
:104F100062F30700C3F3072262F30F20C3F30743D2
:104F200063F3174004B0704700291FB5B8BF49426A
:104F3000002AB8BF524209B2090112B2FF294FEA52
:104F40000212A8BFFF21FF2AA8BFFF22BDF8184008
:104F500009B2234412B29BB29142D4BF5B189B1892
:104F60009BB2FF2B28BFFF23DB430190DBB2C0F3D2
:104F700007400344FF2B28BFFF2300208DF8063095
:104F8000019BDAB262F30700C3F3072262F30F203A
:104F9000C3F3074363F3174004B010BD1FB5482B9C
:104FA0000190C0F3074030D8BDF81840E31A9BB217
:104FB000FF2B28BFFF23083189B2102905D902F140
:104FC000080189B2112928BFFF23DB43DBB2184453
:104FD000002AB8BF0332FF2828BFFF208DF8060043
:104FE00000200B49497801EBA2028DF80420019BB7
:104FF000DAB262F30700C3F3072262F30F20C3F3B0
:10500000074363F3174004B010BDFF23D3E700BF8D
:10501000A02B002084B0BDF81020C0F30741D31AA4
:105020009BB2FF2B28BFFF23DBB2DA43D2B211447D
:10503000FF2928BFFF210190034400208DF8043090
:105040008DF80610019BDAB262F30700C3F3072262
:1050500062F30F20C3F3074363F3174004B07047B4
:1050600084B0BDF810200190D31A9BB2FF2B28BF4B
:10507000FF23DB43C0F30740DBB20344FF2B28BF11
:10508000FF2300208DF80630019BDAB262F307009F
:10509000C3F3072262F30F20C3F3074363F3174000
:1050A00004B07047024B1A7810431870704700BF65
:1050B0001A1E0020012310B5044C082217210448B1
:1050C0002370FFF75FF90023237010BD1A1E002024
:1050D000A02B002010B5044610B9C90FC80110BD9F
:1050E00080EAE072A2EBE07212B2002901EB020347
:1050F0000CDB891A490191FBF3F1C1F120014BB29C
:10510000D8B2002CBCBF4042C0B2E8E75B01521AE3
:1051100093FBF2F3C3F160035BB2F1E730B5C0F388
:10512000072585B0EB1A01901046DCB2FFF7D2FFDD
:10513000C0EB801300EB830004440020E4B26C4316
:1051400024128DF80540019BDAB262F30700C3F325
:10515000072262F30F20C3F3074363F3174005B040
:1051600030BD30B5C0F3074585B0EB1A019010464D
:10517000DCB2FFF7AFFFC0EB801300EB8300044409
:105180000020E4B26C4324128DF80640019BDAB291
:1051900062F30700C3F3072262F30F20C3F3074350
:1051A00063F3174005B030BD30B585B0C0F30725B7
:1051B00001909DF820001C1A1046FFF78BFF2C442D
:1051C000E4B2241A0020E4B26C4324128DF80540A6
:1051D000019BDAB262F30700C3F3072262F30F20E8
:1051E000C3F3074363F3174005B030BD30B585B056
:1051F000C0F3074501909DF820001C1A1046FFF7E8
:1052000069FF2C44E4B2241A0020E4B26C43241257
:105210008DF80640019BDAB262F30700C3F3072260
:1052200062F30F20C3F3074363F3174005B030BDAB
:105230001FB5019010461C46FFF74CFF03190020D4
:105240008DF80430019BDAB262F30700C3F3072242
:1052500062F30F20C3F3074363F3174004B010BD9C
:105260001FB501909DF818001C1A1046FFF732FF79
:10527000E4B2241A00208DF80440019BDAB262F3F4
:105280000700C3F3072262F30F20C3F3074363F35E
:10529000174004B010BD0000082208B517210348CC
:1052A000FFF728F80022024B1A7008BDA02B00203F
:1052B0001A1E002084B004B0FFF7A0BB2DE9F74F01
:1052C000DFF8D0A0C0EB00180AEB08035B5C0746D0
:1052D000FF2B0E462BD000252F4A90444FF0000B99
:1052E000C5EB051403F124090AEB04010AEB490993
:1052F000144411F801EBBEF1FF0F0ED0E8B2874263
:1053000018D15FFA8BF0864214D118F806002030CD
:10531000FF2828BFFF2008F806000BF1010BBBF1A6
:105320000F0F04F10104E4D10135052DD6D103B0EE
:10533000BDE8F08F0EF1240E0AEB4E0E9EF803C06E
:1053400099F803009EF804E0A0EB0C0099F804C063
:105350000191ACEB0E0C1FFA8CFC0CFB0CFC00FB5F
:1053600000C080B20093FFF74EFB2828009B0199F4
:10537000094AD2D8C0F1280080B2102828BF1020D6
:1053800094F800C0C0B26044FF2828BFFF202070FE
:10539000C3E700BF5D0C0020491E0020FFF77CBF63
:1053A00010B5084C35232046032200F8013B06497E
:1053B000FBF7FCF94FF67F73A380BDE81040FFF7C1
:1053C0006BBF00BFA02B00201CDC00080020704732
:1053D00070B504460E461546FFF7F8FF054BC4EBC3
:1053E000041423449B5DFF2B1EBF2B540130C0B21D
:1053F00070BD00BF5D0C0020014BDB68184700BF8B
:1054000068E3000810B4024C6468A44610BC60470E
:1054100068E3000837B5194B0446034493F8CF30CE
:10542000194229D0164B9A7859788DF80120DA78EC
:105430008DF80220FFF70EFB4FF4B47201F1B403B4
:10544000B3FBF2F502FB15335B1A48BF03339B1025
:1054500000F0030003FB00118DF800100098FFF727
:1054600029FFC0F30743C2B2C0F30721204603B0AF
:10547000BDE83040FFF7C6BF03B030BD5D0C002073
:10548000A02B002013B5134B0446034493F8CF30F0
:1054900019421CD0FFF7DEFA8DF80000FFF7DAFAA8
:1054A00040F357037F338DF801300B4BDB788DF8D9
:1054B00002300098FFF7FEFEC0F30743C2B2C0F30C
:1054C0000721204602B0BDE81040FFF79BBF02B0A5
:1054D00010BD00BF5D0C0020A02B0020014B9B687D
:1054E000184700BF68E300082DE9F04F534B87B021
:1054F000DC78534E04EB44034FEAA30B9B08019363
:10550000FF23B3FBF4F3009383785BB100221146D1
:105510001046FFF7E3FF4B2200214A48FAF7AEFF9F
:10552000002333700025484FDFF818A13B78013382
:105530003B70A4EB0B030293D0464FF00009327886
:105540005FFA89F31A4362D10393FAF7A3FE3F4B44
:105550009842039B5BDC8AF800402946184604AA5F
:10556000FFF736FF90B198F80020019B9DF81000DE
:105570009A425BD9A2EB0B030BFB03F3029A93FB5A
:10558000F2F32246DBB21946FFF73CFF09F10109AD
:10559000B9F1050F08F10F08D1D10135EDB20F2D8A
:1055A0000AF1010AC8D13B78009A934204BF002354
:1055B0003B7033780133DBB21C2B3DD900233370B1
:1055C000234E04233546671E304629460F22042BFE
:1055D00004D190F800C0644508BF077011F80FCCE3
:1055E000013AA44524BF01F80F7C0C7012F0FF02B1
:1055F00001F1010100F10100E9D1013B13F0FF03CA
:10560000A5F10F05E0D1002007B0BDE8F08F98F8B4
:105610000020002AA1D094429FD939780098814275
:1056200004BF02F1FF3288F8002096E76243B2FB24
:10563000FBF20023D2B2A6E73370E4E7A02B0020F0
:10564000191E0020491E0020181E00205455550523
:10565000851E00202DE9F04F85B007468846154687
:10566000FEF7CEF9814600284DD0002D4ED04146A0
:10567000384602AAFFF7ACFE0446334E3378234483
:10568000082B22DDC4F1080A611C52463144701C0B
:10569000FBF78CF804F109015246314406F1090088
:1056A000FBF784F806EB44014FEA4A02193106F190
:1056B0001900FBF77BF804F111015246314406F161
:1056C0001100FBF773F886F800A0002211469646F9
:1056D00002AB96F800B0DFF870C00193D0B200EBD7
:1056E0000B038442DBB213D811B1174B5C441C701E
:1056F0004DB1164B1B7803F0FC037C2B03D14146C4
:105700003846FFF7DBFD05B0BDE8F08F2C46B4E767
:1057100001990F4E11F801AB0CEB030001910AF156
:10572000240106EB4101CE780C3309790CEB4303DD
:1057300041724670494680F811A083F801E083F871
:1057400002E00132CAE700BF1B1E0020A02B002090
:105750005D0C00200120704708B5FFF7FBFF08BD76
:10576000C0EBC00043000020DBB203F10E02D2B256
:10577000422A63F30700134628BF422382B063F333
:105780000F2002B0704700002DE9F04F074689B0A6
:1057900000780291FFF7E4FFDFF8B8802E4BC4B227
:1057A0001D8898F80430C0F3072B5B085D432B4B32
:1057B000C5F3072503EB440603F1CF09E3B29B458C
:1057C00007D8BBF1410F8CBF0020012009B0BDE814
:1057D000F08F19F804207B781A4238D096F84B10D5
:1057E00096F84C2070391FFA81FA0AFB0AF0203A29
:1057F00092B202FB020080B20392FFF704F9009517
:10580000034698F801C098F8020098F803E0039A5C
:105810004CEA002012B20FFA8AF1DDF808C040EA23
:105820000E40E047C0F307238DF81C00C0F307408B
:105830008DF81D308DF81E000798FFF73BFDC0F373
:105840000743C2B2C0F307212046FFF7DBFD023653
:105850000134B3E7A02B0020A82B00205D0C002012
:105860000149FFF791BF00BFA95100080149FFF7A7
:105870008BBF00BFED5100080149FFF785BF00BF96
:10588000554C00080149FFF77FBF00BF6152000877
:105890002DE9F04F074685B00078FFF761FF8A4693
:1058A000DFF89480254B98F804501B886D085D4301
:1058B000234BC4B2C0F3072BC5F3072503EB440603
:1058C00003F1CF09E3B29B4507D8BBF1410F8CBF71
:1058D0000020012005B0BDE8F08F19F804207B7886
:1058E0001A4226D098F8023098F8010098F803C0C0
:1058F00096F84C2096F84B1040EA0320203A703975
:105900002B4640EA0C40D047C0F307238DF80C002B
:10591000C0F307408DF80D308DF80E000398FFF7A7
:10592000C9FCC0F30743C2B2C0F307212046FFF70A
:1059300069FD02360134C5E7A02B0020A82B00200A
:105940005D0C00200149FFF7A3BF00BF1D510008F7
:105950000149FFF79DBF00BF635100080149FFF7F0
:1059600097BF00BF874C00080149FFF791BF00BFF8
:10597000315200082DE9FF4706460078FFF7F0FE98
:1059800088461F4F1F4A3B7915889B0803FB055526
:10599000DFF874A0C0F30729C5F30725C4B2E1B24C
:1059A000894507D8B9F1410F8CBF0020012004B010
:1059B000BDE8F0871AF8042073781A421DD0BA782F
:1059C0007B78F87843EA022343EA00402A46C0473E
:1059D000C0F307238DF80C00C0F307408DF80D309D
:1059E0008DF80E000398FFF765FCC0F30743C2B2C1
:1059F000C0F307212046FFF705FD0134CFE700BFC4
:105A0000A02B0020A82B00202C0D00200149FFF71F
:105A1000B1BF00BFB94A00080149FFF7ABBF00BFE3
:105A2000114B00080149FFF7A5BF00BF694B0008F3
:105A30000149FFF79FBF00BF914B00080149FFF7E5
:105A400099BF00BFC94B00080149FFF793BF00BFD2
:105A5000014C00080149FFF78DBF00BFD54D00087C
:105A60000149FFF787BF00BF354E00082DE9F04F11
:105A7000804689B00078FFF773FEDFF8A490294BC9
:105A800099F804401B88A4085C43C4F30724C6B2F9
:105A9000C0F3072504F14000C0B28A46FEF7ECFFD0
:105AA000803843B220460393FEF7E6FFDFF878B074
:105AB000A0F180077FB2F3B29D4206D8412D8CBF82
:105AC0000020012009B0BDE8F08F1BF8061098F8FF
:105AD0000120114222D0009499F8022099F8010087
