:020000040800F2
:1000000000040020B9010008BB010008BB01000882
:10001000BB010008BB010008BB010008BB010008D0
:10002000BB010008BB010008BB010008B9BA000809
:10003000BB010008BB010008BB010008A5CC0008FB
:10004000BB010008BB010008BB010008BB010008A0
:10005000BB010008BB0100081D2E0008652E00082A
:10006000A52E0008E92E00082D2F0008BB0100086E
:10007000BB010008BB01000875D3000891D500083A
:10008000712F0008BB010008BB010008BB0100087C
:10009000BB010008BB010008BB010008BB01000850
:1000A000BB010008BB01000861CF000875CF000844
:1000B000BB010008BB010008BB010008BB01000830
:1000C000C5CC000811300008BB01000895D5000818
:1000D000BB010008BB010008BB010008BB01000810
:1000E00072B6264880F30888254880F30988254899
:1000F00025490860022080F31488BFF36F8F0BF04E
:1001000053FA0BF02DF84FF0553020491B4A91421D
:100110003CBF41F8040BFAE71D49194A91423CBF24
:1001200041F8040BFAE71B491B4A1C4B9A423EBF9D
:1001300051F8040B42F8040BF8E700201849194A5B
:1001400091423CBF41F8040BFAE70BF031FA0BF097
:100150002CFA154C154DAC4203DA54F8041B8847B1
:10016000F9E706F01BF8124C124DAC4203DA54F8D2
:10017000041B8847F9E70BF019BA000000040020BF
:10018000000C00200000000808ED00E00000002046
:10019000000400202CF60008000C0020D0100020E5
:1001A000D0100020CC350020E0000008E00000085E
:1001B000E0000008E000000892E700F000F8FEE729
:1001C0002DE9F04FC1F80CD0C3689D46BDE8F08F13
:1001D000002383F311882846A04700200BF0ECFB96
:1001E000FEE70BF01FFB00DFFEE7000053B94AB942
:1001F000002908BF00281CBF4FF0FF314FF0FF302F
:1002000000F074B9ADF1080C6DE904CE00F006F809
:10021000DDF804E0DDE9022304B070472DE9F04782
:100220008C460446089E002B40F086808A42154684
:1002300048D9B2FA82F24AB1C2F1200701FA02F3B8
:1002400020FA07F7954047EA030C94404FEA154E11
:10025000BCFBFEF71FFA85F80EFB17C307FB08F976
:10026000210C41EA0343994509D9EB1807F1FF3105
:1002700080F0E180994540F2DE80023F2B44A3EB01
:100280000903B3FBFEF00EFB103300FB08F1A4B230
:1002900044EA0344A14209D92C1900F1FF3380F04C
:1002A000C880A14240F2C58002382C4440EA074091
:1002B0000027641A1EB10023D440C6E90043394622
:1002C000BDE8F087002A54D0B2FA82F2002A40F04A
:1002D000B4800127491B4FEA15481FFA85F9B1FB85
:1002E000F8FE08FB1E1109FB0EF04FEA144C4CEA15
:1002F0000143984207D9EB180EF1FF3102D2984220
:1003000000F2EB808E461B1AB3FBF8F008FB1033AB
:1003100009FB00F9A4B244EA0344A14507D92C190A
:1003200000F1FF3302D2A14500F2DB801846A4EBB6
:10033000090440EA0E40BDE78B4208D9002E75D073
:100340000027C6E9000138463946BDE8F087B3FA10
:1003500083F77FB98B4202D3824200F2BC80841AB9
:1003600061EB030301209C46002EA8D0C6E9004C97
:10037000A5E7FFDEC7F12005BB4022FA05FC4CEAE9
:10038000030C21FA05F44FEA1C4EB4FBFEF91FFAE8
:100390008CF80EFB194420FA05F3B94009FB08FA62
:1003A00019430B0C43EA0444A24502FA07F200FA8F
:1003B00007F30BD91CEB040409F1FF3080F08980AE
:1003C000A24540F28680A9F102096444A4EB0A0424
:1003D000B4FBFEF00EFB104400FB08FA89B241EAC0
:1003E0000444A24508D91CEB040400F1FF316CD28F
:1003F000A2456AD90238644440EA0940A0FB028958
:10040000A4EB0A044C454146CE4655D352D0002EAB
:100410006AD05A1A64EB0E0404FA05F522FA07F3BF
:10042000FC401D43C6E90054002748E737463046E4
:1004300045E718463AE70F4621E79540C2F1200309
:1004400021FA03F04FEA1548B0FBF8F71FFA85F9D7
:1004500008FB170E24FA03FC914007FB09FA4CEA4B
:100460000101080C40EA0E40824504FA02F407D963
:10047000281807F1FF332AD2824528D9023F2844A1
:10048000A0EB0A00B0FBF8FC08FB1C000CFB09F316
:1004900089B241EA00418B4208D969180CF1FF305A
:1004A00011D28B420FD9ACF1020C2944C91A4CEA83
:1004B000074714E74345AAD2B8EB020169EB0C02E7
:1004C00001389646A3E78446F0E7084694E71F46BE
:1004D000D6E781467AE7384646E7AEF1020E2B446E
:1004E00011E702382C4422E73746E8E6704700BFA0
:1004F00008B5062000F0C2FA01200CF01BFA00BF7C
:10050000024B0146186800F055B900BF000C0020EE
:10051000024B0146186800F0F9B800BF000C00203B
:10052000032A70B412D940EA0105AD0704460B4610
:1005300020D11946204653F8045B54F8046BAE42B0
:1005400018D1043A032A20461946F2D8541E72B133
:1005500003780A789A4208BF241806D00CE010F8F5
:10056000013F11F8012F934206D1A042F7D100209C
:1005700070BC7047541EEBE7981A70BC704700BF00
:10058000844641EA000313F0030349D1403A23D3E0
:100590000B6803604B6843608B688360CB68C36003
:1005A0000B6903614B6943618B698361CB69C361EB
:1005B0000B6A03624B6A43628B6A8362CB6AC362D3
:1005C0000B6B03634B6B43638B6B8363CB6BC363BB
:1005D00040304031403ADBD230320BD30B680360FD
:1005E0004B6843608B688360CB68C3601030103108
:1005F000103AF3D20C3205D351F8043B40F8043BD7
:10060000043AF9D2043208D0D2071CBF11F8013BDA
:1006100000F8013B01D30B8803806046704700BFA0
:10062000082A13D38B07B1D010F00303AED0C3F167
:100630000403D21ADB071CBF11F8013B00F8013B91
:10064000A4D331F8023B20F8023B9FE7043AD9D308
:10065000013A11F8013B00F8013BF9D20B78037025
:100660004B7843708B78837060467047F0B4860790
:1006700046D0541E002A3CD0CAB2034602E014F110
:10068000FF3436D303F8012B9D07F8D1032C29D969
:10069000CDB245EA05250F2C45EA054533D9A4F12D
:1006A0001006360903F1200707EB061703F11002C5
:1006B00042E9045542E902551032BA42F8D1721C9F
:1006C00014F00C0F03EB021204F00F0613D0331FCB
:1006D00023F003030433134442F8045B9342FBD139
:1006E00006F003042CB1C9B21C4403F8011B9C4260
:1006F000FBD1F0BC704734461346002CF3D1F8E729
:1007000014460346C2E71A462646E0E700293AD0D7
:1007100038B551F8043C0C1F002BB8BFE41805464F
:1007200000F05AFA224B1A682AB1A2420DD9216868
:100730006018824221D0626028461C60BDE83840C3
:1007400000F04CBAA34203D81A465368002BF9D1E3
:1007500011685018A04217D022D82168601883422F
:1007600003BFD3E900030918C4E9001363605460B0
:100770002846BDE8384000F031BAD2E90002014411
:10078000C4E90012D8E7704720680144501883423A
:100790001160EDD1D3E900030144C2E90013E7E79A
:1007A0000C2328462B60BDE8384000F017BA00BF84
:1007B000D0100020F8B5CD1C25F0030508350C2D10
:1007C00038BF0C25002D064633DBA94231D82A4F0D
:1007D00000F002FA3A6852B113685B1B04D43FE0A0
:1007E00023685B1B29D522465468002CF8D1796810
:1007F00000293BD0294630460CF080F8431C28D015
:10080000C41C24F00304A04205D0211A30460CF089
:1008100075F801301DD02560304600F0DFF904F195
:100820000B0020F00700231DC21A01D01B1AA35091
:10083000F8BD0C2200203260F8BD0B2B05D8A24277
:10084000636811D05360E7E7144623601C442560B9
:10085000E2E70C233046336000F0C0F90020F8BD19
:100860000B2BF1D8144653683B60D5E730460CF0AB
:1008700045F87860BEE700BFD010002038B5124BB5
:1008800005461C68A06B18B10023C0E9045338BDAD
:100890001820FFF735FEA06378B101220023C0E9DC
:1008A00004230A4B0B24836000230949094A8481ED
:1008B000C0E90012C0E9045338BD0246064B42218C
:1008C000064800F041F900BF000C0020ECDE0500F6
:1008D0000E33CDAB34126DE65CF5000874F50008FC
:1008E00038B51A4B1C68A26B92B114691849536948
:1008F00001FB04F1174800FB0313A4FB0045611C36
:100900001D4445F1000323F00040C2E9041338BD43
:100910001820FFF7F5FD0246A06388B101240025E9
:100920000B21C0E904450C4B0948136003460B4DED
:100930000B4C91810B49C2E90154C2E9041338BD43
:10094000094B4E21094800F0FFF800BF000C0020C1
:100950002DF451582D7F954C0E33CDAB34126DE6EE
:10096000ECDE05002E7F954C5CF5000874F5000860
:1009700010B580210446FFF71DFF606440B10022DE
:10098000031F7C3043F8042F8342FBD1002010BDAD
:100990004FF0FF3010BD00BF436C0BB1002070471B
:1009A000E6E700BF1F2970B5054608D8436C164618
:1009B0000C464BB153F8240043F8246070BD162256
:1009C0004FF0FF302A6070BDFFF7D2FF08B96B6CA3
:1009D000F0E74FF0FF3070BD1F2938B5054620D82D
:1009E000426C0C466AB152F8213053B1012B16D03B
:1009F000591C10D00025204642F82450984728461C
:100A000038BD284600F070F8224601462846BDE869
:100A1000384000F055B8162301202B6038BD002067
:100A200038BD16234FF0FF302B6038BD1F2921D869
:100A300038B5436C05460C4683B153F8242003EBCC
:100A400084034AB1511C10D0012A0CD00025204645
:100A50001D609047284638BD012038BDFFF788FF4C
:100A600028B96B6CE9E7032038BD022038BD4FF090
:100A7000FF3038BD4FF0FF30704700BF024B0146DA
:100A80001868FFF7A9BF00BF000C0020024B0A4600
:100A900001461868FFF786BF000C0020034B18685A
:100AA000436C0BB10020704762E700BF000C0020D0
:100AB000024B01461868FFF7B9BF00BF000C0020C9
:100AC00070B50D460023074C0646114628462360A4
:100AD0000BF038FF431C00D070BD2368002BFBD007
:100AE000336070BDC83500200BF034BF20F0030127
:100AF00010F00300C0F1000051F8043B00F1040CB9
:100B00004FEACC0C6FF000021CBF22FA0CF2134328
:100B10004FF0010C4CEA0C2C4CEA0C4CA3EB0C02F1
:100B200022EA030212EACC1204BF51F8043B04305B
:100B3000F4D0C2F1000102EA0102B2FA82F2C2F17B
:100B40001F0200EBD200704700B50A4C0546206832
:100B500085B01C46C06852B1074BCDE90132009107
:100B60002B462246054900F023F8FFF7C1FC044B51
:100B70001A46F2E7000C0020A8F50008B8F50008B6
:100B8000B4F5000808B513460022FFF7DDFF00BFEB
:100B90000CB410B582B004AC54F8042B2346019475
:100BA00000F060F802B0BDE8104002B0704700BF2E
:100BB0000EB430B582B005AC54F8042B054D014697
:100BC00023462868019400F04DF802B0BDE830409B
:100BD00003B07047000C0020704700BF704700BF93
:100BE0009368013B002B93600FDA10B49469A34221
:100BF00008DB0A2906D01368581C106019700846D3
:100C000010BC704710BC00F07BBB1368581C106010
:100C100019700846704700BF9BB1F8B513440F46E2
:100C200006465D1E541E01E0AC4208D03A4614F858
:100C3000011F3046FFF7D4FF431CF5D1F8BD00205B
:100C4000F8BD0020704700BF936810B5144613B973
:100C50005360184610BD00F013FE0023C4E90133B1
:100C600010BD00BF2DE9F04F9FB08B4690461C464B
:100C7000039018B18369002B00F0B980A34B9B450A
:100C800000F0BB80A24B9B4500F0C980A14B9B4567
:100C900004BF039BD3F80CB0BBF80C30180740F12D
:100CA000B480DBF81030002B00F0AF80302300213F
:100CB00020228DF8323098F8003005940B918DF891
:100CC0003120954E0127002B00F08980252B00F064
:100CD0001781454603E0252B00F0A58025466B785B
:100CE0006C1C002BF7D1B4EB080A78D0424653466F
:100CF00059460398FFF790FF013070D00B9B6A783C
:100D000053440B93002A6AD000234FF0FF32013482
:100D10000693CDE908338DF85B301C93079206E00B
:100D20002C46069B801B07FA00F0184306902546C8
:100D3000052215F8011B304600F0E6FFAA46002800
:100D4000EED1069BD90644BF20228DF85B201A07FE
:100D500048BF2B22217848BF8DF85B202A2967D114
:100D6000059A1168043200290592C0F29E8009910B
:100D70006178A51C2E2974D0684C0322204600F00F
:100D8000C3FF002800F087804022069B001B02FA68
:100D900000F00343069305F101082B78062219465B
:100DA0005F488DF8303000F0AFFF002800F08380FE
:100DB0005C4B002B72D005AB00935A465A4B06A9E8
:100DC0000398AFF300808146B9F1FF3F07D00B9B3A
:100DD0004B440B9398F80030002B7FF477AFBBF8AF
:100DE0000C305B0618D40B981FB0BDE8F08F00F0F4
:100DF00027FD464B9B457FF445AF039BD3F804B0DA
:100E0000BBF80C3018073FF54CAF5946039800F07B
:100E1000D7FA00283FF44AAF4FF0FF30E4E7039BD6
:100E2000D3F808B038E7B4EB080A3FF46DAF5DE7DC
:100E3000A1F13002092A88BFA2469BD8099B01E094
:100E40002C460135297803EB830302EB4303A1F120
:100E50003002092AAA46F3D92E2904F10205099382
:100E60008AD19AF801102A292FD1059B0AF1020094
:100E70001A680433002A079205939AF802100AF1BF
:100E8000030538DB254C82460322204600F03CFF58
:100E900000287FF479AFA84655467EE7059B0733C7
:100EA00023F007030833059391E7494243F0020317
:100EB000099106935CE705AB00935A461A4B06A9C5
:100EC000039800F0D3F881467EE70023A1F13002B9
:100ED000092A079301D915E05546697803EB830386
:100EE00002EB4303A1F13002092A05F1010AF3D90B
:100EF0000235079340E74FF0FF33824607933BE705
:100F0000444601E7AA46013536E700BF4CE8000831
:100F10002CE800080CE80008E8F50008F0F50008E7
:100F2000F4F5000800000000190C000810B4044C8F
:100F300013460A460146206810BCFFF793BE00BF67
:100F4000000C00202DE9F0470C460969A568914680
:100F50008D42B8BF0D46156094F8431006461F46F3
:100F6000DDF8208011B16A1CC9F8002023689906B9
:100F70005CD5D9F800200232C9F80020236813F0AC
:100F8000060F19461DD1E1688A1A002AD8BF1946F2
:100F900017DD002504F1190A05E0E368D9F80020FF
:100FA0009B1AAB420CDD0123524639463046C047FE
:100FB000013005F10105F0D14FF0FF30BDE8F087B9
:100FC000216894F84330003318BF01238A060AD5FC
:100FD0003021E21882F8431094F845105A1C22443C
:100FE00082F84310023304F1430239463046C047C9
:100FF0000130E1D02368A26803F00603042B2169C5
:101000001DD08A4226DD4FF00009521A9144002576
:101010001A3401E04D451DDA012322463946304697
:10102000C047013005F10105F4D1C5E713F0060F03
:1010300013D094F84330003318BF0123D3E7D9F815
:101040000000E3688A42A3EB000323EAE379DCDCD7
:10105000002BDCDC0020BDE8F087E168D9F8002037
:101060008A1A002AD8BF194693DCAAE72DE9F04373
:101070000C46097E85B06E2906461746984604F14F
:10108000430C0C986DD039D9732900F0F48044D901
:10109000752900F00281782940F00F8178232268B9
:1010A000DFF854E284F845300168150651F8043B36
:1010B000016040F1A180D10744BF42F020022260CC
:1010C000002B00F093801022002184F84310606808
:1010D0000028A060C0F2C680216821F004012160D0
:1010E000002B40F0A280002840F0BE806546082A10
:1010F00000F0AB80ACEB0503236141E0632900F015
:10110000E3801AD8002938D0582940F0D68084F8D6
:1011100045102268DFF8E4E1C6E76F2900F0BD80E2
:10112000702940F0CA8078232268DFF8CCE142F0D1
:101130002002226084F84530B6E7642902D069298C
:1011400040F0BB8022680368110603F1040557D5FF
:10115000196805600B46002959DB0A22DFF89CE17B
:10116000B5E7036822681D1D6169056015061B68E7
:1011700002D4500600F1BB8019600023654623614C
:10118000CDF800803B4603AA21463046FFF7DAFE41
:10119000013020D02A46236939463046C047013005
:1011A00019D0226803989207E36819D51A1A002A01
:1011B00016DD002504F1190904E0E36803981A1A02
:1011C000AA420DDD01234A4639463046C047013068
:1011D00005F10105F1D14FF0FF3005B0BDE8F08316
:1011E0009842B8BF184605B0BDE8F08321681022C8
:1011F00021F02001216067E7500648BF9BB25AE703
:101200005106A5D5B3F9003005601946A3E72D2096
:1012100061685B42002984F84300A16002DB22F090
:10122000040222600A22DFF8D4E0654600E00B46A3
:10123000B3FBF2F102FB11301EF80000934205F8F7
:10124000010DF4D2082A7FF455AF2368DB077FF540
:1012500051AF626823699A423FF74CAF3023013D9A
:101260002B7047E7002BE0D19EF8003004F14205D7
:1012700084F842303BE703686268191D01601D680D
:101280000021284600F040FD002832D0401B60605D
:101290002061002384F8433072E72268036812F06B
:1012A000800F03F104051AD01B6805606F290CBF7D
:1012B00008220A22DFF844E006E7012384F84210FE
:1012C000236104F14205E4E70122036804F14205C9
:1012D000191D1B68016084F842302261D9E712F0C1
:1012E000400F0DBF1B6805601B880560DEE7198095
:1012F00043E76068CCE700BF10F60008FCF5000883
:10130000F8B50D461446064608B1836943B3254B2C
:101310009C422AD0244B9C4229D0244B9C4208BF9B
:10132000F468A269A389A2601A0722D5236903B3CE
:1013300022686169D31AEDB299422F4629DD013343
:10134000A168501C0139A1602060157062699A4241
:1013500016D0A389DB0701D50A2D11D03846F8BD78
:1013600000F06EFA0F4B9C42D4D17468D9E7B46890
:10137000D7E72146304600F023F838B92369D7E78C
:101380002146304600F032F90028E7D04FF0FF3711
:10139000E4E72146304600F029F90028F6D1012380
:1013A0002268CDE74CE800082CE800080CE80008AB
:1013B000024B0A4601461868FFF7A2BF000C002046
:1013C0003B4B70B51D6806460C460DB1AB69DBB1F1
:1013D000384B9C421ED0384B9C424AD0374B9C42E3
:1013E00008BFEC68B4F90C2093B2190718D520692E
:1013F00008B313F001022CD000226369A2605B42A3
:10140000A36160B3002070BD284600F019FA294B93
:101410009C42E0D16C68B4F90C2093B21907E6D471
:10142000DD063CD5580726D4206942F00803A38185
:101430009BB20028DDD103F42072B2F5007FD8D032
:101440003046214600F016FCA389206913F0010202
:10145000D2D1990758BF6269A2600028D2D1B4F9ED
:101460000C301A06CFD543F04003A3814FF0FF3074
:1014700070BDAC68B6E7616B51B104F144039942A9
:1014800004D03046FFF742F9B4F90C20002363631F
:101490000023206922F02402C4E90003C5E70923E0
:1014A00042F0400233604FF0FF30A28170BD00BFB8
:1014B000000C00204CE800082CE800080CE80008AC
:1014C0002DE9F0418F890C463A07804641D44B689C
:1014D000002B59DDE66A002E53D0002317F480520A
:1014E000D8F80050216AC8F8003051D10123404695
:1014F000B047431C5FD0A789E66A216A7F0705D5FC
:101500006268636B801A0BB1236CC01A0246002319
:101510004046B047461C45D1D8F80030B4F90C20FD
:10152000002B55D01D2B01D0162B5AD10022236938
:10153000C4E90032616BC8F8005011B304F14403F0
:10154000994202D04046FFF7E1F800206063BDE811
:10155000F0810E69AEB10D680E60B90714BF0023AB
:101560006369AD1BA3600AE02B463246A76A216A75
:101570004046B8470028A5EB000506440ADD002DCB
:10158000F2DC0020BDE8F0810B6C002BA2DCF8E758
:10159000606DB3E7A3894FF0FF3043F04003A381B0
:1015A000BDE8F081002322696360A3892260DA0428
:1015B000C0D56065BEE7D8F80030002B9BD01D2B4E
:1015C0000CD0162B0AD0A38943F04003A381D9E79E
:1015D0002169C4E90013D304ACD5EAE7C8F8005088
:1015E000CFE742F04002A281CCE700BF0B6923B3F2
:1015F00010B5044682B008B18369BBB1104B994263
:1016000012D0104B994216D00F4B994208BFE16897
:10161000B1F90C302BB1204602B0BDE81040FFF705
:101620004FBF002002B010BD6168F1E7019100F0EA
:1016300007F90199E2E7A168EAE70020704700BFD7
:101640004CE800082CE800080CE8000820B1054B25
:1016500001461868FFF7CABF034B0449186800F039
:10166000B3BA00BF000C002008E80008ED15000820
:1016700000207047014900F0A7BA00BFED1500082F
:101680000020704770B568254A1E05FB02F50E461E
:1016900005F17401FFF78EF8044640B100210C30CB
:1016A000666005F168022160A060FEF7DFFF20465A
:1016B00070BD00BF1E4B70B51D680646AB6943B3D5
:1016C0004835D5E90134013B05D51EE0013B5A1CE4
:1016D00004F1680419D0B4F90C20002AF6D10025D1
:1016E000144B6566C4E90055A560C4E90455A561BD
:1016F0002946E360082204F15C00FEF7B7FFC4E965
:101700000D55C4E91255204670BD2C682CB12546F4
:10171000D7E7284600F010F8D2E704213046FFF75B
:10172000B1FF044628600028F1D10C233360EAE7BA
:1017300008E800080100FFFF2DE9F84F0023334AB5
:10174000C0E9123312680365904208BF0123304993
:1017500008BF836181620546FFF7ACFF68602846D9
:10176000FFF7A8FFA86028460024FFF7A3FF042383
:101770006E68E8602146F3607466C6E90044B460B0
:10178000C6E90444B46106F15C000822FEF76EFF6E
:10179000DFF888B0AF68DFF888A0DFF88890DFF85E
:1017A00088801C4BC6E9086BC6E90AA9C6F83080D8
:1017B0002146FB6008227C66C7E90044BC60C7E99B
:1017C0000444BC6107F15C00FEF750FFEE68124B69
:1017D000C7E9087BC7E90AA9C7F830802146F3604A
:1017E0007466C6E90044B460C6E90444B46106F115
:1017F0005C000822FEF73AFF0123C6E9086BC6E940
:101800000AA9C6F83080AB61BDE8F88F08E8000887
:10181000751600080900010012000200AD1E000844
:10182000D51E0008151F0008351F0008024B03498C
:10183000186800F0C9B900BF08E80008ED150008F5
:10184000836903B978E77047704700BF704700BFEE
:10185000704700BF704700BF024B0349186800F093
:101860008FB900BF000C002071160008024B03491D
:10187000186800F085B900BF000C00208116000830
:101880009368002B00F0FC802DE9F04FB1F90C308B
:101890000C469BB2190783B0824690462BD522692D
:1018A0004AB313F00202D8F8006033D000273D4657
:1018B000D4F828B0216ADFF8C492C5B14D452B4653
:1018C0003A4628BF4B465046D847002840F3CE80C2
:1018D000D8F8083007441B1A2D1AC8F80830002B16
:1018E00000F0B380D4F828B0216A002DE6D1D6E903
:1018F00000750836E1E721465046FFF761FD0028F4
:1019000040F03781B4F90C30D8F800609BB213F086
:101910000202CBD113F0010940F0B4804D46A76814
:101920002068002D55D09A0540F1C080AF42BB46DB
:1019300000F2EE8013F4906F2FD0D4E9041707EB78
:101940004707A0EB010B07EBD777681C7F105844C3
:10195000B8423A4684BF07463A465B0540F1F080FC
:1019600011465046FEF726FF002800F0FC805A463C
:1019700021690190FEF704FEA289019B22F4906286
:1019800042F08002A281A7EB0B0203EB0B00676120
:10199000AB462F4623612060A2605A46494600F0BC
:1019A000F9F92368A2685B44AB460025D71BA76002
:1019B0002360D8F80870D944A7EB0B07C8F8087063
:1019C000002F42D0B4F90C30A7689BB22068002DDC
:1019D000A9D1D6E900950836A3E70BF1080353F81F
:1019E000047C9B4653F8086C0833002FF7D03A4626
:1019F0000A21304600F088F9002854D00130A0EBCD
:101A000006094B4620682169BB4228BF3B468842F5
:101A1000626903D9A5681544AB421ADC9A4200F307
:101A200081801346A56A3246216A5046A847051EA2
:101A30001CDDB9EB05096ED00120D8F808302E4422
:101A40005B1B7F1BC8F8083013BB002003B0BDE848
:101A5000F08F31462A4600F09DF9236821462B4439
:101A600023605046FFF7C2FD0028E2D0B4F90C30E5
:101A70004FF0FF3043F04003A38103B0BDE8F08F87
:101A80000020704733469146104617464E469B4607
:101A9000002FA2D00028B4D13A460A21304600F0E7
:101AA00033F90028AAD17B1C9946ABE7236983420E
:101AB00017D36269AA4214D82F4BA76A9D4294BFDC
:101AC0002B466FF0004393FBF2F3216A02FB03F312
:101AD00050464A46B847B0F1000BC7DDA5EB0B05F1
:101AE00067E7AF4228BF2F4649463A4600F052F911
:101AF000A3682268DB1B3A44BB46A3602260002B2C
:101B0000ECD121465046FFF771FD0028E6D0ADE745
:101B10002F46AB4641E721465046FFF767FD0028B8
:101B20008BD0A3E71A4631461D46019300F032F9E7
:101B3000A1682268019BC91A1344A160236078E759
:101B4000504600F08DF9034600287FF41CAF216950
:101B50005046FEF7DBFD0C22B4F90C30CAF8002029
:101B600023F0800384E70C22B4F90C30CAF800207B
:101B70007EE74FF0FF3069E7FEFFFF7F00FCFF7F4D
:101B80002DE9F04110F148071AD088460026D7E920
:101B90000154013D0ED4A389013D012B06D9B4F9AE
:101BA0000E30013302D02046C04706436B1C04F1BF
:101BB0006804F0D13F68002FE9D13046BDE8F081DC
:101BC0003E463046BDE8F0812DE9F84310F1480665
:101BD0001ED0884607464FF00009D6E90154013D62
:101BE00010D4A389013D012B08D9B4F90E3001337B
:101BF00004D021463846C04749EA00096B1C04F16D
:101C00006804EED13668002EE7D14846BDE8F88377
:101C1000B1464846BDE8F88370B50C46B1F90E10E0
:101C200096B0002916461D4613DB6A460AF073FE7D
:101C300000280EDB019A4FF4806302F47042A2F593
:101C40000052B2FA82F2002052092A60336016B0C4
:101C500070BD0022A3892A601B0604D54023002002
:101C6000336016B070BD4FF480630020336016B04F
:101C700070BD00BF8A890B46920706D5012103F18A
:101C8000470259611A601A61704770B582B001ABA2
:101C90006A460C460646FFF7BFFF009905463046E8
:101CA000FEF788FDB4F90C3070B1164A0099B262A3
:101CB000019A43F08003A3812060C4E904018AB93A
:101CC0002B43A38102B070BD9A05FBD4012123F000
:101CD000030304F1470243F00203A3816161226020
:101CE0002261EFE73046B4F90E100AF020FE10B979
:101CF000B4F90C30E4E7A38923F0030343F00103B4
:101D00001BB2DDE775160008830770B4CDB23DD075
:101D1000541E0AB30378AB421FD0431C05E014F1F4
:101D2000FF3419D30278AA4217D013F0030F1846D4
:101D300003F10103F3D1032C11D84CB30378AB4268
:101D40000BD00444431C02E00278AA4205D09C4216
:101D5000184603F10103F7D1002070BC704702461A
:101D60000E02B6B22E4346EA06461368104673408A
:101D7000A3F1013121EA030313F0803F02F10402D1
:101D8000DCD1043C032C1046EFD8D6E71446D2E74A
:101D90002046E2E78842F0B40DD98B1883420AD975
:101DA000841832B1224613F8014D994202F8014DD0
:101DB000F9D1F0BC70470F2A0ED80346541E002AF2
:101DC000F7D001340C44013B11F8012BA14203F878
:101DD000012FF9D1F0BC704740EA01039B073AD1CB
:101DE000A2F110073F0901F1200606EB071601F1E9
:101DF000100300F1100453F8105C103344F8105C29
:101E000053F81C5C103444F81C5C53F8185C44F81C
:101E1000185C53F8145CB34244F8145CEBD17B1C9F
:101E20001B0112F00C0F194402F00F05034415D0EA
:101E30000E46043DAD0803EB850C1C1F56F8047BD1
:101E400044F8047F6445F9D10135AD002B442944A1
:101E500002F00302B2E7541E0346B2E72A46ADE79A
:101E600009B3F8B51446CAB106460D4600F066F847
:101E7000A04202D32F463846F8BD21463046FEF731
:101E800099FC07460028F6D022462946FEF778FB43
:101E900030462946FEF73AFC3846F8BD2746FEF79D
:101EA00035FC3846F8BD1146FEF784BC10B50C462B
:101EB000B1F90E100AF017FD002803DB636D03442F
:101EC000636510BDA38923F48053A38110BD00BFB7
:101ED000002070472DE9F041B1F90C409846E30528
:101EE0000D461746B1F90E10064609D424F4805465
:101EF000AC8143463A463046BDE8F0410AF0FABCB0
:101F0000022300220AF0F4FCB5F90C40B5F90E10DA
:101F1000ECE700BF10B50C46B1F90E100AF0E8FC72
:101F2000A389421C0EBF23F4805343F480536065A1
:101F3000A38110BDB1F90E100AF0DEBC51F8043CCB
:101F4000181F002BBCBF0B58C01870470E4A002347
:101F5000114610B5147C84420FD11C225343CA1879
:101F6000906848B1CB58FF2818BF43434FF0010099
:101F700018BF5B000133536010BD0133072B02F122
:101F80001C02E7D10020F7E7500E0020F0B50A4D03
:101F900000242E462F7C874207D11C2000FB0464BE
:101FA000012061762276A376F0BD0134072C05F17D
:101FB0001C05EFD10020F7E7500E0020094A30B58C
:101FC00000231446157C854205D11C22012002FB0A
:101FD0000343996030BD0133072B02F11C02F1D19C
:101FE0000020F7E7500E0020094A30B500231446C0
:101FF000157C854205D11C22012002FB0343596058
:1020000030BD0133072B02F11C02F1D10020F7E7AC
:10201000500E002070B50B4C00232546267C8642CE
:1020200009D11C204343E818E95000238260C360B3
:102030004374012070BD0133072B04F11C04EDD162
:102040000020F7E7500E002001207047F8B500256A
:102050002E46264C6368002B45D0E068C8B9637CE7
:10206000B3FA83F35B09637408F0FCFCD4E9002342
:102070009342E06027D266606674E66063690BB1E4
:10208000207C98470135072D04F11C04E2D1012082
:10209000F8BD08F02DFD23689842E0D26368002B5C
:1020A000ECD02046FFF7D0FF0028EBD0637C207CEB
:1020B0008BB1FF28677E217EA37E07D00A46394672
:1020C00005F056FCDEE79B1A6360E7E71A463846E0
:1020D00006F0EAFAD6E7FF281A4601D01946EFE7DC
:1020E00019461846F4E76374E360CBE7500E00200E
:1020F00007B503788DF8003043788DF80130837888
:102100008DF8023003798DF80330C37868468DF876
:1021100004300CF0E9F903B05DF804FB704708B532
:10212000FFF7FCFF00BF00BF00BF00BF00BF00BF44
:1021300000BF00BF00BF00BF00BF00BF00BF00BFA7
:1021400000BF00BF00BF00BF08BD08B500F0D8FF4A
:1021500008BD000008B5054C20780BF0CFFC2078B6
:10216000FFF7F3FF052009F02CFCF5E7083200200B
:102170004FF4807310B5064C23800123A37008F040
:1021800071FC044B18602068BDE8104003F04FBBA1
:1021900008320020DC10002010B5064C0122204639
:1021A00002210AF048FD0223A361BDE8104001F0BE
:1021B00053B800BF00040040012070470F4B10B51A
:1021C0001C78BCB903F024FA03F038FA03F0EAF9FA
:1021D00003F064FA204608F0CDFA204608F0E6FA4B
:1021E0000BF082FC0028FBD1BDE8104044F62060D3
:1021F00009F0E7BB0CF07CF9F2E700BF08320020E1
:1022000038B500230D460B70074C30B108F02AFC9E
:10221000002320602B70002038BD206808F068FC87
:102220003228F3D8F7E700BFE8100020024A537CB9
:1022300043F0040353747047A00C0020024B5A7CF7
:102240006FF382025A747047A00C002008B508F0A2
:1022500009FC014B986008BDA00C002008B508F0EF
:1022600001FC014B186008BDA00C00202DE9F041D5
:102270000C4615460746002837D0B1FA81F35B09B2
:102280009BB1564E564A3378002C32D00221012B96
:1022900091610AD030460AF0ADFC30460AF093F85E
:1022A0005048514B836008F03BFAA74201D0FFF73A
:1022B00085FF4E4E3378A34200D11DB100224C4B16
:1022C0009A619A83347024B1631E042B747098BF92
:1022D000B470306803F0ABFA3378062B78D8DFE8B7
:1022E00003F0751938424C5660000B1C18BF0123CF
:1022F000C6E74FF40031042B9161D6D03D4BDFF897
:10230000E4801C703C4B3046C8F8083008F05CFE96
:102310004046C8E7312075B10CF062F852200CF04D
:102320005FF801200CF068F84EF2534143F22D4063
:102330000CF0BCF851200CF053F8FFF77FFFFFF7CB
:102340008DFF2A462146384601F0B4FB0120BDE846
:10235000F0813220002DEED00CF042F852200CF02B
:102360003FF80220DEE73320002DE4D00CF038F8EF
:1023700052200CF035F80320D4E73420002DDAD0B9
:102380000CF02EF852200CF02BF80420CAE7352070
:10239000002DD0D00CF024F852200CF021F80520AC
:1023A000C0E73020002DC6D00CF01AF813480CF00E
:1023B00049F813480CF060F84EF2534143F22D40B7
:1023C0000CF074F852200CF00BF8B3E71120B2E7D0
:1023D00011200CF005F8FFF7CBFEAEE774350020B6
:1023E00000040040B0100020F12000080832002056
:1023F000640C002058220020FDB00008D7E8000837
:10240000E1E80008002313B50DF107018DF807304E
:10241000FFF7F6FE044690B19DF80730013B032B11
:102420000DD8DFE803F002060F1200221146094B17
:1024300002E00022074B99781878FFF717FF204633
:1024400002B010BD00220621F1E7024B00225978AC
:10245000F2E700BF0832002013B5124C20460BF003
:10246000D9FA0123A37703F0DFF90F4C206008B9F4
:10247000FFF77EFEE37843F00103E37008F0F2FA21
:102480000A4BFF22186000234FF4A87100930848FC
:10249000084B09F063FAFFF742FE0120FFF7B2FF95
:1024A00002B010BD640C002008320020DC100020B7
:1024B000F01000205521000810B5114C637C9A07DC
:1024C0001CD4A068D0B108F013FBC72816D9637CD0
:1024D000DB0705D54FF0804320229A6106F09AFE73
:1024E00000F05CFE0122074B9A77637C23F0060321
:1024F00043F00203637408F0B5FA206010BD00BF1A
:10250000A00C0020640C002038B5354D2B682C46FB
:102510001BB908F0A7FA286038BD6B7C98071BD55B
:1025200000F018FEC0B16B7C590746D501F0FCFBEA
:10253000637C60F30003637406F086FE0022294B7F
:10254000A2609A77637C23F00603637408F08AFA2A
:10255000254B60601B782374637C9A07DCD400F001
:10256000F9FD0028D8D0637C5B072ED5002363607B
:1025700008F078FA4FF080434FF40012A0609A619F
:1025800000F018FE184B227C19781C46914201D1AC
:1025900000F044FB0120FFF735FF38B9227863785B
:1025A000DAB1024619461846FFF760FEFFF756FEFD
:1025B000BDE8384053200BF013BF286808F098FAA4
:1025C0004EF65F239842B1D8C6E760680028A3D0D2
:1025D00008F08EFAC728C9D89EE711461846E3E7E7
:1025E000A00C0020640C002008320020F8B5364C06
:1025F000364D2068B8B108F07BFAB0F5FA6F12D307
:102600000026552026600BF0EBFE57200BF0E8FE6D
:1026100070200BF0E5FE287832460146B0FA80F0D3
:102620004009FFF723FE2B7823B1294B93F8202094
:10263000284B1A702368DBB9274F386808F058FA1E
:1026400040F6B733984213D92B788BB10BF04CFA84
:1026500070B91F4EB37F5BB108F004FA38605320A5
:102660000BF0BEFE96F8213013B970200BF0B8FEC7
:102670001A4E0020FFF7C6FEFFF71EFF306808F075
:1026800037FAB0F57A7F0DD308F0ECF9306001200D
:10269000FFF7B8FE2A68124B13402268134301D19A
:1026A000FFF7C4FD2A680E4B1340B3F1807F01D0C1
:1026B000FFF72AFF0BF08EFD0A4B1B781BB1BDE81C
:1026C000F84001F0D3BFF8BDDC1000200832002034
:1026D000640C002058220020E4100020D8100020B4
:1026E000FF000001E0100020024B587CC0F34000C6
:1026F000704700BFA00C00200120704708B5FFF70D
:10270000FBFF08BD73B58A78114C06460D46E36899
:10271000D2B1032B00D80133E36008F0A3F92946B6
:1027200020603046FFF7EAFF60B10A4B1A784AB1E1
:10273000094B30461B78D9090091C3F30013A978DF
:102740000BF06CFD02B070BD002BE5D0013BE3E760
:10275000A00C0020083200201432002000B50B4BE2
:102760008FB093F821300A4A322101A804F005F80D
:1027700001A807F01BFB0BF0B3F907F017FB0548A6
:1027800007F014FB0FB05DF804FB00BF640C0020E1
:10279000A6E80008B5E800082C4B13B51A780446E3
:1027A00052B12B4B1B78D9090091C3F300130121BF
:1027B0000BF034FD02B010BD0028FBD0031FDBB2CC
:1027C000A02B12D8234B0146186808F029F820B135
:1027D000204602F0DFFE02F061FF204602F0D2FE4A
:1027E00002B0BDE8104002F059BF00F12003DBB297
:1027F000072B07D800F007040120A040C0B202F068
:10280000F7FEEDE700F15B03DBB2022B06D8124ABC
:10281000D05C02B0BDE8104007F0ACBF00F1580337
:10282000DBB21A2B07D80D4A32F8130002B0BDE80C
:10283000104007F0BBBF3334E4B2122CBAD80121E8
:1028400002B0BDE8104001F0F9BF00BF083200201F
:10285000143200205C0F00206CE8000870E80008CB
:10286000244B13B51A78044652B1234B1B78D9096F
:102870000091C3F3001300210BF0D0FC02B010BD97
:102880000028FBD0031FDBB2A02B06D802F082FE8B
:1028900002B0BDE8104002F001BF00F12003DBB23E
:1028A000072B07D800F007040120A040C0B202F0B7
:1028B000A7FEEDE700F15B03DBB2022B05D8104663
:1028C00002B0BDE8104007F055BF00F15803DBB27D
:1028D0001A2B05D8104602B0BDE8104007F066BFBD
:1028E0003334E4B2122CC9D8114602B0BDE810400E
:1028F00001F0A4BF083200201432002000207047ED
:102900002DE9F04104460E46FFF7F8FFE8B92378B9
:10291000013B142B4ED8DFE803F00B1B48626872B2
:102920007575754DC47A7E848D96999CA5AEB70059
:10293000002363700C23A3705E4B31461B78204646
:10294000002B40F0B38008F0DFFB0120BDE8F081F0
:102950006378013B032B2DD8DFE803F0020C0F2135
:1029600008F080F8030EA370030CE370030A2371D0
:102970006071E1E706F0EEFEF4E72546A77804F182
:102980001C08042FD8D8F8B203F0D4FA030AEB706D
:1029900028710235454507F10107F2D1CCE7002344
:1029A000A370E37023716371C6E76378022B04D0D0
:1029B000052B10D0FF232370BEE7E378A07840EA10
:1029C0000320237940EA0340637940EA036000BAB8
:1029D00006F0C3FEB0E7A07806F0E9FEACE7E278C7
:1029E000A178607807F0DCFAC0E722796379A178F2
:1029F00043EA02236078E27807F0E8FA9CE707F000
:102A000035FB99E73146204606F04FFF94E707F083
:102A1000BFFB607090E707F0BDFB030A6370A07016
:102A20008AE76078A378221DE17843EA002007F066
:102A3000B4FB81E76078A378221DE17843EA0020A7
:102A400007F0C5FB78E707F0D5FB75E707F09CFAC0
:102A5000DFE76078A378221DE17843EA002007F0E1
:102A60004FFB69E76078A378221DE17843EA0020F4
:102A700007F062FB60E7E278A178003218BF01221C
:102A8000607807F0B8FA71E7E2782179637900326B
:102A900043EA012318BF0122A178607807F0CAFA3F
:102AA0004AE70123044A6370137045E70BF074FD95
:102AB0004BE700BF08320020E010002038B5104B73
:102AC0001B78E3B90F4C2378052B18D125462378C2
:102AD000052B03D0BDE8384002F0E0BD07F08EFFC3
:102AE000B4F84C309B07F2D507F06FFF0028EED00A
:102AF000284609F0F7FC284608F098FAE7E738BDC1
:102B0000083200207435002002289CBF014B187049
:102B1000704700BF40120020014B1878704700BF7B
:102B200040120020704700001A4B70B59C6C0F26B5
:102B300044F4C0649C649B6C012301F003048B404B
:102B400021F0030101F1804101F5A0518D68A4003D
:102B5000C0F38320A04006FA04F425EA04052843C4
:102B60008860D8430C4912F0010F8C6814BF1C43D5
:102B700004408C6012F0020FCA6814BF1A4302406E
:102B8000CA60054A536111680B43136053680340E0
:102B9000536070BD000C0140001800400F281FD882
:102BA000DFE800F0080C0F121518181818181B1B76
:102BB0001B1B1B1B0621084609F0CFBE0621072060
:102BC000FAE706210820F7E706210920F4E70621A5
:102BD0000A20F1E706211020EEE706212120EBE78D
:102BE000704701207047000008B5FFF7FAFF88B171
:102BF000032207210848FFF797FF0720FFF7CEFFC2
:102C0000054803220621FFF78FFFBDE80840062094
:102C1000FFF7C4BF08BD00BF000400402DE9F04726
:102C2000302383F31188DFF8C881FFF7DDFF00252B
:102C30004646664FDFF8BC9157F8043B98F80020F1
:102C400023F00F0A03F00F012AB1012A40F0AF80F0
:102C50004B4540F0AC8001248C4021460522504673
:102C6000240409F0E8FFCAF8184001350F2DE3D11C
:102C700005240127564DDFF8808155F8043B327852
:102C800003F00F0123F00F002AB1012A40F09780D2
:102C9000434540F09480202207FA01F109F0CBFF70
:102CA00000BF00BF00BF00BF00BF00BF00BF00BF2C
:102CB00000BF00BF00BF00BF00BF00BF00BF00BF1C
:102CC00000BF00BF55F8040C032200F00F0949466D
:102CD00020F00F00FFF728FF4846FFF75FFF013C99
:102CE000CBD184F3118872B601203A4B3A4A5A612B
:102CF0000022A30003F1604303F56143D3F8001100
:102D0000D5B2012D94BF002101F0010109B1C3F832
:102D100080010132202AF1D10134082CE8D12F4C56
:102D2000636843F0007363602D4B1A6802F0090278
:102D30001A601A6842F46C3242F004021A6040F2DF
:102D4000B3321A62274B43F001039847236943F0DB
:102D50000403236130BF244B43F0010398472369E8
:102D600023F004032361214CE36943F08003E36112
:102D7000A36C43F40073A36408F0F2F903F00EF9B6
:102D8000E36C43F00803E364E36CA36C43F4805307
:102D9000A364A36CE36C43F01003E364E36CFFF7FC
:102DA000C1FE002383F3118862B6BDE8F0870123DA
:102DB000202203FA01F1504609F03DFF55E7402279
:102DC00007FA01F109F037FF89E700BF38E9000889
:102DD000D0E9000800180040FFFF070000ED00E008
:102DE00000000140A8E9000874E90008000C014057
:102DF00040120020080000400D08004001207047EC
:102E000001238B40034210B50C4606D00846FFF75D
:102E1000F5FF10B1204600F003FA10BD08B50F4BC6
:102E20005A69D2070AD51A68002022F001021A60F6
:102E3000FFF7E4FF10B1002000F0F2F94022084B48
:102E4000C3F88020BFF34F8FBFF36F8F0122034B76
:102E50005A61BDE8084008F05DBE00BF00180040A0
:102E600000E100E008B50D4B586910F0020006D0F3
:102E70001A68012122F002021A60FFF7C1FF8022C6
:102E8000074BC3F88020BFF34F8FBFF36F8F022231
:102E9000024B5A61BDE8084008F03CBE00180040F3
:102EA00000E100E008B50E4B586910F0040006D0B0
:102EB0001A68022122F004021A60FFF7A1FF4FF402
:102EC0008072084BC3F88020BFF34F8FBFF36F8F22
:102ED0000422034B5A61BDE8084008F01BBE00BF46
:102EE0000018004000E100E008B50E4B586910F0F2
:102EF000080006D01A68032122F008021A60FFF7C2
:102F00007FFF4FF40072084BC3F88020BFF34F8F50
:102F1000BFF36F8F0822034B5A61BDE8084008F0E9
:102F2000F9BD00BF0018004000E100E008B50E4BFD
:102F3000586910F0100006D01A68042122F010021F
:102F40001A60FFF75DFF4FF48062084BC3F88020E2
:102F5000BFF34F8FBFF36F8F1022034B5A61BDE851
:102F6000084008F0D7BD00BF0018004000E100E0B5
:102F700038B5254B5C69A20604F4787507D51A6844
:102F8000052122F020021A602846FFF739FF60066B
:102F900008D51D4A06211368284623F04003136014
:102FA000FFF72EFF210608D5174A07211368284688
:102FB00023F080031360FFF723FFE20508D5124AD0
:102FC00008211368284623F480731360FFF718FF65
:102FD000A30508D50C4A09211368284623F4007379
:102FE0001360FFF70DFF4FF48032084BC3F88020C9
:102FF000BFF34F8FBFF36F8F4FF47872024B5A615C
:10300000BDE8384008F086BD0018004000E100E04F
:1030100038B52A4B5C69620504F47C4507D51A680B
:103020000A2122F480621A602846FFF7E9FE230590
:1030300008D5224A0B211368284623F40063136045
:10304000FFF7DEFEE00408D51C4A0C211368284671
:1030500023F480531360FFF7D3FEA10408D5174A69
:103060000D211368284623F400531360FFF7C8FEB0
:10307000620408D5114A0E211368284623F48043C0
:103080001360FFF7BDFE230408D50C4A0F21136817
:10309000284623F400431360FFF7B2FE0222084BD8
:1030A000C3F88420BFF34F8FBFF36F8F4FF47C4280
:1030B000024B5A61BDE8384008F02CBD00180040B2
:1030C00000E100E010B5074C23784BB900F04EFE4C
:1030D00001F05EFB07F02AFB01F05BFB012323708C
:1030E000012010BD4212002010B5044C23781BB102
:1030F00000F030FE00232370012010BD421200209A
:10310000024B1B780BB10BF035B97047431200200E
:103110000120704708B50C4B186807F0E9FCC72878
:1031200001D8002008BDFFF7F3FF0028F9D0FFF712
:10313000DBFA18B1054B1B78002BF3D0044B186851
:10314000B0FA80F04009EDE74C120020B40C0020EA
:103150005012002008B5FFF7DDFF08BD08B500F0EC
:10316000F5FD08BD0120704710B5FFF7FBFF0446D1
:1031700070B1084B5B7E13B1074B1B7843B9FFF767
:103180001DF811200BF02CF90AF0AEFC0028FBD141
:10319000204610BD640C0020B40C002008B5044B80
:1031A0001B780BB9FFF78EFFFFF7D8FF08BD00BFF4
:1031B0004212002008B5044B1B780BB1FFF794FFB7
:1031C000FFF7D2FF08BD00BF42120020012208B560
:1031D000044B1A70FFF732F8BDE808400020FFF7F3
:1031E00093BC00BFB40C0020002208B5064B1A7037
:1031F000FFF71CF8FFF790FC20B9BDE8084001205C
:10320000FFF782BC08BD00BFB40C0020034B1B7845
:103210000BB9FFF7DBBFFFF7E7BF00BFB40C00201F
:1032200008B507F01FFC024B1860012008BD00BF65
:103230004C12002038B5074B04461D780DB9FEF737
:10324000F5FFA4F5A443203B1F2B8CBF284601208B
:1032500038BD00BFB40C002008B500F087FDFFF7B3
:10326000FBF800F085FD48B1012220214FF080409D
:1032700009F0E1FC4FF0804320229A6108BD000074
:1032800000230D4A10B513700C4A4FF080441370A0
:103290000B4A136000F0A4FEFFF714FF02F079FB65
:1032A00005F0EAFF012805D005F0DEFF4FF400131A
:1032B000A36110BD2023FBE741120020441200202F
:1032C0004812002008B502F029FB04F01FFB02F0B1
:1032D000A4FA084B188060F07F001870188802F07C
:1032E0009FFA00F0AFFD18B1BDE80840FFF7C8BF76
:1032F00008BD00BF1432002037B504460D4600F06B
:10330000A9FE002800F0BC80002D00F0B98047F62F
:1033100004639C4200F0848029D847F601639C42F4
:103320005AD00AD847F603439C4200F0A680B4F571
:10333000FC4F3BD0284603B030BD47F602639C42A9
:103340005CD047F603639C42F4D100230DF10701E2
:1033500001208DF80730FEF753FF9DF80730042B4E
:1033600002D013F0FD0FE5D1012204212FE047F632
:1033700012639C427AD00AD847F605639C4262D019
:1033800047F611639C42D5D1FFF720FFD2E747F6FD
:1033900013639C426ED047F643639C42CAD101221C
:1033A000384B1A700022384B1A60C3E700230DF126
:1033B000070101208DF80730FEF722FF9DF8073046
:1033C000042B02D013F0FD0FB4D1012211462F4B74
:1033D0001878FEF74BFFADE700230DF10701012040
:1033E0008DF80730FEF70CFF9DF80730042B02D054
:1033F00013F0FD0F9ED101220221E8E700230DF119
:10340000070101208DF80730FEF7FAFE9DF807301E
:10341000042B02D013F0FD0F8CD101220321D6E73B
:1034200000230DF1070101208DF80730FEF7E8FEBB
:103430009DF80730042B03D013F0FD0F7FF47AAF13
:1034400001220521C3E700230DF1070101208DF8BA
:103450000730FEF7D5FE9DF80730DA1E012A02D9A3
:10346000002B7FF467AF01220621B0E7FFF7BCFE17
:1034700000255FE7FFF7CAFEFAE7FFF723FF59E7EA
:10348000054657E744120020481200200832002069
:1034900070B5FFF7ABF800250126194C206858B12C
:1034A000A37A4BB907F024FB6368984204D3A67251
:1034B00001212089FFF720FF0135032D04F10C04C1
:1034C000ECD1002501260F4C206858B1A37A4BB9E6
:1034D00007F00EFB6368984204D3A672012120898D
:1034E000FFF70AFF01350B2D04F10C04ECD1064B5C
:1034F0001B780BB9FEF7AAFE00F058FC70BD00BFA8
:10350000240F0020B80C0020B40C002008B5044B98
:103510001B780BB9FFF7D6FDBDE8084007F054BA99
:103520004212002008B5044B1B780BB1FFF7DCFDFD
:10353000BDE8084000F00CBC421200202DE9F74322
:10354000BC4A91F8028004460D461368B8F1000F9A
:103550001CD0032B00D80133B74E1360308984424E
:1035600018D0B08A844218D0308C84420AD14FF0EF
:1035700002090C27B8F1000F12D007F073FA07FB0D
:1035800009F7F051AD4B0027984636E0002BE3D009
:10359000013BE1E74FF00009EBE74FF00109E8E7F5
:1035A00007FB09F706EB070999F80A3013B946F843
:1035B0000780E7E74146FFF79FFE89F80A8046F853
:1035C00007800028DED1002095E07E4308EB060747
:1035D000BB7A13B948F806301DE049462046FFF78C
:1035E0008BFE87F80A9048F806900028EBD012E08E
:1035F00001370B2F03F10C030DD01A899442F7D138
:1036000095F802900C26B9F1000FDED007F02AFAE7
:103610007E4348F8060029462046FFF70BFE0028A7
:10362000D1D02946204600F07BFD0028CBD047F6BC
:1036300004639C4200F0C6802CD8B4F5FC4F6CD0DB
:1036400009D847F620039C4200F0168147F6034351
:103650009C42B8D02EE047F602639C42AB7800F063
:10366000968079D9002BAED0754C2278042AAAD046
:1036700000230DF1070101208DF80730FEF7C0FD92
:103680009DF80730042B02D013F0FD0F9BD10022D0
:1036900004215DE047F640639C421ED015D847F6F2
:1036A00006639C4200F0D280C0F0A88047F6076312
:1036B0009C422AD02946204600F088FF002882D06C
:1036C00029462046FFF71EF815E047F642639C4264
:1036D00014D009D347F64363BAE7AB78002B3FF425
:1036E00072AFFFF73BF86EE7A878564B10B1012296
:1036F0001A7068E7187003B0BDE8F083AB78002B50
:103700003FF461AFFEF792FD5DE74D4B1B78002B58
:103710003FF459AFAA784C4BEAE7AB78002B3FF463
:1037200052AF474C2278012A3FF44DAF00230DF1F0
:10373000070101208DF80730FEF762FD9DF8073084
:10374000042B03D013F0FD0F7FF43DAF00220121C5
:103750002078FEF78BFD36E7002B3FF434AF384C72
:103760002278022A3FF42FAF00230DF10701012038
:103770008DF80730FEF744FD9DF80730042B03D089
:1037800013F0FD0F7FF41FAF00220221E0E7002BB2
:103790003FF419AF2A4C2278032A3FF414AF0023D8
:1037A0000DF1070101208DF80730FEF729FD9DF886
:1037B0000730042B03D013F0FD0F7FF404AF002279
:1037C0000321C5E7AB78002B3FF4FDAE1C4C2278FB
:1037D000052A3FF4F8AE00230DF1070101208DF812
:1037E0000730FEF70DFD9DF80730042B03D013F0D2
:1037F000FD0F7FF4E8AE00220521A9E7AB78002B8E
:103800003FF4E1AE0E4C2278062A3FF4DCAE0023F2
:103810000DF1070101208DF80730FEF7F1FC9DF84E
:103820000730DA1E012A02D9002B7FF4CCAE002229
:1038300006218DE750120020240F0020B80C002034
:10384000083200204312002041120020AB78002BE8
:103850003FF4B9AE00240DF1070101208DF80740B7
:10386000FEF7CEFC9DF80730012B3FF6ACAE0A4BBD
:103870002246214618786CE7AB78002B3FF41AAF4C
:1038800005F0FAFC4FF0804318B14FF400129A6132
:1038900010E72022FBE700BF08320020014B187020
:1038A000704700BF54120020F8B505460C465F4E25
:1038B0005F4F2146284600F00FFA50B1062C08D879
:1038C000DFE804F0040860A0A0ADAD000022574B73
:1038D0001A60F8BD326892BBA5F11103052B0BD815
:1038E000DFE803F0200A03161B250022FF23114600
:1038F0001320FEF74BFB01224FF4FA712846FEF726
:1039000089FB2846FEF722FB07F0ACF83060E0E7C1
:103910000022FF2311461420EBE70022FF2311466B
:103920001520E6E70023FF2219461120E1E70023D6
:1039300016201A461946FEF729FBFF22DCE710463F
:1039400007F0D6F847F22F53984203D90524394B94
:103950001C70AEE7384B1B787BB9162D0DD1374A5A
:103960001278042A49D10322324C19462270284683
:103970001A46FEF70BFB24789BE77A7E002A3BD0A1
:103980000324E4E7306848BBA5F11103042BA0D859
:1039900001A252F823F000BFD3390008D338000841
:1039A000AD390008BF390008C93900080022FF23DB
:1039B00011461320FEF7EAFA0122C8219EE70022F1
:1039C000FF2311461420F5E70022FF23114615209E
:1039D000F0E70023FF2219461120EBE707F088F8F3
:1039E00047F22F53984201D90624B0E77B7E0BB1F2
:1039F0000424ACE7104B1B786BB12846BDE8F840B7
:103A0000FEF7A4BAFF224FF4FA612846FEF702FB44
:103A10002846FEF79BFA0022064B1A7059E700224F
:103A2000044B1A70FEF702FCE7E700BF58120020B3
:103A3000640C00205412002008320020743500204D
:103A40000120704770B506460D4613200021FEF791
:103A5000CBFA10B90024204670BD00211420FEF7D7
:103A6000C3FA0028F6D000211520FEF7BDFA002881
:103A7000F0D000211120FEF7B7FA0028EAD000218B
:103A80001620FEF7B1FA0028E4D029463046FFF7A9
:103A9000D7FF04460028DDD00022044B29461D70C4
:103AA000034B30461A60FFF7FFFED4E754120020A4
:103AB0005812002070B50D461446FEF77DFB0646F1
:103AC00080B155B3174B5B7E2BBB013D052D09D84B
:103AD000DFE805F0030C120808182CB102211320AE
:103AE000FFF7B0FF304670BD0121F8E714B10221A5
:103AF0001420F5E70121FBE714B102211520EFE7BF
:103B00000121FBE714B102211120E9E70121FBE7C4
:103B100002211620E4E71E46E4E7002CF8D101213B
:103B2000F7E700BF640C0020064B1B784BB9064B2F
:103B30001A7832B1054A527E1AB959781046FEF702
:103B400095BB70475412002008320020640C0020FE
:103B50002DE9FF473D4E05460F46FFF7E5FF347858
:103B6000002C32D03A4D2B6813B906F07BFF286049
:103B7000286806F0BDFF41F28733984205D93378B3
:103B80000133337006F06EFF28603378013B032B5E
:103B900017D8DFE803F0020C10140022B4201146FD
:103BA00004F082FD0024204604B0BDE8F087002226
:103BB000B4211046F4E70021B4220846F0E7B4220D
:103BC000F6E7002434702C60EDE7224B1B785BB9DC
:103BD0003946284600F03EF904460028E3D039462D
:103BE0002846FEF733FADEE7DFF86C90DFF86C80EA
:103BF00001AE4FF00A0A494652463046FCF7C0FC77
:103C000098F81F305A1E122A09D80023B4211A46E8
:103C10001120013403F0ACFE0A2CEAD1D8E7B3FB43
:103C2000FAF2E1B28A42A05D0DD9312B03D900230B
:103C3000B4221946EDE71D2B4FF000038CBFB422D0
:103C40001A46B421E5E700231A46F2E744120020A1
:103C50004812002041120020F4E60008640C002005
:103C6000012804BF014B187006F086BEAC1000207E
:103C7000FF2838B5044629D1154D2B7833B3154BA1
:103C8000D3F8C03023F07F43B3F5DC4F0DD10022D1
:103C90006E231146FEF77AF920460121FEF78EF9D0
:103CA0002046BDE83840FEF751B9B3F5DC0F0DD121
:103CB00000236E221946FEF769F901212046FEF71E
:103CC0007DF92046FEF742F900232B7038BD00BF76
:103CD0005F120020500E00200339012910B5044660
:103CE00020D8A0F11103052B09D8DFE803F0030861
:103CF000030303160023FF221946FEF747F9FF22AC
:103D00004FF4FA612046FEF785F92046FEF71EF9CA
:103D10000020FFF7C3FD002010BDFF2316201A4628
:103D20001946EAE70120F7E7034B187810F0030083
:103D300018BF0120704700BF2C320020024B132017
:103D4000196802F0ABBD00BF10320020012070479F
:103D50007047000001204FF48062034B98619A6124
:103D60004FF400629A6170470004004001207047E0
:103D7000012210B50C4C1146204608F05CFF20468D
:103D800001224FF4806108F056FF204601224FF4D3
:103D9000006108F050FF01204FF48063A061A3612F
:103DA0004FF40063A36110BD000400401B491C4B8D
:103DB00010B51A780B7882EA0300000642BFD209D8
:103DC00062F3C7130B70174B1B783BB16E22114681
:103DD000104604F069FC0122134B1A70134C23782F
:103DE00033B100221146104604F05EFC002323701C
:103DF0000F4B1B7833B10F4A13781BB90121117097
:103E00000D4A13600D4B1A782AB10D490A7812B188
:103E100000220A701A70012010BD00BF1432002069
:103E200010320020631200205C1200206212002079
:103E30006112002044120020481200205D12002070
:103E40005E12002008B5FEF793F9FF20FEF77EF81A
:103E5000012008BD08B506F071FC10F0020F14BF78
:103E60004FF480320122144B9A6106F067FC134B29
:103E700011491A78124812F0200214D00278D206A2
:103E80004BBF4FF080624FF480628A618A614BBF02
:103E90001A781A786FF3861242F040021A70FFF710
:103EA0004DFF012008BD037862F3041303704FF443
:103EB00080638B61F5E700BF0004004010320020F2
:103EC00014320020704770B50446049D9DF81460BC
:103ED000FEF75CF8324629462046FEF79BF820465E
:103EE000BDE87040FEF732B837B5FF230325FA244A
:103EF0001A461946019500943E20FFF7E4FFFF2380
:103F0000CDE900451A4619460F20FFF7DCFFFF23D5
:103F1000CDE900451A4619463D20FFF7D4FFFF239F
:103F2000CDE900451A4619463C20FFF7CCFF03B007
:103F300030BD000070B5134C23789D071ED5E07886
:103F4000114D0022294615F8016BD3B2864203D0E9
:103F50000132102AF7D113462278900741BF03F1AE
:103F6000FF33DBB26FF3410222700E2B9ABF5B1856
:103F700058780878BDE8704005F0A3B905F0A4F9B9
:103F8000DEE700BF10320020140F002038B540F2E9
:103F9000622440F2722520460021013402F025FC03
:103FA000AC42F8D138BD0000002110B50A4C23887E
:103FB000A17003F0020343F064032380074B1A78D7
:103FC00061F3C7121A70FFF7E1FF21681320BDE803
:103FD000104002F063BC00BF1032002014320020F9
:103FE00070B5132002F0F4FB174D286008B9FFF7F5
:103FF000DBFF164C2B782278D90961F3C71213F036
:10400000200F2270124E18D0002000F008FF4FF44D
:104010000063B3612B7813F0400F237815BF6FF363
:10402000041343F010032370237014BF4FF4806314
:104030004FF08063B361012070BD022000F0EFFEFD
:104040004FF00063F6E700BF10320020143200206A
:104050000004004047F64663984213B50C4609D069
:1040600047F6496398420ED047F6034398420CD076
:1040700001241CE0D9B105F06DF9FF21C0F307421E
:10408000C0B205F064F9002411E00029F0D0FF234C
:104090001A4619461846FDF779FF0322FA21FF2038
:1040A000FDF7B8FFFF20FDF751FFFFF77DFF20462A
:1040B00002B010BD10B505F007F900231A460649F5
:1040C00011F8014B844208BF1A460133DBB2102BB2
:1040D000F6D1104610BD00BF140F002010B50446E5
:1040E000FFF7E8FF044B2146BDE81040188000F2BE
:1040F000622002F07ABB00BF0C32002008B5FFF747
:10410000D9FF054B188000F2622002F043FB07281C
:104110009CBF024B587008BD0C32002010320020AA
:10412000BB4A73B515788C788DB3BA4B197871B3D7
:10413000E02827D134BB47F62803984200F0EC80F2
:1041400078D845F20623984200F00A813AD845F221
:104150000223984200F0048145F20423984200F0C3
:10416000E480B0F5A44F00F0E0800124BDE045F20A
:1041700021239842DFD045F223239842DBD1002C43
:10418000D9D01BE000211970A34B1170196047F6BC
:104190004C63984200F09A80002CE8D000229F4B9C
:1041A0001A709F4B1978002900F0D0811A7045F2DF
:1041B000212301259B4998420D70DCD101229A4BA5
:1041C0001A70B8E747F62103984200F08B8122D895
:1041D00047F213039842C8D1002C00F0868093491F
:1041E0000B78DA43C2F3C01262F3C7130B70FFF708
:1041F000A5FD00236E211A46FF20FDF7C7FE012111
:10420000FF20FDF7DBFEFF20FDF7A0FE884B01221B
:104210001A70002469E047F62303984200F02681D3
:1042200047F627039842A0D1002C9ED005F0B6F89F
:10423000B32863E047F64763984200F0C8801DD872
:1042400047F62A0398425ED052D3B0F5F84F40D0DB
:1042500047F64663984288D1002CDAD105F07AF807
:10426000FF23C0F307210531B1FBF3F31944C0F379
:104270000742C9B2C0B205F06AF836E047F64963B2
:10428000984200F08680C0F0DB8047F64C6398428D
:104290001CD047F64D6398427FF467AF2CB3634957
:1042A0000B7883F00802C2F3C00262F3C3030B7001
:1042B000DBB213F0080F03F0200300F04281002B63
:1042C00000F03D81042000F0AAFDFBE06CB1534BEF
:1042D0009DE7002C3FF449AF00221146104604F040
:1042E000E3F901F0F5FD06F01BFC204602B070BDBD
:1042F000002C3FF43AAF05F0D3F8DB287FF635AF5A
:10430000FFF7F2FD31E7002C3FF42FAF05F0C8F8BE
:104310003C283FF62AAFF3E7002C3FF426AF05F028
:104320003DF800287FF421AFEAE7002C3FF41DAFF1
:104330004FF400623F4B3D4D9A612B78132043F0C0
:1043400020032B70296802F0A9FA3B4A2B781178D8
:1043500083F04003C3F3801363F304111170C4E7C7
:10436000002C3FF402AF4FF00063324D1320AB61DD
:104370002E4B1A786FF345121A70196802F08EFAF4
:104380002D4B1A786FF304121A704FF48063AB61EF
:10439000ABE734B1A820FEF7FFF9A820FEF760FADA
:1043A00037E7224B1B78D9079FD5244A137803F0AF
:1043B000030100290CBF0121002161F301031370E7
:1043C00002D104F039FF90E704F04EFF8DE7174B60
:1043D0001D7805F001059CB175B104F0BBFFC0F379
:1043E0000742A82A28BFA8220C32C0F30721D2B264
:1043F000C0B204F0ACFF0CE7A920FEF7CDF908E746
:10440000002D7FF472AFA920FEF72AFA6DE700BFF6
:104410006112002044120020481200206312002084
:104420005C120020621200205E1200201032002078
:104430005F12002000040040143200202C320020C3
:10444000484B1D7805F001055CB145B104F082FFD1
:10445000C0F307420C2A38BF0C220C3AC5E7AA2049
:10446000CBE7002D7FF441AFAA20CDE7002C3FF42D
:104470003CAF04F029FF3C4B3A4D18700638C0B2EF
:104480001C2898BF394C6B789EBFC440E44304F0AD
:1044900001040133CCB10722B3FBF2F2C2EBC2023A
:1044A0009B1A334A6B7012F8134002EB43035E7899
:1044B00004F074FF31460246204604F048FF687855
:1044C000FFF70CFEFFF73AFCA3E60621B3FBF1F27F
:1044D00001FB1233274A6B7003EB4303D118D45C02
:1044E0004E78E5E7002C3FF400AFFFF723FDFFF720
:1044F00005FE1D4B1B4D1A786B78063AD2B21C2A6A
:1045000011D91B4A12F8134002EB43035E7804F002
:1045100045FF024620460024314604F018FFEC70A7
:10452000FFF70CFCE1E6114921FA02F2D207E8D5C7
:10453000104A03EB4303D118D45C4E78E7E706201A
:10454000C1E60BB10020BEE60220BCE645F2212305
:1045500098423FF433AE45F2232398423FF42EAE07
:10456000E9E500BF1032002060120020810618101B
:104570004EEF0008480F00200920704708280DD88A
:1045800004290BD80E2A09D84B23C1EB011103FBD8
:104590000010034B104433F810007047012070479F
:1045A00008EA000809207047082808D839B9054BDF
:1045B00082F0010202EB400233F812007047012042
:1045C000704700BFE4E900080120704701207047F0
:1045D000704708B5FFF7FCFF08BD000013B502AB3C
:1045E00003E903000F4B1B78B3B99DF80230009824
:1045F00073B16AB100F0C4FC04460146009800F0B3
:104600007FFC2046009902B0BDE8104001F04EBB8F
:1046100000F096FC0446F4E7009800F0B1FC009925
:10462000F1E700BF69120020034610B400885C88DF
:104630000A4640EA0440998810BCFFF7CFBF01202A
:10464000704710B504460021FFF7EEFF2146FFF743
:10465000C0FF10BD704708B500F050FBFFF7FAFF30
:10466000BDE8084046F2A81007F0ABB908B5FFF75F
:10467000F2FFBDE8084006F053BA08B5FFF7EBFFBC
:10468000BDE8084006F074BA38B501210546FFF7C9
:10469000CBFF2946044605F08CF808B9002038BD48
:1046A00029462046FEF74AFF0028F7D02946204633
:1046B00005F086FE0028F1D02946204605F00CFAC8
:1046C0000028EBD02946204605F0F8FD0028E5D06B
:1046D0002946204604F02CFF0028DFD0294620463A
:1046E00005F0BCFE0028D9D0AB785BB147F6034398
:1046F0009C421DD00AD8B4F5F84F16D047F60143B6
:104700009C4217D02846FFF75FFFC8E747F65B4398
:104710009C4215D047F65C439C420ED047F65A4364
:104720009C42EFD101F054F8ECE7FFF79FFFB5E7AB
:1047300001F055F8FFF7A1FFB0E701F03DF8E1E720
:1047400001F049F8DEE708B5FEF7ECFE04F048FC9E
:1047500000F027F8BDE80840012004F025BD08B5A9
:1047600000F024F8002004F01FFDBDE80840FEF72B
:10477000CDBE704701207047704738B50546FFF73A
:10478000F9FF044610B12846FFF7F6FF204638BD72
:10479000704710B50446FFF7ECFF2046FFF7EDFF2A
:1047A00010BD08B50020FFF7F4FF08BD08B505F0FF
:1047B000BDFFFFF7EEFF08BD10B505F0B7FF074BD3
:1047C00004461A78824207D0187006F04BF9044B61
:1047D00018602046FFF7DDFF10BD00BF6812002003
:1047E0006412002010B586B06C4684E803009DF882
:1047F00002300BB100F022FF0023ADF8163094E830
:104800000300ADF8141089B20490ADF80C0004ACAC
:1048100029B994E8030000F049FE06B010BD4FF638
:10482000FF73BDF80C209A42F3D02046FFF707FF34
:104830000028EED1F1E7008800F0C4BB704738B51E
:1048400005460C46FDF7A8FF1CB92846FEF708F8F8
:1048500038BD6420013C07F0B4F8A4B2F4E708B511
:1048600039280CBF50210A21FFF7E9FF08BD08B520
:1048700028B100F0BDFEBDE8084000F00FBF08BD44
:1048800008B528B100F0BCFEBDE8084000F006BF46
:1048900008BD00002DE9F047877981460D468478F0
:1048A00000F096FE3F09804600B3A046F4B1C5F380
:1048B000072303F0F002402A09D005F12002D2B20A
:1048C000072A25D91FB903F0E003202B23D0AF4BD3
:1048D00093F8018018F0040808D0022000F038FF97
:1048E00000F076FE80F001005FFA80F8C5F3033334
:1048F0000B2B41D8DFE813F01100110062006200B9
:10490000CE00400040004000E4004001530153014C
:104910004FF00008EAE7B846E8E7C5F30723C5F318
:10492000032613F0F00F18BF3601EFB294B156B161
:1049300007F12003DBB2072B304600D93FB900F066
:1049400057FE00F0ABFE3846FDF726FF14E000F0FE
:1049500065FEF6E73846FDF783FF6EB107F12003E9
:10496000DBB2072B304600D917B900F049FE01E051
:1049700000F05CFE00F092FEC5F30335083D032D08
:1049800003D805F0D3FEFFF704FFB8F1000F00F0E5
:104990005E8100F015FE10F0010040F0588189F8AA
:1049A000020000F005FE00F041FA484600F066F90A
:1049B00000F0FEFDBDE8F04700F044BAC5F3072360
:1049C00003F0F003C5F30326202B5FFA85FA18BF26
:1049D0003601BAF1000F0FD0BAF1010F41D0002C0F
:1049E00049D0002F40D099F80630D90741D56FF350
:1049F000071389F8063037E0644B5B7858070FD40B
:104A00003CB126B1304600F0F3FD00F047FE002037
:104A10009AE72046FDF724FF002EADD03046A4E7EC
:104A200084B137B900F010FE3043C0B2FFF71FFF6A
:104A3000A2E7012FF6D100F007FE3043C0B200F02C
:104A40000FFE99E72FB900F01DFE3046FFF718FF63
:104A500092E7012F90D03046FFF712FF00F012FED0
:104A60008AE71CB1052F87D83046DFE7042F83D8AB
:104A7000EBE7504668E7002FE7D0BAF1390F0CBFDB
:104A80004FF4FA504FF47A7006F09BFF5046FDF752
:104A9000E7FE71E7C5F3812343B1012B7FF46CAFCF
:104AA00064B1C5F3090005F081FE65E724B1C5F3E3
:104AB000090005F05FFE5FE72046FAE72046F2E7CF
:104AC00015F4407F28D1002C7FF456AFEA0648BF8A
:104AD0000F24C5F342134FEA830344BF9C40E443D1
:104AE00005F00F0000FA03F0C5F3812348BFA4B21C
:104AF00080B2022B40EA040008D00AD8012B02D071
:104B000000F06CF938E700F061F935E700F06EF974
:104B100032E700F058F92FE7C5F30122D3B204B30E
:104B200002F00103002B3FF427AFC5F342108200CF
:104B300015F010001EBF0F209040C04305F00F037A
:104B400003FA02F3C5F3812218BF80B29BB2022A96
:104B500040EA03000AD00CD8012A04D000F092F9F0
:104B60000AE75B08DEE700F085F905E700F092F957
:104B700002E700F049F9FFE6EFB2C5F303263CB1C6
:104B8000304600F053F9384650E700BF1432002099
:104B90003846FFF775FE304600F054F9ECE6EEB209
:104BA000A6F1F003042B3DD8DFE803F003220E1535
:104BB0001E003CB1042F3FF6DFAEC5F3042000F029
:104BC0004DF9D9E6052FF6E7C5F30420002CE3D113
:104BD00000F02CF9D0E624B1C5F3042000F01FF951
:104BE000CAE600F019F9C7E61A4B5B785B0704D4F4
:104BF000C5F30420002CCFD0EAE74CB1C5F3042460
:104C0000204600F013F90321204600F07DFDB3E6B5
:104C1000012000F09DFD012F7FF6AEAE022000F0D6
:104C200097FDA9E62CB10FB130468DE6C5F30420FF
:104C3000CEE74FB1392E0CBF4FF4FA504FF47A70D3
:104C400006F0BFFE304622E7C5F30420A4E7BDE826
:104C5000F08700BF1432002038B501880446807800
:104C600000F0BCF9054600F01DF900F0ABF829464C
:104C70002046BDE83840FFF70DBE000037B58588F7
:104C800004460146022201A8FBF77AFCF5B14FF673
:104C9000FF73BDF804209A4218D02046FFF7F4FCB9
:104CA00070B900F095FC88B1A3787BB1084B5B78B4
:104CB0005B070BD5022003B0BDE8304000F048BDD3
:104CC0002046FFF7C9FF2046FFF7BBFC03B030BD0D
:104CD0001432002008B5002005F04CFD002005F03E
:104CE00065FD00F0ABFCBDE8084000F0D7BC08B59E
:104CF00000F058FCBDE80840FFF7ECBF08B500F035
:104D000087FCBDE80840FFF7F2BFC0F303320E3264
:104D100002F00F02092A10B5C4B21BD8012101FA12
:104D200002F340F20332134203D113F010000DD10D
:104D300010BDF02C10D004D8E72C8CBF002001202F
:104D4000F6E7F42C14BF00200120F1E7E72C03D98B
:104D5000F12CF7E70020EBE70846E9E737B585884F
:104D600004460146022201A8FBF70AFC6DB14FF68A
:104D7000FF73BDF804209A4207D0208800F022F982
:104D800003B0BDE83040FFF7C0BF002003B030BD26
:104D900082B002AB03E9030002B0704782B002ABFD
:104DA00003E9030002B07047704708B5FFF7FCFF46
:104DB00008BD000008B5FFF7F8FF014B188008BDDB
:104DC0006A1200207047FFF7F5BF0000024B1B88F6
:104DD0001843FFF7EFBF00BF6A120020024B1B8889
:104DE0001840FFF7E7BF00BF6A120020024B1B8884
:104DF0005840FFF7DFBF00BF6A120020704708B5B8
:104E0000FFF7FCFF08BD000008B5FFF7F8FF014BF6
:104E1000188008BD701200200020FFF7F5BF0123A5
:104E200003FA00F080B2FFF7EFBF0000012303FA9E
:104E300000F0034B1B88184380B2FFF7E5BF00BFAB
:104E400070120020012303FA00F0034B1B8823EAB1
:104E50000000FFF7D9BF00BF70120020012303FA42
:104E600000F0034B1B88584080B2FFF7CDBF00BF56
:104E700070120020024B1B881843FFF7C5BF00BF0C
:104E800070120020024B1B881840FFF7BDBF00BF07
:104E900070120020024B1B885840FFF7B5BF00BFBF
:104EA00070120020704730B5012401F00703C908D3
:104EB00002EB810200219C40E4B2013A12F8015F4A
:104EC00020FA01F343F300036B40234001316B40B0
:104ED00004291370F2D130BD002210B500F0070490
:104EE000C00801EB800110468B5CE34003F0010336
:104EF000934001321843042AC0B2F5D110BD00001E
:104F000082B0ADF804000B46C1B2C0F307200428FC
:104F10000AD80E290ED8C0EB00100144064A89B207
:104F2000184602B0FFF7BFBF0430C0B2012801D855
:104F3000024AF5E702B07047721200206C1200209E
:104F400082B0ADF80400C3B2C0F30720042809D82A
:104F50000E2B0ED8C0EB00101844074980B202B0E7
:104F6000FFF7BABF0430C0B2012802D8034918467F
:104F7000F5E7002002B07047721200206C1200208A
:104F800073B508240D4BADF804001E880C4B1B882C
:104F90001E4346FA04F3DB07E5B206D414F1FF34EE
:104FA000F7D20025284602B070BD0199284600F0CE
:104FB0009CFE80B20128F1D0F4E700BF70120020FF
:104FC0006A12002007B5ADF804000198FFF7D8FF7A
:104FD000019903B05DF804EB00F087BE13B5104BE8
:104FE000ADF804101B782BB1019802B0BDE8104059
:104FF000FFF7E8BF70B10198FFF7C2FF0446014612
:105000000198FFF77DFF2046019902B0BDE81040EE
:1050100000F06BBE0198FFF793FF0446F3E700BF73
:105020006912002010B5012404FA02F204FA01F119
:10503000114389B231EA000204FA03F306BF1843B0
:1050400080B2984310BD000008B513460A460146D9
:1050500003480088FFF7E6FFBDE80840FFF7D4BE2D
:1050600070120020F8B50C4B0C4E1C780C4D3378A8
:10507000A34200D1F8BD05EBC40335F834005F88C6
:105080009A88D98840EA074042EA01410134FFF793
:1050900085FE04F00704EAE7E3120020E212002094
:1050A000A2120020064B10B418885C889A88D98810
:1050B00040EA044042EA014110BCFFF76FBE00BF66
:1050C0009A12002084B0ADF80C0049B14FF6FF737E
:1050D00080B2C31A5842584180F0010004B07047B2
:1050E0000120F9E7F0B50D4B0D4C1B7826780D4CDF
:1050F000B34201D10020F0BD04EBC3056F788F42AD
:1051000006D114F83370874202D1AD78954203D1AD
:10511000013303F00703EBE70120ECE7E312002083
:10512000E2120020A21200201F4A2DE9F8439379D1
:1051300013F0F00F0DD193785BB11C4B95881C7860
:105140001B4B92F801801F7892F80090194EBC42D8
:1051500001D1BDE8F88329461088FFF7B3FFF8B105
:1051600006EBC403597841451AD116F83410494565
:1051700016D19978A1B99988491B89B2C7290FD846
:105180000121907961F3071090719A79064861F3D3
:1051900007129A71FFF772FDBDE8F843FFF762BF8F
:1051A000013404F00704D2E79A120020E312002031
:1051B000E2120020A21200202DE9F04FBA4D89B072
:1051C00001460446062202A8FBF7DAF9AB882A88D2
:1051D000194610460193FFF775FFA7780090AB467C
:1051E000002800F04C81B4F804A0019BAE78AAEB33
:1051F000030394F8009094F8018099B2002E00F017
:10520000F980A879C72900F0F00300F2B680218860
:10521000002B7CD18A423E460FD177B9012363F33C
:105220000710A871FFF73EFF2846FFF727FDAB796F
:10523000A371304609B0BDE8F08F8DF818908DF855
:10524000198051460698FFF73DFF28B127B93A4625
:1052500041464846FFF746FF8DF818908DF81980B3
:1052600051460698FFF72EFF054618B9002F3DD18D
:105270000026DEE7002F39D13A4641464846FFF77F
:1052800031FF06460028F3D18DF808908DF809808B
:105290000298FFF797FEC0F303310B2913D80122C0
:1052A0008A4012F4406FC3B21AD112F00C0F0FD122
:1052B000910708D010F4706F01D0002BB9D02033C3
:1052C000DBB2072BB5D92046FFF7D8FC2E46B0E756
:1052D00010F4706FF3D0A27912F0F00FEFD1A8E7BD
:1052E000EF2BA6D90F33DBB2022BEBE79BF806308E
:1052F0006D4843F001038BF80630FFF7BFFC08222E
:1053000000216948FBF7B2F9FFF7CCFEB0E78A420B
:105310000CD15FB9A0712046FFF7B0FC08222146EE
:105320002846FBF72DF9FFF7BDFE82E72046FFF781
:1053300015FDE8B1E7B19BF806301F2B0DD9BBF87E
:105340000020ADF814A0ADF8102000228DF8163022
:105350008DF8122004A8FFF791FC0822214652483C
:10536000FBF70EF9FFF7E0FEFFF79CFE009E60E7FB
:105370002046FFF783FC01265BE7ABB900938DF86D
:105380000A7002ABADF80CA08DF808908DF809807A
:1053900093E80300FFF7FCFC2846FFF76FFC009B37
:1053A000082219462846ADE723889A420AD14FB908
:1053B000A0712046FFF762FC082239462846FBF719
:1053C00055F936E72046FFF7C9FC0028D0D0002F5A
:1053D000CED09BF806301F2BBFD9BBF80020ADF80C
:1053E0001CA0ADF8182000228DF81E308DF81A2070
:1053F00006A8B0E7C7292FD83E46002FB8D023888B
:105400009A421CD1AB79DA0713D413F0F00210D012
:10541000F02AA37106D0DBB2C3F30312013262F3A8
:105420000713A3712046FFF729FC082221461E48D6
:1054300077E7082221461C48FBF7A2F8F9E6204648
:10544000FFF78CFC002888D1AB79204643F001039C
:10545000AB71FFF713FCECE68DF80A70ADF80CA009
:105460008DF808908DF8098002AB93E80300FFF7F0
:105470008FFC082231462846FBF7F8F853E7002F47
:105480003FF476AF2046FFF769FC064600283FF45C
:105490006FAF082221462846FBF772F82846FFF72F
:1054A000CAF9FFF741FE3EE79A120020F0B587B037
:1054B0006C4684E803002046FFF77EFE2D4E07462B
:1054C0002D4D58B1BDF804100098FFF7FBFD18B141
:1054D00094E80300FFF762FC284C45E004AB94E835
:1054E000030083E80300BDF80420BDF81010ADF8F8
:1054F0000C10002AF0D04FF6FF7289B29142EBD027
:1055000030782A78441C04F0070494420AD01946E3
:105510001A4B082203EBC000FBF732F83470FFF798
:10552000A1FDD9E7FFF7EAFB082239461448377096
:105530002F70FBF79BF8CFE704EBC000FFF73CFEB2
:10554000B0B12B7834F8330004EBC3035F889A883A
:10555000D98840EA074042EA0141FFF71FFC2B7857
:10556000013303F007032B70287833788342E3D1AB
:1055700007B0F0BDE2120020E3120020A2120020CA
:105580009A120020024B0146186805F0B1B900BF1D
:105590005C0F0020024B0146186805F0C1B900BF3E
:1055A0005C0F0020014B186805F0D2B95C0F002099
:1055B000024B93F90000C0F3C7007047241300208A
:1055C000024B187800F00700704700BF241300203A
:1055D000034B187810F0070018BF0120704700BF78
:1055E00024130020014B1878704700BF26130020B9
:1055F000024A137818431070704700BF261300202A
:10560000024A137823EA0000107070472613002026
:105610000022014B1A70704726130020024A1378AB
:1056200018431070704700BF27130020024A1378F8
:1056300023EA000010707047271300200022014B5E
:105640001A70704727130020014B1878704700BF6D
:1056500025130020704708B5FFF7FCFF08BD0000C8
:1056600008B5064B5B785B0706D5054B1978814278
:1056700002D01870FFF7EFFF08BD00BF1432002002
:105680002513002008B5044B1A781AB100201870B1
:10569000FFF7E1FF08BD00BF2513002010B5124B36
:1056A00012491B780978124C0B431249206809787B
:1056B000037031B10B43037005F094F808B1FFF7A4
:1056C000E1FF246820220C492046FAF729FF48B15F
:1056D000214620220848FAF753FF2046BDE8104033
:1056E00005F030B810BD00BF26130020271300209E
:1056F0005C0F00202513002004130020704708B51C
:10570000FFF7FCFF08BD00000A4A10B552785207A7
:105710000CD5094C41EAC0012170FFF787FB94F9D1
:105720000000C0F3C700FFF7EAFF10BDBDE810405E
:10573000FFF77CBB1432002024130020002008B5A2
:10574000024B1870FFF7DBFF08BD00BF24130020D9
:1057500008B50C4A92F9003023EA000040B21070FC
:1057600042070ED1DBB283420BD0074B5B785B075D
:1057700007D5C0F3C700FFF765FBBDE80840FFF79A
:10578000DDBF08BD2413002014320020094A08B5EB
:105790005378C3F3800181420AD060F382035370CF
:1057A000108800F03DF8BDE808400220FFF7D0BFA8
:1057B00008BD00BF14320020044B5878C0F38000AD
:1057C00080F0010000F00100FFF7E0BF143200207C
:1057D0000120FFF7DBBF0020FFF7D8BF704708B5F7
:1057E00001F06CF8BDE808404FF6FF71002001F0B1
:1057F00047B808B5002000F0DCFF4FF6E763984299
:1058000003D1BDE8084003F071BF002008BD0220AD
:1058100000F0C0BF032000F0BDBF042000F0C9BFEE
:105820000146042001F02CB80F2000F0D1BF014642
:105830000F2001F033B808B50020FFF7F8FFFFF79D
:10584000CDFF08BD01460E2001F00CB810B504468E
:1058500040F27221132001F021F82046BDE81040EB
:1058600040F27222222100F0E3BF00B5ADF51F7DAA
:1058700040F27222002101A8FAF7F8FE01A8FFF712
:10588000E5FF0DF51F7D5DF804FB000010B5002459
:1058900001F014F84FF6E761002000F0F1FF00215D
:1058A000022000F0DFFF0021032000F0DBFF1A4B95
:1058B0004FF4A05104201C8000F0E2FF2146062096
:1058C00000F0D0FFFF21072000F0CCFF2146082088
:1058D00000F0E4FF21460D2000F0C4FF214618200F
:1058E00000F0DCFF2146172000F0BCFF21461C2001
:1058F00000F0D4FF2146202000F0C2FF21461820EE
:1059000000F0CCFFFFF7B1FF204603F006FF03F0E5
:105910002FFFFFF790FF10BD6A120020FFF7B6BF00
:1059200037B505F0D9F80D4C05462388834212D0CF
:105930004FF6FF73ADF8003000238DF8023005F00C
:10594000CBF840F00100ADF8040002AB13E903000E
:10595000FEF748FF258003B030BD00BF34130020A0
:1059600008B505F07FF8024B1860024B186008BDBF
:105970002C1300203013002008B505F073F8024BFB
:105980001860024B186008BD2C130020281300205B
:10599000704770470120704708B5054800F092FA3B
:1059A00000F08AFFFFF7F4FFFCF7F6FB08BD00BF2D
:1059B000BD5E00080120704708B5FFF7FBFF08BD7A
:1059C00008B5FDF77BF8FDF763FD08BD08B500F0ED
:1059D00085FAFEF7DDFEBDE8084003F08DBB000050
:1059E00008B505F03DF803F0D3FE04F0E7F900F048
:1059F00047FBFFF7EBFF054B1A7842F080021A7065
:105A00001888FFF70DFFFDF73BFC08BD143200209E
:105A10002DE9F04F85B0FFF7BDFF68B9FFF780FFB4
:105A200003F0DEFA04F0FCF908B1FFF7A5FF05B0BA
:105A3000BDE8F04FFEF7C0BE2D4F00F03BFB3E46E9
:105A40000024E0B236F8025B00F074FA042C4BD06C
:105A5000854204F10104F4D0264B1B789B0701D545
:105A600000F06EFAFFF7A8FF002600900DF1080A7B
:105A70005FFA86F9484600F05DFA37F8028B8346F4
:105A800040452BD00024012580EA080815EA080FBC
:105A90001CD0009B1BEA050F14BF012200228BB112
:105AA0008DF80A2001928DF808408DF8099005F0D4
:105AB00013F840F00100ADF80C009AE80300FEF77F
:105AC00091FE019A2146484602F046FF0134E4B2B5
:105AD0006D000F2CADB2D9D127F802BC0136052ECE
